{
  "abi": [
    {
      "inputs": [
        {
          "internalType": "contract IPoolManager",
          "name": "_manager",
          "type": "address"
        }
      ],
      "stateMutability": "nonpayable",
      "type": "constructor"
    },
    {
      "inputs": [],
      "name": "ERC20TransferFailed",
      "type": "error"
    },
    {
      "inputs": [],
      "name": "NativeTransferFailed",
      "type": "error"
    },
    {
      "inputs": [
        {
          "components": [
            {
              "internalType": "Currency",
              "name": "currency0",
              "type": "address"
            },
            {
              "internalType": "Currency",
              "name": "currency1",
              "type": "address"
            },
            {
              "internalType": "uint24",
              "name": "fee",
              "type": "uint24"
            },
            {
              "internalType": "int24",
              "name": "tickSpacing",
              "type": "int24"
            },
            {
              "internalType": "contract IHooks",
              "name": "hooks",
              "type": "address"
            }
          ],
          "internalType": "struct PoolKey",
          "name": "key",
          "type": "tuple"
        },
        {
          "internalType": "uint256",
          "name": "amount0",
          "type": "uint256"
        },
        {
          "internalType": "uint256",
          "name": "amount1",
          "type": "uint256"
        },
        {
          "internalType": "bytes",
          "name": "hookData",
          "type": "bytes"
        }
      ],
      "name": "donate",
      "outputs": [
        {
          "internalType": "BalanceDelta",
          "name": "delta",
          "type": "int256"
        }
      ],
      "stateMutability": "payable",
      "type": "function"
    },
    {
      "inputs": [
        {
          "internalType": "bytes",
          "name": "rawData",
          "type": "bytes"
        }
      ],
      "name": "lockAcquired",
      "outputs": [
        {
          "internalType": "bytes",
          "name": "",
          "type": "bytes"
        }
      ],
      "stateMutability": "nonpayable",
      "type": "function"
    },
    {
      "inputs": [],
      "name": "manager",
      "outputs": [
        {
          "internalType": "contract IPoolManager",
          "name": "",
          "type": "address"
        }
      ],
      "stateMutability": "view",
      "type": "function"
    }
  ],
  "bytecode": {
    "object": "0x60a060405234801561001057600080fd5b50604051610e0b380380610e0b83398101604081905261002f91610040565b6001600160a01b0316608052610070565b60006020828403121561005257600080fd5b81516001600160a01b038116811461006957600080fd5b9392505050565b608051610d436100c86000396000818160710152818160dc015281816101f90152818161023701528181610306015281816103de015281816104ae015281816105670152818161060501526106d40152610d436000f3fe6080604052600436106100345760003560e01c8063234266d714610039578063481c6a751461005f578063ab6291fe146100ab575b600080fd5b61004c61004736600461099a565b6100d8565b6040519081526020015b60405180910390f35b34801561006b57600080fd5b506100937f000000000000000000000000000000000000000000000000000000000000000081565b6040516001600160a01b039091168152602001610056565b3480156100b757600080fd5b506100cb6100c63660046109fd565b6101ec565b6040516100569190610abf565b60007f00000000000000000000000000000000000000000000000000000000000000006001600160a01b031663815483196040518060a00160405280336001600160a01b03168152602001888152602001878152602001868152602001858152506040516020016101499190610b1c565b6040516020818303038152906040526040518263ffffffff1660e01b81526004016101749190610abf565b6000604051808303816000875af1158015610193573d6000803e3d6000fd5b505050506040513d6000823e601f3d908101601f191682016040526101bb9190810190610b7b565b8060200190518101906101ce9190610bf2565b90504780156101e3576101e36000338361076a565b50949350505050565b6060336001600160a01b037f0000000000000000000000000000000000000000000000000000000000000000161461022357600080fd5b600061023183850185610c0b565b905060007f00000000000000000000000000000000000000000000000000000000000000006001600160a01b031663234266d783602001518460400151856060015186608001516040518563ffffffff1660e01b81526004016102979493929190610cb3565b6020604051808303816000875af11580156102b6573d6000803e3d6000fd5b505050506040513d601f19601f820116820180604052508101906102da9190610bf2565b905060006102e88260801c90565b600f0b131561051f576020820151516001600160a01b03166103c0577f00000000000000000000000000000000000000000000000000000000000000006001600160a01b0316636a256b2961033d8360801c90565b6020850151516040516001600160e01b031960e085901b1681526001600160a01b0390911660048201526001600160801b03919091169060240160206040518083038185885af1158015610395573d6000803e3d6000fd5b50505050506040513d601f19601f820116820180604052508101906103ba9190610bf2565b5061051f565b8160200151600001516001600160a01b03166323b872dd83600001517f00000000000000000000000000000000000000000000000000000000000000006104078560801c90565b6040516001600160e01b031960e086901b1681526001600160a01b0393841660048201529290911660248301526001600160801b031660448201526064016020604051808303816000875af1158015610464573d6000803e3d6000fd5b505050506040513d601f19601f820116820180604052508101906104889190610ceb565b50602082015151604051636a256b2960e01b81526001600160a01b0391821660048201527f000000000000000000000000000000000000000000000000000000000000000090911690636a256b29906024016020604051808303816000875af11580156104f9573d6000803e3d6000fd5b505050506040513d601f19601f8201168201806040525081019061051d9190610bf2565b505b600081600f0b13156107455760208083015101516001600160a01b03166105e7576020808301510151604051636a256b2960e01b81526001600160a01b0391821660048201527f000000000000000000000000000000000000000000000000000000000000000090911690636a256b29906001600160801b0384169060240160206040518083038185885af11580156105bc573d6000803e3d6000fd5b50505050506040513d601f19601f820116820180604052508101906105e19190610bf2565b50610745565b8160200151602001516001600160a01b03166323b872dd83600001517f000000000000000000000000000000000000000000000000000000000000000061062b8590565b6040516001600160e01b031960e086901b1681526001600160a01b0393841660048201529290911660248301526001600160801b031660448201526064016020604051808303816000875af1158015610688573d6000803e3d6000fd5b505050506040513d601f19601f820116820180604052508101906106ac9190610ceb565b506020828101510151604051636a256b2960e01b81526001600160a01b0391821660048201527f000000000000000000000000000000000000000000000000000000000000000090911690636a256b29906024016020604051808303816000875af115801561071f573d6000803e3d6000fd5b505050506040513d601f19601f820116820180604052508101906107439190610bf2565b505b6040805160208101839052016040516020818303038152906040529250505092915050565b60006001600160a01b0384166107a95760008060008085875af19050806107a457604051633d2cec6f60e21b815260040160405180910390fd5b610804565b60405163a9059cbb60e01b6000528360045282602452602060006044600080895af13d15601f3d116001600051141617169150600060605280604052508061080457604051633c9fd93960e21b815260040160405180910390fd5b50505050565b634e487b7160e01b600052604160045260246000fd5b60405160a0810167ffffffffffffffff811182821017156108435761084361080a565b60405290565b604051601f8201601f1916810167ffffffffffffffff811182821017156108725761087261080a565b604052919050565b6001600160a01b038116811461088f57600080fd5b50565b600060a082840312156108a457600080fd5b6108ac610820565b905081356108b98161087a565b815260208201356108c98161087a565b6020820152604082013562ffffff811681146108e457600080fd5b60408201526060820135600281900b81146108fe57600080fd5b606082015260808201356109118161087a565b608082015292915050565b600067ffffffffffffffff8211156109365761093661080a565b50601f01601f191660200190565b600082601f83011261095557600080fd5b81356109686109638261091c565b610849565b81815284602083860101111561097d57600080fd5b816020850160208301376000918101602001919091529392505050565b60008060008061010085870312156109b157600080fd5b6109bb8686610892565b935060a0850135925060c0850135915060e085013567ffffffffffffffff8111156109e557600080fd5b6109f187828801610944565b91505092959194509250565b60008060208385031215610a1057600080fd5b823567ffffffffffffffff80821115610a2857600080fd5b818501915085601f830112610a3c57600080fd5b813581811115610a4b57600080fd5b866020828501011115610a5d57600080fd5b60209290920196919550909350505050565b60005b83811015610a8a578181015183820152602001610a72565b50506000910152565b60008151808452610aab816020860160208601610a6f565b601f01601f19169290920160200192915050565b602081526000610ad26020830184610a93565b9392505050565b80516001600160a01b03908116835260208083015182169084015260408083015162ffffff169084015260608083015160020b9084015260809182015116910152565b602080825282516001600160a01b031682820152820151600090610b436040840182610ad9565b50604083015160e08301526060830151610100830152608083015161012080840152610b73610140840182610a93565b949350505050565b600060208284031215610b8d57600080fd5b815167ffffffffffffffff811115610ba457600080fd5b8201601f81018413610bb557600080fd5b8051610bc36109638261091c565b818152856020838501011115610bd857600080fd5b610be9826020830160208601610a6f565b95945050505050565b600060208284031215610c0457600080fd5b5051919050565b600060208284031215610c1d57600080fd5b813567ffffffffffffffff80821115610c3557600080fd5b908301906101208286031215610c4a57600080fd5b610c52610820565b8235610c5d8161087a565b8152610c6c8660208501610892565b602082015260c0830135604082015260e0830135606082015261010083013582811115610c9857600080fd5b610ca487828601610944565b60808301525095945050505050565b6000610100610cc28388610ad9565b8560a08401528460c08401528060e0840152610ce081840185610a93565b979650505050505050565b600060208284031215610cfd57600080fd5b81518015158114610ad257600080fdfea26469706673582212206901a1ab5e2984deb5e97a8cec2be84a77d2379fb8214ace866e55ac9b2131c564736f6c63430008140033",
    "linkReferences": {}
  },
  "methodIdentifiers": {
    "donate((address,address,uint24,int24,address),uint256,uint256,bytes)": "234266d7",
    "lockAcquired(bytes)": "ab6291fe",
    "manager()": "481c6a75"
  },
  "id": 64
}