{
  "abi": [
    {
      "inputs": [
        {
          "internalType": "uint256",
          "name": "controllerGasLimit",
          "type": "uint256"
        }
      ],
      "stateMutability": "nonpayable",
      "type": "constructor"
    },
    {
      "inputs": [],
      "name": "CannotUpdateEmptyPosition",
      "type": "error"
    },
    {
      "inputs": [],
      "name": "CurrenciesInitializedOutOfOrder",
      "type": "error"
    },
    {
      "inputs": [],
      "name": "CurrencyNotSettled",
      "type": "error"
    },
    {
      "inputs": [],
      "name": "DelegateCallNotAllowed",
      "type": "error"
    },
    {
      "inputs": [
        {
          "internalType": "address",
          "name": "sender",
          "type": "address"
        },
        {
          "internalType": "uint256",
          "name": "balance",
          "type": "uint256"
        },
        {
          "internalType": "uint256",
          "name": "needed",
          "type": "uint256"
        },
        {
          "internalType": "uint256",
          "name": "tokenId",
          "type": "uint256"
        }
      ],
      "name": "ERC1155InsufficientBalance",
      "type": "error"
    },
    {
      "inputs": [
        {
          "internalType": "address",
          "name": "approver",
          "type": "address"
        }
      ],
      "name": "ERC1155InvalidApprover",
      "type": "error"
    },
    {
      "inputs": [
        {
          "internalType": "uint256",
          "name": "idsLength",
          "type": "uint256"
        },
        {
          "internalType": "uint256",
          "name": "valuesLength",
          "type": "uint256"
        }
      ],
      "name": "ERC1155InvalidArrayLength",
      "type": "error"
    },
    {
      "inputs": [
        {
          "internalType": "address",
          "name": "operator",
          "type": "address"
        }
      ],
      "name": "ERC1155InvalidOperator",
      "type": "error"
    },
    {
      "inputs": [
        {
          "internalType": "address",
          "name": "receiver",
          "type": "address"
        }
      ],
      "name": "ERC1155InvalidReceiver",
      "type": "error"
    },
    {
      "inputs": [
        {
          "internalType": "address",
          "name": "sender",
          "type": "address"
        }
      ],
      "name": "ERC1155InvalidSender",
      "type": "error"
    },
    {
      "inputs": [
        {
          "internalType": "address",
          "name": "operator",
          "type": "address"
        },
        {
          "internalType": "address",
          "name": "owner",
          "type": "address"
        }
      ],
      "name": "ERC1155MissingApprovalForAll",
      "type": "error"
    },
    {
      "inputs": [],
      "name": "ERC20TransferFailed",
      "type": "error"
    },
    {
      "inputs": [],
      "name": "FeeTooLarge",
      "type": "error"
    },
    {
      "inputs": [
        {
          "internalType": "address",
          "name": "hooks",
          "type": "address"
        }
      ],
      "name": "HookAddressNotValid",
      "type": "error"
    },
    {
      "inputs": [],
      "name": "InvalidCaller",
      "type": "error"
    },
    {
      "inputs": [],
      "name": "InvalidHookResponse",
      "type": "error"
    },
    {
      "inputs": [],
      "name": "InvalidSqrtRatio",
      "type": "error"
    },
    {
      "inputs": [],
      "name": "InvalidTick",
      "type": "error"
    },
    {
      "inputs": [
        {
          "internalType": "address",
          "name": "locker",
          "type": "address"
        }
      ],
      "name": "LockedBy",
      "type": "error"
    },
    {
      "inputs": [],
      "name": "MaxCurrenciesTouched",
      "type": "error"
    },
    {
      "inputs": [],
      "name": "NativeTransferFailed",
      "type": "error"
    },
    {
      "inputs": [],
      "name": "NoLiquidityToReceiveFees",
      "type": "error"
    },
    {
      "inputs": [],
      "name": "NotPoolManagerToken",
      "type": "error"
    },
    {
      "inputs": [],
      "name": "PoolAlreadyInitialized",
      "type": "error"
    },
    {
      "inputs": [],
      "name": "PoolNotInitialized",
      "type": "error"
    },
    {
      "inputs": [
        {
          "internalType": "uint160",
          "name": "sqrtPriceCurrentX96",
          "type": "uint160"
        },
        {
          "internalType": "uint160",
          "name": "sqrtPriceLimitX96",
          "type": "uint160"
        }
      ],
      "name": "PriceLimitAlreadyExceeded",
      "type": "error"
    },
    {
      "inputs": [
        {
          "internalType": "uint160",
          "name": "sqrtPriceLimitX96",
          "type": "uint160"
        }
      ],
      "name": "PriceLimitOutOfBounds",
      "type": "error"
    },
    {
      "inputs": [],
      "name": "ProtocolFeeCannotBeFetched",
      "type": "error"
    },
    {
      "inputs": [],
      "name": "SwapAmountCannotBeZero",
      "type": "error"
    },
    {
      "inputs": [
        {
          "internalType": "int24",
          "name": "tick",
          "type": "int24"
        }
      ],
      "name": "TickLiquidityOverflow",
      "type": "error"
    },
    {
      "inputs": [
        {
          "internalType": "int24",
          "name": "tickLower",
          "type": "int24"
        }
      ],
      "name": "TickLowerOutOfBounds",
      "type": "error"
    },
    {
      "inputs": [
        {
          "internalType": "int24",
          "name": "tick",
          "type": "int24"
        },
        {
          "internalType": "int24",
          "name": "tickSpacing",
          "type": "int24"
        }
      ],
      "name": "TickMisaligned",
      "type": "error"
    },
    {
      "inputs": [],
      "name": "TickSpacingTooLarge",
      "type": "error"
    },
    {
      "inputs": [],
      "name": "TickSpacingTooSmall",
      "type": "error"
    },
    {
      "inputs": [
        {
          "internalType": "int24",
          "name": "tickUpper",
          "type": "int24"
        }
      ],
      "name": "TickUpperOutOfBounds",
      "type": "error"
    },
    {
      "inputs": [
        {
          "internalType": "int24",
          "name": "tickLower",
          "type": "int24"
        },
        {
          "internalType": "int24",
          "name": "tickUpper",
          "type": "int24"
        }
      ],
      "name": "TicksMisordered",
      "type": "error"
    },
    {
      "anonymous": false,
      "inputs": [
        {
          "indexed": true,
          "internalType": "address",
          "name": "account",
          "type": "address"
        },
        {
          "indexed": true,
          "internalType": "address",
          "name": "operator",
          "type": "address"
        },
        {
          "indexed": false,
          "internalType": "bool",
          "name": "approved",
          "type": "bool"
        }
      ],
      "name": "ApprovalForAll",
      "type": "event"
    },
    {
      "anonymous": false,
      "inputs": [
        {
          "indexed": true,
          "internalType": "PoolId",
          "name": "id",
          "type": "bytes32"
        },
        {
          "indexed": false,
          "internalType": "uint24",
          "name": "hookFees",
          "type": "uint24"
        }
      ],
      "name": "HookFeeUpdated",
      "type": "event"
    },
    {
      "anonymous": false,
      "inputs": [
        {
          "indexed": true,
          "internalType": "PoolId",
          "name": "id",
          "type": "bytes32"
        },
        {
          "indexed": true,
          "internalType": "Currency",
          "name": "currency0",
          "type": "address"
        },
        {
          "indexed": true,
          "internalType": "Currency",
          "name": "currency1",
          "type": "address"
        },
        {
          "indexed": false,
          "internalType": "uint24",
          "name": "fee",
          "type": "uint24"
        },
        {
          "indexed": false,
          "internalType": "int24",
          "name": "tickSpacing",
          "type": "int24"
        },
        {
          "indexed": false,
          "internalType": "contract IHooks",
          "name": "hooks",
          "type": "address"
        }
      ],
      "name": "Initialize",
      "type": "event"
    },
    {
      "anonymous": false,
      "inputs": [
        {
          "indexed": true,
          "internalType": "PoolId",
          "name": "id",
          "type": "bytes32"
        },
        {
          "indexed": true,
          "internalType": "address",
          "name": "sender",
          "type": "address"
        },
        {
          "indexed": false,
          "internalType": "int24",
          "name": "tickLower",
          "type": "int24"
        },
        {
          "indexed": false,
          "internalType": "int24",
          "name": "tickUpper",
          "type": "int24"
        },
        {
          "indexed": false,
          "internalType": "int256",
          "name": "liquidityDelta",
          "type": "int256"
        }
      ],
      "name": "ModifyPosition",
      "type": "event"
    },
    {
      "anonymous": false,
      "inputs": [
        {
          "indexed": true,
          "internalType": "address",
          "name": "oldOwner",
          "type": "address"
        },
        {
          "indexed": true,
          "internalType": "address",
          "name": "newOwner",
          "type": "address"
        }
      ],
      "name": "OwnerChanged",
      "type": "event"
    },
    {
      "anonymous": false,
      "inputs": [
        {
          "indexed": false,
          "internalType": "address",
          "name": "protocolFeeController",
          "type": "address"
        }
      ],
      "name": "ProtocolFeeControllerUpdated",
      "type": "event"
    },
    {
      "anonymous": false,
      "inputs": [
        {
          "indexed": true,
          "internalType": "PoolId",
          "name": "id",
          "type": "bytes32"
        },
        {
          "indexed": false,
          "internalType": "uint24",
          "name": "protocolFees",
          "type": "uint24"
        }
      ],
      "name": "ProtocolFeeUpdated",
      "type": "event"
    },
    {
      "anonymous": false,
      "inputs": [
        {
          "indexed": true,
          "internalType": "PoolId",
          "name": "id",
          "type": "bytes32"
        },
        {
          "indexed": true,
          "internalType": "address",
          "name": "sender",
          "type": "address"
        },
        {
          "indexed": false,
          "internalType": "int128",
          "name": "amount0",
          "type": "int128"
        },
        {
          "indexed": false,
          "internalType": "int128",
          "name": "amount1",
          "type": "int128"
        },
        {
          "indexed": false,
          "internalType": "uint160",
          "name": "sqrtPriceX96",
          "type": "uint160"
        },
        {
          "indexed": false,
          "internalType": "uint128",
          "name": "liquidity",
          "type": "uint128"
        },
        {
          "indexed": false,
          "internalType": "int24",
          "name": "tick",
          "type": "int24"
        },
        {
          "indexed": false,
          "internalType": "uint24",
          "name": "fee",
          "type": "uint24"
        }
      ],
      "name": "Swap",
      "type": "event"
    },
    {
      "anonymous": false,
      "inputs": [
        {
          "indexed": true,
          "internalType": "address",
          "name": "operator",
          "type": "address"
        },
        {
          "indexed": true,
          "internalType": "address",
          "name": "from",
          "type": "address"
        },
        {
          "indexed": true,
          "internalType": "address",
          "name": "to",
          "type": "address"
        },
        {
          "indexed": false,
          "internalType": "uint256[]",
          "name": "ids",
          "type": "uint256[]"
        },
        {
          "indexed": false,
          "internalType": "uint256[]",
          "name": "values",
          "type": "uint256[]"
        }
      ],
      "name": "TransferBatch",
      "type": "event"
    },
    {
      "anonymous": false,
      "inputs": [
        {
          "indexed": true,
          "internalType": "address",
          "name": "operator",
          "type": "address"
        },
        {
          "indexed": true,
          "internalType": "address",
          "name": "from",
          "type": "address"
        },
        {
          "indexed": true,
          "internalType": "address",
          "name": "to",
          "type": "address"
        },
        {
          "indexed": false,
          "internalType": "uint256",
          "name": "id",
          "type": "uint256"
        },
        {
          "indexed": false,
          "internalType": "uint256",
          "name": "value",
          "type": "uint256"
        }
      ],
      "name": "TransferSingle",
      "type": "event"
    },
    {
      "anonymous": false,
      "inputs": [
        {
          "indexed": false,
          "internalType": "string",
          "name": "value",
          "type": "string"
        },
        {
          "indexed": true,
          "internalType": "uint256",
          "name": "id",
          "type": "uint256"
        }
      ],
      "name": "URI",
      "type": "event"
    },
    {
      "inputs": [],
      "name": "MAX_TICK_SPACING",
      "outputs": [
        {
          "internalType": "int24",
          "name": "",
          "type": "int24"
        }
      ],
      "stateMutability": "view",
      "type": "function"
    },
    {
      "inputs": [],
      "name": "MIN_PROTOCOL_FEE_DENOMINATOR",
      "outputs": [
        {
          "internalType": "uint8",
          "name": "",
          "type": "uint8"
        }
      ],
      "stateMutability": "view",
      "type": "function"
    },
    {
      "inputs": [],
      "name": "MIN_TICK_SPACING",
      "outputs": [
        {
          "internalType": "int24",
          "name": "",
          "type": "int24"
        }
      ],
      "stateMutability": "view",
      "type": "function"
    },
    {
      "inputs": [
        {
          "internalType": "address",
          "name": "account",
          "type": "address"
        },
        {
          "internalType": "uint256",
          "name": "id",
          "type": "uint256"
        }
      ],
      "name": "balanceOf",
      "outputs": [
        {
          "internalType": "uint256",
          "name": "",
          "type": "uint256"
        }
      ],
      "stateMutability": "view",
      "type": "function"
    },
    {
      "inputs": [
        {
          "internalType": "address[]",
          "name": "accounts",
          "type": "address[]"
        },
        {
          "internalType": "uint256[]",
          "name": "ids",
          "type": "uint256[]"
        }
      ],
      "name": "balanceOfBatch",
      "outputs": [
        {
          "internalType": "uint256[]",
          "name": "",
          "type": "uint256[]"
        }
      ],
      "stateMutability": "view",
      "type": "function"
    },
    {
      "inputs": [
        {
          "internalType": "address",
          "name": "recipient",
          "type": "address"
        },
        {
          "internalType": "Currency",
          "name": "currency",
          "type": "address"
        },
        {
          "internalType": "uint256",
          "name": "amount",
          "type": "uint256"
        }
      ],
      "name": "collectHookFees",
      "outputs": [
        {
          "internalType": "uint256",
          "name": "amountCollected",
          "type": "uint256"
        }
      ],
      "stateMutability": "nonpayable",
      "type": "function"
    },
    {
      "inputs": [
        {
          "internalType": "address",
          "name": "recipient",
          "type": "address"
        },
        {
          "internalType": "Currency",
          "name": "currency",
          "type": "address"
        },
        {
          "internalType": "uint256",
          "name": "amount",
          "type": "uint256"
        }
      ],
      "name": "collectProtocolFees",
      "outputs": [
        {
          "internalType": "uint256",
          "name": "amountCollected",
          "type": "uint256"
        }
      ],
      "stateMutability": "nonpayable",
      "type": "function"
    },
    {
      "inputs": [
        {
          "internalType": "address",
          "name": "locker",
          "type": "address"
        },
        {
          "internalType": "Currency",
          "name": "currency",
          "type": "address"
        }
      ],
      "name": "currencyDelta",
      "outputs": [
        {
          "internalType": "int256",
          "name": "currencyDelta",
          "type": "int256"
        }
      ],
      "stateMutability": "view",
      "type": "function"
    },
    {
      "inputs": [
        {
          "components": [
            {
              "internalType": "Currency",
              "name": "currency0",
              "type": "address"
            },
            {
              "internalType": "Currency",
              "name": "currency1",
              "type": "address"
            },
            {
              "internalType": "uint24",
              "name": "fee",
              "type": "uint24"
            },
            {
              "internalType": "int24",
              "name": "tickSpacing",
              "type": "int24"
            },
            {
              "internalType": "contract IHooks",
              "name": "hooks",
              "type": "address"
            }
          ],
          "internalType": "struct PoolKey",
          "name": "key",
          "type": "tuple"
        },
        {
          "internalType": "uint256",
          "name": "amount0",
          "type": "uint256"
        },
        {
          "internalType": "uint256",
          "name": "amount1",
          "type": "uint256"
        },
        {
          "internalType": "bytes",
          "name": "hookData",
          "type": "bytes"
        }
      ],
      "name": "donate",
      "outputs": [
        {
          "internalType": "BalanceDelta",
          "name": "delta",
          "type": "int256"
        }
      ],
      "stateMutability": "nonpayable",
      "type": "function"
    },
    {
      "inputs": [
        {
          "internalType": "bytes32",
          "name": "slot",
          "type": "bytes32"
        }
      ],
      "name": "extsload",
      "outputs": [
        {
          "internalType": "bytes32",
          "name": "value",
          "type": "bytes32"
        }
      ],
      "stateMutability": "view",
      "type": "function"
    },
    {
      "inputs": [
        {
          "internalType": "bytes32",
          "name": "startSlot",
          "type": "bytes32"
        },
        {
          "internalType": "uint256",
          "name": "nSlots",
          "type": "uint256"
        }
      ],
      "name": "extsload",
      "outputs": [
        {
          "internalType": "bytes",
          "name": "",
          "type": "bytes"
        }
      ],
      "stateMutability": "view",
      "type": "function"
    },
    {
      "inputs": [
        {
          "internalType": "PoolId",
          "name": "id",
          "type": "bytes32"
        },
        {
          "internalType": "address",
          "name": "_owner",
          "type": "address"
        },
        {
          "internalType": "int24",
          "name": "tickLower",
          "type": "int24"
        },
        {
          "internalType": "int24",
          "name": "tickUpper",
          "type": "int24"
        }
      ],
      "name": "getLiquidity",
      "outputs": [
        {
          "internalType": "uint128",
          "name": "liquidity",
          "type": "uint128"
        }
      ],
      "stateMutability": "view",
      "type": "function"
    },
    {
      "inputs": [
        {
          "internalType": "PoolId",
          "name": "id",
          "type": "bytes32"
        }
      ],
      "name": "getLiquidity",
      "outputs": [
        {
          "internalType": "uint128",
          "name": "liquidity",
          "type": "uint128"
        }
      ],
      "stateMutability": "view",
      "type": "function"
    },
    {
      "inputs": [
        {
          "internalType": "uint256",
          "name": "i",
          "type": "uint256"
        }
      ],
      "name": "getLock",
      "outputs": [
        {
          "internalType": "address",
          "name": "locker",
          "type": "address"
        }
      ],
      "stateMutability": "view",
      "type": "function"
    },
    {
      "inputs": [
        {
          "internalType": "PoolId",
          "name": "id",
          "type": "bytes32"
        },
        {
          "internalType": "address",
          "name": "owner",
          "type": "address"
        },
        {
          "internalType": "int24",
          "name": "tickLower",
          "type": "int24"
        },
        {
          "internalType": "int24",
          "name": "tickUpper",
          "type": "int24"
        }
      ],
      "name": "getPosition",
      "outputs": [
        {
          "components": [
            {
              "internalType": "uint128",
              "name": "liquidity",
              "type": "uint128"
            },
            {
              "internalType": "uint256",
              "name": "feeGrowthInside0LastX128",
              "type": "uint256"
            },
            {
              "internalType": "uint256",
              "name": "feeGrowthInside1LastX128",
              "type": "uint256"
            }
          ],
          "internalType": "struct Position.Info",
          "name": "position",
          "type": "tuple"
        }
      ],
      "stateMutability": "view",
      "type": "function"
    },
    {
      "inputs": [
        {
          "internalType": "PoolId",
          "name": "id",
          "type": "bytes32"
        }
      ],
      "name": "getSlot0",
      "outputs": [
        {
          "internalType": "uint160",
          "name": "sqrtPriceX96",
          "type": "uint160"
        },
        {
          "internalType": "int24",
          "name": "tick",
          "type": "int24"
        },
        {
          "internalType": "uint24",
          "name": "protocolFees",
          "type": "uint24"
        },
        {
          "internalType": "uint24",
          "name": "hookFees",
          "type": "uint24"
        }
      ],
      "stateMutability": "view",
      "type": "function"
    },
    {
      "inputs": [
        {
          "internalType": "address",
          "name": "hookAddress",
          "type": "address"
        },
        {
          "internalType": "Currency",
          "name": "currency",
          "type": "address"
        }
      ],
      "name": "hookFeesAccrued",
      "outputs": [
        {
          "internalType": "uint256",
          "name": "",
          "type": "uint256"
        }
      ],
      "stateMutability": "view",
      "type": "function"
    },
    {
      "inputs": [
        {
          "components": [
            {
              "internalType": "Currency",
              "name": "currency0",
              "type": "address"
            },
            {
              "internalType": "Currency",
              "name": "currency1",
              "type": "address"
            },
            {
              "internalType": "uint24",
              "name": "fee",
              "type": "uint24"
            },
            {
              "internalType": "int24",
              "name": "tickSpacing",
              "type": "int24"
            },
            {
              "internalType": "contract IHooks",
              "name": "hooks",
              "type": "address"
            }
          ],
          "internalType": "struct PoolKey",
          "name": "key",
          "type": "tuple"
        },
        {
          "internalType": "uint160",
          "name": "sqrtPriceX96",
          "type": "uint160"
        },
        {
          "internalType": "bytes",
          "name": "hookData",
          "type": "bytes"
        }
      ],
      "name": "initialize",
      "outputs": [
        {
          "internalType": "int24",
          "name": "tick",
          "type": "int24"
        }
      ],
      "stateMutability": "nonpayable",
      "type": "function"
    },
    {
      "inputs": [
        {
          "internalType": "address",
          "name": "account",
          "type": "address"
        },
        {
          "internalType": "address",
          "name": "operator",
          "type": "address"
        }
      ],
      "name": "isApprovedForAll",
      "outputs": [
        {
          "internalType": "bool",
          "name": "",
          "type": "bool"
        }
      ],
      "stateMutability": "view",
      "type": "function"
    },
    {
      "inputs": [
        {
          "internalType": "bytes",
          "name": "data",
          "type": "bytes"
        }
      ],
      "name": "lock",
      "outputs": [
        {
          "internalType": "bytes",
          "name": "result",
          "type": "bytes"
        }
      ],
      "stateMutability": "nonpayable",
      "type": "function"
    },
    {
      "inputs": [],
      "name": "lockData",
      "outputs": [
        {
          "internalType": "uint128",
          "name": "length",
          "type": "uint128"
        },
        {
          "internalType": "uint128",
          "name": "nonzeroDeltaCount",
          "type": "uint128"
        }
      ],
      "stateMutability": "view",
      "type": "function"
    },
    {
      "inputs": [
        {
          "internalType": "Currency",
          "name": "currency",
          "type": "address"
        },
        {
          "internalType": "address",
          "name": "to",
          "type": "address"
        },
        {
          "internalType": "uint256",
          "name": "amount",
          "type": "uint256"
        }
      ],
      "name": "mint",
      "outputs": [],
      "stateMutability": "nonpayable",
      "type": "function"
    },
    {
      "inputs": [
        {
          "components": [
            {
              "internalType": "Currency",
              "name": "currency0",
              "type": "address"
            },
            {
              "internalType": "Currency",
              "name": "currency1",
              "type": "address"
            },
            {
              "internalType": "uint24",
              "name": "fee",
              "type": "uint24"
            },
            {
              "internalType": "int24",
              "name": "tickSpacing",
              "type": "int24"
            },
            {
              "internalType": "contract IHooks",
              "name": "hooks",
              "type": "address"
            }
          ],
          "internalType": "struct PoolKey",
          "name": "key",
          "type": "tuple"
        },
        {
          "components": [
            {
              "internalType": "int24",
              "name": "tickLower",
              "type": "int24"
            },
            {
              "internalType": "int24",
              "name": "tickUpper",
              "type": "int24"
            },
            {
              "internalType": "int256",
              "name": "liquidityDelta",
              "type": "int256"
            }
          ],
          "internalType": "struct IPoolManager.ModifyPositionParams",
          "name": "params",
          "type": "tuple"
        },
        {
          "internalType": "bytes",
          "name": "hookData",
          "type": "bytes"
        }
      ],
      "name": "modifyPosition",
      "outputs": [
        {
          "internalType": "BalanceDelta",
          "name": "delta",
          "type": "int256"
        }
      ],
      "stateMutability": "nonpayable",
      "type": "function"
    },
    {
      "inputs": [
        {
          "internalType": "address",
          "name": "",
          "type": "address"
        },
        {
          "internalType": "address",
          "name": "",
          "type": "address"
        },
        {
          "internalType": "uint256[]",
          "name": "ids",
          "type": "uint256[]"
        },
        {
          "internalType": "uint256[]",
          "name": "values",
          "type": "uint256[]"
        },
        {
          "internalType": "bytes",
          "name": "",
          "type": "bytes"
        }
      ],
      "name": "onERC1155BatchReceived",
      "outputs": [
        {
          "internalType": "bytes4",
          "name": "",
          "type": "bytes4"
        }
      ],
      "stateMutability": "nonpayable",
      "type": "function"
    },
    {
      "inputs": [
        {
          "internalType": "address",
          "name": "",
          "type": "address"
        },
        {
          "internalType": "address",
          "name": "",
          "type": "address"
        },
        {
          "internalType": "uint256",
          "name": "id",
          "type": "uint256"
        },
        {
          "internalType": "uint256",
          "name": "value",
          "type": "uint256"
        },
        {
          "internalType": "bytes",
          "name": "",
          "type": "bytes"
        }
      ],
      "name": "onERC1155Received",
      "outputs": [
        {
          "internalType": "bytes4",
          "name": "",
          "type": "bytes4"
        }
      ],
      "stateMutability": "nonpayable",
      "type": "function"
    },
    {
      "inputs": [],
      "name": "owner",
      "outputs": [
        {
          "internalType": "address",
          "name": "",
          "type": "address"
        }
      ],
      "stateMutability": "view",
      "type": "function"
    },
    {
      "inputs": [
        {
          "internalType": "PoolId",
          "name": "id",
          "type": "bytes32"
        }
      ],
      "name": "pools",
      "outputs": [
        {
          "components": [
            {
              "internalType": "uint160",
              "name": "sqrtPriceX96",
              "type": "uint160"
            },
            {
              "internalType": "int24",
              "name": "tick",
              "type": "int24"
            },
            {
              "internalType": "uint24",
              "name": "protocolFees",
              "type": "uint24"
            },
            {
              "internalType": "uint24",
              "name": "hookFees",
              "type": "uint24"
            }
          ],
          "internalType": "struct Pool.Slot0",
          "name": "slot0",
          "type": "tuple"
        },
        {
          "internalType": "uint256",
          "name": "feeGrowthGlobal0X128",
          "type": "uint256"
        },
        {
          "internalType": "uint256",
          "name": "feeGrowthGlobal1X128",
          "type": "uint256"
        },
        {
          "internalType": "uint128",
          "name": "liquidity",
          "type": "uint128"
        }
      ],
      "stateMutability": "view",
      "type": "function"
    },
    {
      "inputs": [],
      "name": "protocolFeeController",
      "outputs": [
        {
          "internalType": "contract IProtocolFeeController",
          "name": "",
          "type": "address"
        }
      ],
      "stateMutability": "view",
      "type": "function"
    },
    {
      "inputs": [
        {
          "internalType": "Currency",
          "name": "currency",
          "type": "address"
        }
      ],
      "name": "protocolFeesAccrued",
      "outputs": [
        {
          "internalType": "uint256",
          "name": "",
          "type": "uint256"
        }
      ],
      "stateMutability": "view",
      "type": "function"
    },
    {
      "inputs": [
        {
          "internalType": "Currency",
          "name": "currency",
          "type": "address"
        }
      ],
      "name": "reservesOf",
      "outputs": [
        {
          "internalType": "uint256",
          "name": "",
          "type": "uint256"
        }
      ],
      "stateMutability": "view",
      "type": "function"
    },
    {
      "inputs": [
        {
          "internalType": "address",
          "name": "from",
          "type": "address"
        },
        {
          "internalType": "address",
          "name": "to",
          "type": "address"
        },
        {
          "internalType": "uint256[]",
          "name": "ids",
          "type": "uint256[]"
        },
        {
          "internalType": "uint256[]",
          "name": "values",
          "type": "uint256[]"
        },
        {
          "internalType": "bytes",
          "name": "data",
          "type": "bytes"
        }
      ],
      "name": "safeBatchTransferFrom",
      "outputs": [],
      "stateMutability": "nonpayable",
      "type": "function"
    },
    {
      "inputs": [
        {
          "internalType": "address",
          "name": "from",
          "type": "address"
        },
        {
          "internalType": "address",
          "name": "to",
          "type": "address"
        },
        {
          "internalType": "uint256",
          "name": "id",
          "type": "uint256"
        },
        {
          "internalType": "uint256",
          "name": "value",
          "type": "uint256"
        },
        {
          "internalType": "bytes",
          "name": "data",
          "type": "bytes"
        }
      ],
      "name": "safeTransferFrom",
      "outputs": [],
      "stateMutability": "nonpayable",
      "type": "function"
    },
    {
      "inputs": [
        {
          "internalType": "address",
          "name": "operator",
          "type": "address"
        },
        {
          "internalType": "bool",
          "name": "approved",
          "type": "bool"
        }
      ],
      "name": "setApprovalForAll",
      "outputs": [],
      "stateMutability": "nonpayable",
      "type": "function"
    },
    {
      "inputs": [
        {
          "components": [
            {
              "internalType": "Currency",
              "name": "currency0",
              "type": "address"
            },
            {
              "internalType": "Currency",
              "name": "currency1",
              "type": "address"
            },
            {
              "internalType": "uint24",
              "name": "fee",
              "type": "uint24"
            },
            {
              "internalType": "int24",
              "name": "tickSpacing",
              "type": "int24"
            },
            {
              "internalType": "contract IHooks",
              "name": "hooks",
              "type": "address"
            }
          ],
          "internalType": "struct PoolKey",
          "name": "key",
          "type": "tuple"
        }
      ],
      "name": "setHookFees",
      "outputs": [],
      "stateMutability": "nonpayable",
      "type": "function"
    },
    {
      "inputs": [
        {
          "internalType": "address",
          "name": "_owner",
          "type": "address"
        }
      ],
      "name": "setOwner",
      "outputs": [],
      "stateMutability": "nonpayable",
      "type": "function"
    },
    {
      "inputs": [
        {
          "internalType": "contract IProtocolFeeController",
          "name": "controller",
          "type": "address"
        }
      ],
      "name": "setProtocolFeeController",
      "outputs": [],
      "stateMutability": "nonpayable",
      "type": "function"
    },
    {
      "inputs": [
        {
          "components": [
            {
              "internalType": "Currency",
              "name": "currency0",
              "type": "address"
            },
            {
              "internalType": "Currency",
              "name": "currency1",
              "type": "address"
            },
            {
              "internalType": "uint24",
              "name": "fee",
              "type": "uint24"
            },
            {
              "internalType": "int24",
              "name": "tickSpacing",
              "type": "int24"
            },
            {
              "internalType": "contract IHooks",
              "name": "hooks",
              "type": "address"
            }
          ],
          "internalType": "struct PoolKey",
          "name": "key",
          "type": "tuple"
        }
      ],
      "name": "setProtocolFees",
      "outputs": [],
      "stateMutability": "nonpayable",
      "type": "function"
    },
    {
      "inputs": [
        {
          "internalType": "Currency",
          "name": "currency",
          "type": "address"
        }
      ],
      "name": "settle",
      "outputs": [
        {
          "internalType": "uint256",
          "name": "paid",
          "type": "uint256"
        }
      ],
      "stateMutability": "payable",
      "type": "function"
    },
    {
      "inputs": [
        {
          "internalType": "bytes4",
          "name": "interfaceId",
          "type": "bytes4"
        }
      ],
      "name": "supportsInterface",
      "outputs": [
        {
          "internalType": "bool",
          "name": "",
          "type": "bool"
        }
      ],
      "stateMutability": "view",
      "type": "function"
    },
    {
      "inputs": [
        {
          "components": [
            {
              "internalType": "Currency",
              "name": "currency0",
              "type": "address"
            },
            {
              "internalType": "Currency",
              "name": "currency1",
              "type": "address"
            },
            {
              "internalType": "uint24",
              "name": "fee",
              "type": "uint24"
            },
            {
              "internalType": "int24",
              "name": "tickSpacing",
              "type": "int24"
            },
            {
              "internalType": "contract IHooks",
              "name": "hooks",
              "type": "address"
            }
          ],
          "internalType": "struct PoolKey",
          "name": "key",
          "type": "tuple"
        },
        {
          "components": [
            {
              "internalType": "bool",
              "name": "zeroForOne",
              "type": "bool"
            },
            {
              "internalType": "int256",
              "name": "amountSpecified",
              "type": "int256"
            },
            {
              "internalType": "uint160",
              "name": "sqrtPriceLimitX96",
              "type": "uint160"
            }
          ],
          "internalType": "struct IPoolManager.SwapParams",
          "name": "params",
          "type": "tuple"
        },
        {
          "internalType": "bytes",
          "name": "hookData",
          "type": "bytes"
        }
      ],
      "name": "swap",
      "outputs": [
        {
          "internalType": "BalanceDelta",
          "name": "delta",
          "type": "int256"
        }
      ],
      "stateMutability": "nonpayable",
      "type": "function"
    },
    {
      "inputs": [
        {
          "internalType": "Currency",
          "name": "currency",
          "type": "address"
        },
        {
          "internalType": "address",
          "name": "to",
          "type": "address"
        },
        {
          "internalType": "uint256",
          "name": "amount",
          "type": "uint256"
        }
      ],
      "name": "take",
      "outputs": [],
      "stateMutability": "nonpayable",
      "type": "function"
    },
    {
      "inputs": [
        {
          "internalType": "uint256",
          "name": "",
          "type": "uint256"
        }
      ],
      "name": "uri",
      "outputs": [
        {
          "internalType": "string",
          "name": "",
          "type": "string"
        }
      ],
      "stateMutability": "view",
      "type": "function"
    },
    {
      "stateMutability": "payable",
      "type": "receive"
    }
  ],
  "bytecode": {
    "object": "0x60c06040523480156200001157600080fd5b5060405162006a4138038062006a418339810160408190526200003491620000af565b60408051602081018252600080825280546001600160a01b0319163390811782559251919284929091907fb532073b38c83145e3e5135377a08bf9aab55bc0fd7c1179cd4fb995d2a5159c908290a36080523060a05262000095816200009d565b50506200023a565b6006620000ab82826200016e565b5050565b600060208284031215620000c257600080fd5b5051919050565b634e487b7160e01b600052604160045260246000fd5b600181811c90821680620000f457607f821691505b6020821081036200011557634e487b7160e01b600052602260045260246000fd5b50919050565b601f8211156200016957600081815260208120601f850160051c81016020861015620001445750805b601f850160051c820191505b81811015620001655782815560010162000150565b5050505b505050565b81516001600160401b038111156200018a576200018a620000c9565b620001a2816200019b8454620000df565b846200011b565b602080601f831160018114620001da5760008415620001c15750858301515b600019600386901b1c1916600185901b17855562000165565b600085815260208120601f198616915b828110156200020b57888601518255948401946001909101908401620001ea565b50858210156200022a5787850151600019600388901b60f8161c191681555b5050505050600190811b01905550565b60805160a0516167da6200026760003960006123650152600081816126ad015261271001526167da6000f3fe6080604052600436106102545760003560e01c806384e41c5e11610139578063c6c3bbe6116100b6578063f02de3b21161007a578063f02de3b214610943578063f23a6e6114610963578063f242432a14610983578063f3cd914c146109a3578063f8fcd156146109c3578063fa6793d514610a0e57600080fd5b8063c6c3bbe61461080b578063c815641c1461082b578063d68f4dd1146108e3578063e985e9c514610903578063effd18c01461092357600080fd5b8063a54b2831116100fd578063a54b28311461064b578063af440f8214610683578063b4c41939146106a3578063b5217bb4146106db578063bc197c81146107d257600080fd5b806384e41c5e146105725780638da5cb5b1461059957806393c85a21146105d157806397e8cd4e146105fe578063a22cb4651461062b57600080fd5b80632d771389116101d257806360460f061161019657806360460f06146104c957806361ae449a146104df578063695c5bf5146104ff5780636a256b291461051f57806381548319146105325780638161b8741461055257600080fd5b80632d771389146104045780632eb2c2d61461042457806333aa955b1461044457806335fd631a1461047c5780634e1273f41461049c57600080fd5b80630e89341c116102195780630e89341c1461035857806313af4035146103855780631e2eaeaf146103a5578063234266d7146103c4578063282076cc146103e457600080fd5b8062fdd58e1461026057806301ffc9a714610293578063048d9c70146102c357806307eff0dd1461030e5780630b0d9c091461033657600080fd5b3661025b57005b600080fd5b34801561026c57600080fd5b5061028061027b3660046156a8565b610a47565b6040519081526020015b60405180910390f35b34801561029f57600080fd5b506102b36102ae3660046156ea565b610a71565b604051901515815260200161028a565b3480156102cf57600080fd5b506102e36102de366004615719565b610ac1565b6040805182516001600160801b0316815260208084015190820152918101519082015260600161028a565b34801561031a57600080fd5b50610323600181565b60405160029190910b815260200161028a565b34801561034257600080fd5b50610356610351366004615768565b610b41565b005b34801561036457600080fd5b506103786103733660046157a9565b610bea565b60405161028a9190615812565b34801561039157600080fd5b506103566103a0366004615825565b610c7e565b3480156103b157600080fd5b506102806103c03660046157a9565b5490565b3480156103d057600080fd5b506102806103df3660046159a2565b610d04565b3480156103f057600080fd5b506103566103ff366004615a0b565b610ee9565b34801561041057600080fd5b5061035661041f366004615825565b610f5c565b34801561043057600080fd5b5061035661043f366004615b2d565b610fdb565b34801561045057600080fd5b5061046461045f366004615719565b611042565b6040516001600160801b03909116815260200161028a565b34801561048857600080fd5b50610378610497366004615bda565b611072565b3480156104a857600080fd5b506104bc6104b7366004615bfc565b6110f1565b60405161028a9190615cf8565b3480156104d557600080fd5b50610323617fff81565b3480156104eb57600080fd5b506102806104fa366004615d0b565b6111bd565b34801561050b57600080fd5b5061032361051a366004615da7565b61157a565b61028061052d366004615825565b6118cd565b34801561053e57600080fd5b5061037861054d366004615df2565b611981565b34801561055e57600080fd5b5061028061056d366004615768565b611aba565b34801561057e57600080fd5b50610587600481565b60405160ff909116815260200161028a565b3480156105a557600080fd5b506000546105b9906001600160a01b031681565b6040516001600160a01b03909116815260200161028a565b3480156105dd57600080fd5b506102806105ec366004615825565b60096020526000908152604090205481565b34801561060a57600080fd5b50610280610619366004615825565b60016020526000908152604090205481565b34801561063757600080fd5b50610356610646366004615e43565b611b73565b34801561065757600080fd5b50610280610666366004615e78565b600860209081526000928352604080842090915290825290205481565b34801561068f57600080fd5b5061035661069e366004615a0b565b611b82565b3480156106af57600080fd5b506102806106be366004615e78565b600260209081526000928352604080842090915290825290205481565b3480156106e757600080fd5b5061076f6106f63660046157a9565b600a60209081526000918252604091829020825160808101845281546001600160a01b0381168252600160a01b8104600290810b9483019490945262ffffff600160b81b8204811695830195909552600160d01b900490931660608401526001810154918101546003909101546001600160801b031684565b6040805185516001600160a01b0316815260208087015160020b908201528582015162ffffff9081169282019290925260609586015190911694810194909452608084019290925260a08301526001600160801b031660c082015260e00161028a565b3480156107de57600080fd5b506107f26107ed366004615ef5565b611bec565b6040516001600160e01b0319909116815260200161028a565b34801561081757600080fd5b50610356610826366004615768565b611c77565b34801561083757600080fd5b506108ab6108463660046157a9565b6000908152600a6020908152604091829020825160808101845290546001600160a01b038116808352600160a01b820460020b93830184905262ffffff600160b81b83048116958401869052600160d01b909204909116606090920182905293919291565b604080516001600160a01b03909516855260029390930b602085015262ffffff9182169284019290925216606082015260800161028a565b3480156108ef57600080fd5b506105b96108fe3660046157a9565b611cf2565b34801561090f57600080fd5b506102b361091e366004615e78565b611d1e565b34801561092f57600080fd5b5061028061093e366004615768565b611d4c565b34801561094f57600080fd5b506003546105b9906001600160a01b031681565b34801561096f57600080fd5b506107f261097e366004615fb3565b611df1565b34801561098f57600080fd5b5061035661099e36600461602e565b611e30565b3480156109af57600080fd5b506102806109be366004616096565b611e8f565b3480156109cf57600080fd5b506007546109ee906001600160801b0380821691600160801b90041682565b604080516001600160801b0393841681529290911660208301520161028a565b348015610a1a57600080fd5b50610464610a293660046157a9565b6000908152600a60205260409020600301546001600160801b031690565b60008181526004602090815260408083206001600160a01b03861684529091529020545b92915050565b60006001600160e01b03198216636cdb3d1360e11b1480610aa257506001600160e01b031982166303a24d0760e21b145b80610a6b57506301ffc9a760e01b6001600160e01b0319831614610a6b565b610aee604051806060016040528060006001600160801b0316815260200160008152602001600081525090565b6000858152600a60205260409020610b0b906006018585856122fd565b6040805160608101825282546001600160801b03168152600183015460208201526002909201549082015290505b949350505050565b610b4961235a565b6000610b5560076123a5565b9050336001600160a01b03821614610b90576040516313d2c13360e21b81526001600160a01b03821660048201526024015b60405180910390fd5b610ba284610b9d846123f2565b61240c565b6001600160a01b03841660009081526009602052604081208054849290610bca908490616132565b90915550610be490506001600160a01b03851684846124f4565b50505050565b606060068054610bf990616145565b80601f0160208091040260200160405190810160405280929190818152602001828054610c2590616145565b8015610c725780601f10610c4757610100808354040283529160200191610c72565b820191906000526020600020905b815481529060010190602001808311610c5557829003601f168201915b50505050509050919050565b6000546001600160a01b03163314610ca9576040516348f5c3ed60e01b815260040160405180910390fd5b600080546040516001600160a01b03808516939216917fb532073b38c83145e3e5135377a08bf9aab55bc0fd7c1179cd4fb995d2a5159c91a3600080546001600160a01b0319166001600160a01b0392909216919091179055565b6000610d0e61235a565b6000610d1a60076123a5565b9050336001600160a01b03821614610d50576040516313d2c13360e21b81526001600160a01b0382166004820152602401610b87565b6080870151600160991b1615610e07576080870151604051635b54587d60e11b808252916001600160a01b03169063b6a8b0fa90610d9c9033908c908c908c908c908c906004016161eb565b6020604051808303816000875af1158015610dbb573d6000803e3d6000fd5b505050506040513d601f19601f82011682018060405250810190610ddf9190616229565b6001600160e01b03191614610e0757604051631e048e1d60e01b815260040160405180910390fd5b610e1c8686610e158a61258e565b91906125b2565b9150610e288783612674565b6080870151600160981b1615610edf57608087015160405163e1b4af6960e01b808252916001600160a01b03169063e1b4af6990610e749033908c908c908c908c908c906004016161eb565b6020604051808303816000875af1158015610e93573d6000803e3d6000fd5b505050506040513d601f19601f82011682018060405250810190610eb79190616229565b6001600160e01b03191614610edf57604051631e048e1d60e01b815260040160405180910390fd5b5095945050505050565b6000610ef482612693565b90506000610f01836127a1565b6000818152600a60205260409020909150610f1c90836127d1565b60405162ffffff8316815281907fe9c42593e71f84403b84352cd168d693e2c9fcd1fdbcc3feb21d92b43e6696f9906020015b60405180910390a2505050565b6000546001600160a01b03163314610f87576040516348f5c3ed60e01b815260040160405180910390fd5b600380546001600160a01b0319166001600160a01b0383169081179091556040519081527fb4bd8ef53df690b9943d3318996006dbb82a25f54719d8c8035b516a2a5b8acc9060200160405180910390a150565b336001600160a01b0386168114801590610ffc5750610ffa8682611d1e565b155b1561102d5760405163711bec9160e11b81526001600160a01b03808316600483015287166024820152604401610b87565b61103a868686868661281b565b505050505050565b6000848152600a6020526040812061105f906006018585856122fd565b546001600160801b031695945050505050565b60606000611081836020616246565b6001600160401b0381111561109857611098615842565b6040519080825280601f01601f1916602001820160405280156110c2576020820181803683370190505b50905060005b838110156110e95780850154602060018301028301526001810190506110c8565b509392505050565b606081518351146111225781518351604051635b05999160e01b815260048101929092526024820152604401610b87565b600083516001600160401b0381111561113d5761113d615842565b604051908082528060200260200182016040528015611166578160200160208202803683370190505b50905060005b84518110156110e95760208082028601015161119090602080840287010151610a47565b8282815181106111a2576111a261625d565b60209081029190910101526111b681616273565b905061116c565b60006111c761235a565b60006111d360076123a5565b9050336001600160a01b03821614611209576040516313d2c13360e21b81526001600160a01b0382166004820152602401610b87565b60808601516001609d1b16156112be57608086015160405163fe9a6f4560e01b808252916001600160a01b03169063fe9a6f45906112539033908b908b908b908b9060040161628c565b6020604051808303816000875af1158015611272573d6000803e3d6000fd5b505050506040513d601f19601f820116820180604052508101906112969190616229565b6001600160e01b031916146112be57604051631e048e1d60e01b815260040160405180910390fd5b60006112c9876127a1565b90506112f66040518060800160405280600081526020016000815260200160008152602001600081525090565b6113616040518060a00160405280336001600160a01b03168152602001896000015160020b8152602001896020015160020b815260200161133a8a60400151612882565b600f0b815260608b015160020b6020918201526000858152600a9091526040902090612898565b90945090506113708885612674565b80511561139a57805188516001600160a01b03166000908152600160205260409020805490910190555b6020810151156113ce57602080820151898201516001600160a01b0316600090815260019092526040909120805490910190555b6040810151156114145760408082015160808a01516001600160a01b039081166000908152600260209081528482208d5190931682529190915291909120805490910190555b60608101511561145957606081015160808901516001600160a01b039081166000908152600260209081526040808320828e0151909416835292905220805490910190555b60808801516001609c1b16156115105760808801516040516330b7cdef60e01b808252916001600160a01b0316906330b7cdef906114a59033908d908d908b908e908e906004016162ee565b6020604051808303816000875af11580156114c4573d6000803e3d6000fd5b505050506040513d601f19601f820116820180604052508101906114e89190616229565b6001600160e01b0319161461151057604051631e048e1d60e01b815260040160405180910390fd5b865160208801516040808a01519051339386937fc54f65a0367b92850ef8e90f7e302da8b0a137ab343132a9b8d0e63e684bf53c9361156793600293840b81529190920b6020820152604081019190915260600190565b60405180910390a3505050949350505050565b6040840151600090620f4240620fffff909116106115ab57604051637e2df70960e11b815260040160405180910390fd5b6060850151617fff60029190910b13156115d857604051635815aee160e11b815260040160405180910390fd5b600160020b856060015160020b121561160457604051630b7f3b4b60e11b815260040160405180910390fd5b845160208601516001600160a01b0390811691161115611637576040516305a25e7160e11b815260040160405180910390fd5b61165b856040015186608001516001600160a01b0316612d9c90919063ffffffff16565b611689576080850151604051630732d7b560e51b81526001600160a01b039091166004820152602401610b87565b60808501516001609f1b161561173e5760808501516040516301a206c160e51b808252916001600160a01b031690633440d820906116d39033908a908a908a908a9060040161634b565b6020604051808303816000875af11580156116f2573d6000803e3d6000fd5b505050506040513d601f19601f820116820180604052508101906117169190616229565b6001600160e01b0319161461173e57604051631e048e1d60e01b815260040160405180910390fd5b6000611749866127a1565b9050600061175687612693565b9050600061176388612e1d565b6000848152600a6020526040902090915061178090888484612ef0565b60808901519094506001609e1b161561183a57608088015160405163a910f80f60e01b808252916001600160a01b03169063a910f80f906117cf9033908d908d908b908e908e90600401616387565b6020604051808303816000875af11580156117ee573d6000803e3d6000fd5b505050506040513d601f19601f820116820180604052508101906118129190616229565b6001600160e01b0319161461183a57604051631e048e1d60e01b815260040160405180910390fd5b87602001516001600160a01b031688600001516001600160a01b0316847f3fd553db44f207b1f41348cfc4d251860814af9eadc470e8e7895e4d120511f48b604001518c606001518d608001516040516118ba9392919062ffffff93909316835260029190910b60208301526001600160a01b0316604082015260600190565b60405180910390a4505050949350505050565b60006118d761235a565b60006118e360076123a5565b9050336001600160a01b03821614611919576040516313d2c13360e21b81526001600160a01b0382166004820152602401610b87565b6001600160a01b0383166000818152600960205260409020549061193c90612fb3565b6001600160a01b0385166000908152600960205260409020819055611962908290616132565b925061197a84611971856123f2565b610b9d906163ce565b5050919050565b60606119d460073381546001600160801b039081167f760a9a962ae3d184e99c0483cf5684fb3170f47116ca4f445c50209da4f4f90681019290925582546001600160801b031916600190920116179055565b6040516355b148ff60e11b8152339063ab6291fe906119f990869086906004016163f4565b6000604051808303816000875af1158015611a18573d6000803e3d6000fd5b505050506040513d6000823e601f3d908101601f19168201604052611a409190810190616408565b6007549091506001600160801b0316600103611a9157600754600160801b90046001600160801b031615611a8757604051635212cba160e01b815260040160405180910390fd5b6000600755610a6b565b600780546001600160801b031981166001600160801b0391821660001901909116179055610a6b565b600080546001600160a01b03163314801590611ae157506003546001600160a01b03163314155b15611aff576040516348f5c3ed60e01b815260040160405180910390fd5b8115611b0b5781611b25565b6001600160a01b0383166000908152600160205260409020545b6001600160a01b038416600090815260016020526040812080549293508392909190611b52908490616132565b90915550611b6c90506001600160a01b03841685836124f4565b9392505050565b611b7e338383613032565b5050565b6000611b8d82612e1d565b90506000611b9a836127a1565b6000818152600a60205260409020909150611bb590836130c8565b60405162ffffff8316815281907fc939c5b4f4e3398eb275de825cd913cca3ade8d1f42daa0ffe1d88accd40715890602001610f4f565b6000333014611c0e576040516314fe96b960e21b815260040160405180910390fd5b60005b86811015611c6157611c59611c3b898984818110611c3157611c3161625d565b9050602002013590565b878784818110611c4d57611c4d61625d565b90506020020135613112565b600101611c11565b5063bc197c8160e01b9998505050505050505050565b611c7f61235a565b6000611c8b60076123a5565b9050336001600160a01b03821614611cc1576040516313d2c13360e21b81526001600160a01b0382166004820152602401610b87565b611cce84610b9d846123f2565b610be4836001600160a01b0386168460405180602001604052806000815250613133565b6000610a6b827f760a9a962ae3d184e99c0483cf5684fb3170f47116ca4f445c50209da4f4f906015490565b6001600160a01b03918216600090815260056020908152604080832093909416825291909152205460ff1690565b6000338215611d5b5782611d82565b6001600160a01b038082166000908152600260209081526040808320938816835292905220545b91506001600160a01b03851615611d995784611d9b565b805b6001600160a01b038083166000908152600260209081526040808320938916835292905290812080549297508492909190611dd7908490616132565b909155506110e990506001600160a01b03851686846124f4565b6000333014611e13576040516314fe96b960e21b815260040160405180910390fd5b611e1d8585613112565b5063f23a6e6160e01b9695505050505050565b336001600160a01b0386168114801590611e515750611e4f8682611d1e565b155b15611e825760405163711bec9160e11b81526001600160a01b03808316600483015287166024820152604401610b87565b61103a8686868686613190565b6000611e9961235a565b6000611ea560076123a5565b9050336001600160a01b03821614611edb576040516313d2c13360e21b81526001600160a01b0382166004820152602401610b87565b60808601516001609b1b1615611f905760808601516040516315d7892d60e21b808252916001600160a01b03169063575e24b490611f259033908b908b908b908b90600401616475565b6020604051808303816000875af1158015611f44573d6000803e3d6000fd5b505050506040513d601f19601f82011682018060405250810190611f689190616229565b6001600160e01b03191614611f9057604051631e048e1d60e01b815260040160405180910390fd5b604086015160009062800000161561204c5786608001516001600160a01b0316632ab7a3e233898989896040518663ffffffff1660e01b8152600401611fda959493929190616475565b6020604051808303816000875af1158015611ff9573d6000803e3d6000fd5b505050506040513d601f19601f8201168201806040525081019061201d91906164bf565b9050620f42408162ffffff161061204757604051637e2df70960e11b815260040160405180910390fd5b612058565b506040860151620fffff165b600080612063615648565b600061206e8b6127a1565b90506120de6040518060a001604052808762ffffff1681526020018d6060015160020b81526020018c60000151151581526020018c6020015181526020018c604001516001600160a01b0316815250600a600084815260200190815260200160002061321e90919063ffffffff16565b929950909550935091506120f28b88612674565b83156121345783600160008c60000151612110578d60200151612113565b8d515b6001600160a01b031681526020810191909152604001600020805490910190555b821561218d5760808b01516001600160a01b031660009081526002602052604081208b51859290612169578d6020015161216c565b8d515b6001600160a01b031681526020810191909152604001600020805490910190555b60808b01516001609a1b16156122545763b47b2fb160e01b6001600160e01b0319168b608001516001600160a01b031663b47b2fb1338e8e8c8f8f6040518763ffffffff1660e01b81526004016121e9969594939291906164dc565b6020604051808303816000875af1158015612208573d6000803e3d6000fd5b505050506040513d601f19601f8201168201806040525081019061222c9190616229565b6001600160e01b0319161461225457604051631e048e1d60e01b815260040160405180910390fd5b33817f40e9cecb9f5f1f1c5b9c97dec2917b7ee92e57ba5563708daca94dd84ad7112f6122818a60801c90565b8a60408088015160a089015160608a015192516122e7959493908e90600f96870b81529490950b60208501526001600160a01b039290921660408401526001600160801b0316606083015260020b608082015262ffffff9190911660a082015260c00190565b60405180910390a3505050505050949350505050565b6040805160609490941b6bffffffffffffffffffffffff191660208086019190915260e893841b60348601529190921b60378401528151601a818503018152603a9093018252825192810192909220600090815292909152902090565b306001600160a01b037f000000000000000000000000000000000000000000000000000000000000000016146123a3576040516306c4a1c760e11b815260040160405180910390fd5b565b8054600090610a6b906123c3906001906001600160801b0316616526565b6001600160801b03167f760a9a962ae3d184e99c0483cf5684fb3170f47116ca4f445c50209da4f4f906015490565b600060016001607f1b0382111561240857600080fd5b5090565b80600f0b60000361241b575050565b600061242760076123a5565b6001600160a01b038082166000908152600860209081526040808320938816835292905290812054919250612460600f85900b8361654d565b90508060000361249657600780546000196001600160801b03600160801b808404821692909201811690910291161790556124c5565b816000036124c5576007805460016001600160801b03600160801b808404821692909201811690910291161790555b6001600160a01b0392831660009081526008602090815260408083209790951682529590955291909320555050565b60006001600160a01b0384166125335760008060008085875af190508061252e57604051633d2cec6f60e21b815260040160405180910390fd5b610be4565b60405163a9059cbb60e01b6000528360045282602452602060006044600080895af13d15601f3d1160016000511416171691506000606052806040525080610be457604051633c9fd93960e21b815260040160405180910390fd5b6000600a600061259d846127a1565b81526020019081526020016000209050919050565b60038301546000906001600160801b031681036125e25760405163a74f97ab60e01b815260040160405180910390fd5b61260a6125ee846123f2565b6125f7846123f2565b6001600160801b031660809190911b1790565b9050821561263d576003840154612631908490600160801b906001600160801b0316613a33565b60018501805490910190555b8115611b6c576003840154612662908390600160801b906001600160801b0316613a33565b60028501805490910190559392505050565b815161268490610b9d8360801c90565b611b7e8260200151610b9d8390565b600354600090819081906001600160a01b03161561197a577f00000000000000000000000000000000000000000000000000000000000000005a10156126ec57604051630f724b8160e11b815260040160405180910390fd5b60035460405163d6ec458560e01b81526001600160a01b039091169063d6ec4585907f00000000000000000000000000000000000000000000000000000000000000009061273e908890600401616575565b6020604051808303818786fa93505050508015612778575060408051601f3d908101601f19168201909252612775918101906164bf565b60015b1561278f57925050610fff600c83901c8116915082165b61279882613ad5565b61197a81613ad5565b6000816040516020016127b49190616575565b604051602081830303815290604052805190602001209050919050565b81546001600160a01b03166000036127fc5760405163486aa30760e01b815260040160405180910390fd5b815462ffffff909116600160b81b0262ffffff60b81b19909116179055565b6001600160a01b03841661284557604051632bfa23e760e11b815260006004820152602401610b87565b6001600160a01b03851661286e57604051626a0d4560e21b815260006004820152602401610b87565b61287b8585858585613b4f565b5050505050565b80600f81900b811461289357600080fd5b919050565b60006128c56040518060800160405280600081526020016000815260200160008152602001600081525090565b83546001600160a01b03166000036128f05760405163486aa30760e01b815260040160405180910390fd5b61290283602001518460400151613ba2565b6040805160c081018252600080825260208201819052918101829052606081018290526080810182905260a0810182905281906060860151600f0b15612a855761295787876020015188606001516000613c3e565b6001600160801b0316602083015215158152604086015160608701516129809189916001613c3e565b6001600160801b031660608084019190915290151560408301528601516000600f9190910b1315612a445760006129ba8760800151613d18565b9050806001600160801b031682602001516001600160801b031611156129ff57602087015160405163b8e3c38560e01b815260029190910b6004820152602401610b87565b806001600160801b031682606001516001600160801b03161115612a4257604080880151905163b8e3c38560e01b815260029190910b6004820152602401610b87565b505b805115612a635760208601516080870151612a639160058a0191613d46565b806040015115612a855760408601516080870151612a859160058a0191613d46565b612a988787602001518860400151613de5565b60a08301819052608083018290526060880151885160208a015160408b0151612ad495939492612acc9260068f01926122fd565b929190613e9c565b809350819450505060008660600151600f0b1215612b5157805115612b2057612b20878760200151600290810b6000908152600490920160205260408220828155600181018390550155565b806040015115612b5157604080870151600290810b600090815260048a016020529182208281556001810183905501555b506060850151600f0b15612cee5760208501518654600291820b600160a01b90910490910b1215612bc457612bbd84612bb8612bb2612bad612b968a60200151613fc5565b612ba38b60400151613fc5565b8b606001516142e8565b612882565b60801b90565b614327565b9350612cee565b60408501518654600291820b600160a01b90910490910b1215612cb85785546040860151612c38918691612bb891612c0d91612bad916001600160a01b031690612ba390613fc5565b6125f7612bad612c208b60200151613fc5565b8c5460608d01516001600160a01b0390911690614351565b935060008560600151600f0b12612c6b5760608501516003870154612c6691906001600160801b0316616583565b612c91565b8460600151612c79906163ce565b6003870154612c9191906001600160801b0316616526565b6003870180546001600160801b0319166001600160801b0392909216919091179055612cee565b612ceb84612bb860006125f7612bad612cd48b60200151613fc5565b612ce18c60400151613fc5565b8c60600151614351565b93505b60008560600151600f0b128015612d1057508554600160d01b9004610fff1615155b15612d7357612d1f8685614380565b9250612d7084612bb8612d3586600001516123f2565b612d4287604001516123f2565b612d4c91906165a3565b612d5987602001516123f2565b612d6688606001516123f2565b6125f791906165a3565b93505b612d9184612d8c612d83856123f2565b6125f7856123f2565b61456c565b935050509250929050565b60006001600160a01b03831615612df457600160981b836001600160a01b0316101580612dcd575062800000821615155b80612ddc575062400000821615155b80612def57506220000082161515611b6c565b611b6c565b628000008216158015612e0a5750624000008216155b8015611b6c575050622000001615919050565b60808101516000906001600160a01b0316156128935781608001516001600160a01b0316635ae4ce58836040518263ffffffff1660e01b8152600401612e639190616575565b602060405180830381865afa925050508015612e9c575060408051601f3d908101601f19168201909252612e99918101906164bf565b60015b156128935760408301516000906240000016612eb9576000612ebe565b62fff0005b60408501519091506000906220000016612ed9576000612edd565b610fff5b61ffff1691909117919091169392505050565b83546000906001600160a01b031615612f1c57604051637983c05160e01b815260040160405180910390fd5b612f2584614599565b604080516080810182526001600160a01b0396909616808752600283900b602088015262ffffff958616918701829052938516606090960186905286546001600160b81b031916909317600160a01b948216949094029390931765ffffffffffff60b81b1916600160b81b90920262ffffff60d01b191691909117600160d01b909302929092179092555090565b60006001600160a01b038216612fca575047919050565b6040516370a0823160e01b81523060048201526001600160a01b038316906370a0823190602401602060405180830381865afa15801561300e573d6000803e3d6000fd5b505050506040513d601f19601f82011682018060405250810190610a6b91906165d0565b6001600160a01b03821661305b5760405162ced3e160e81b815260006004820152602401610b87565b6001600160a01b03838116600081815260056020908152604080832094871680845294825291829020805460ff191686151590811790915591519182527f17307eab39ab6107e8899845ad3d59bd9653f200f220920489ca2b5937696c31910160405180910390a3505050565b81546001600160a01b03166000036130f35760405163486aa30760e01b815260040160405180910390fd5b815462ffffff909116600160d01b0262ffffff60d01b19909116179055565b613126306001600160a01b0384168361489e565b611b7e82611971836123f2565b6001600160a01b03841661315d57604051632bfa23e760e11b815260006004820152602401610b87565b6040805160018082526020820186905281830190815260608201859052608082019092529061103a600087848487613b4f565b6001600160a01b0384166131ba57604051632bfa23e760e11b815260006004820152602401610b87565b6001600160a01b0385166131e357604051626a0d4560e21b815260006004820152602401610b87565b604080516001808252602082018690528183019081526060820185905260808201909252906132158787848487613b4f565b50505050505050565b600080600061322b615648565b84606001516000036132505760405163be8b850760e01b815260040160405180910390fd5b6040805160808101825287546001600160a01b038116808352600160a01b820460020b602084015262ffffff600160b81b8304811694840194909452600160d01b9091049092166060820152906000036132bd5760405163486aa30760e01b815260040160405180910390fd5b85604001511561336c5780600001516001600160a01b031686608001516001600160a01b03161061331b5780516080870151604051637c9c6e8f60e01b81526001600160a01b03928316600482015291166024820152604401610b87565b6401000276a36001600160a01b031686608001516001600160a01b031611613367576080860151604051639e4d7cc760e01b81526001600160a01b039091166004820152602401610b87565b61341b565b80600001516001600160a01b031686608001516001600160a01b0316116133c05780516080870151604051637c9c6e8f60e01b81526001600160a01b03928316600482015291166024820152604401610b87565b73fffd8963efd1fc6a506488495d951d5263988d266001600160a01b031686608001516001600160a01b03161061341b576080860151604051639e4d7cc760e01b81526001600160a01b039091166004820152602401610b87565b6040805160608101825260038901546001600160801b031681529087015160009190602082019061345657604084015160121c603f1661346d565b604084810151600c1c610fff1661346d91906165ff565b61ffff168152602001886040015161348f57606084015160121c603f166134a8565b6060840151604090600c1c610fff166134a891906165ff565b61ffff16815250905060008088606001511390506040518060c00160405280896060015181526020016000815260200184600001516001600160a01b03168152602001846020015160020b8152602001896040015161350b578a60020154613511565b8a600101545b815283516001600160801b03166020918201526040805160e0810182526000808252928101839052908101829052606081018290526080810182905260a0810182905260c08101919091529094505b84511580159061358a575088608001516001600160a01b031685604001516001600160a01b031614155b15613924576040808601516001600160a01b03168252606086015160208b0151918b01516135bd9260058e019291614906565b1515604083015260020b60208201819052620d89e71913156135e857620d89e719602082015261361c565b6135f5620d89e719616620565b60020b816020015160020b131561361c57613613620d89e719616620565b60020b60208201525b6136298160200151613fc5565b6001600160a01b03166060820152604080860151908a01516136ac919061366c578a608001516001600160a01b031683606001516001600160a01b03161161368a565b8a608001516001600160a01b031683606001516001600160a01b0316105b61369857826060015161369e565b8a608001515b60a088015188518d51614a48565b60c085015260a084015260808301526001600160a01b03166040860152811561370e576136e28160c00151826080015101614c3a565b855103855260a08101516136f590614c3a565b85602001516137049190616639565b6020860152613751565b61371b8160a00151614c3a565b855101855260c0810151608082015161373c9161373791616659565b614c3a565b856020015161374b919061654d565b60208601525b602083015161ffff161561378b576000836020015161ffff168260c00151613779919061666c565b60c08301805182900390529790970196505b604083015161ffff16156137c5576000836040015161ffff168260c001516137b3919061666c565b60c08301805182900390529690960195505b60a08501516001600160801b031615613804576137f88160c00151600160801b8760a001516001600160801b0316613a33565b60808601805190910190525b80606001516001600160a01b031685604001516001600160a01b0316036138f1578060400151156138c85760006138708b83602001518c6040015161384d578d60010154613853565b88608001515b8d60400151613866578960800151614c50565b8e60020154614c50565b9050896040015115613880576000035b600081600f0b126138a057808660a0015161389b9190616583565b6138b8565b6138a9816163ce565b8660a001516138b89190616526565b6001600160801b031660a0870152505b88604001516138db5780602001516138e4565b60018160200151035b60020b6060860152613560565b80600001516001600160a01b031685604001516001600160a01b03161461391f576138e48560400151614599565b613560565b604085015160608601518b546001600160b81b031916600160a01b62ffffff909216919091026001600160a01b031916176001600160a01b03909116178a5560a085015183516001600160801b039182169116146139a35760a085015160038b0180546001600160801b0319166001600160801b039092169190911790555b8860400151156139bc57608085015160018b01556139c7565b608085015160028b01555b8115158960400151151503613a00576139f96139ec86600001518b6060015103612882565b6125f78760200151612882565b9750613a26565b613a23613a108660200151612882565b6125f787600001518c6060015103612882565b97505b5050505092959194509250565b60008383028160001985870982811083820303915050808411613a5557600080fd5b80600003613a6857508290049050611b6c565b6000848688096000868103871696879004966002600389028118808a02820302808a02820302808a02820302808a02820302808a02820302808a02909103029181900381900460010186841190950394909402919094039290920491909117919091029150509392505050565b61ffff811615613b4c576000613aec6040836165ff565b90506103ff600683901c1661ffff821615801590613b0e5750600461ffff8316105b80613b2b575061ffff811615801590613b2b5750600461ffff8216105b15613b4957604051637e2df70960e11b815260040160405180910390fd5b50505b50565b613b5b85858585614c8c565b6001600160a01b0384161561287b5782513390600103613b945760208481015190840151613b8d838989858589614eaf565b505061103a565b61103a818787878787614fd3565b8060020b8260020b12613bd65760405163c4433ed560e01b8152600283810b600483015282900b6024820152604401610b87565b620d89e719600283900b1215613c055760405163d5e2f7ab60e01b8152600283900b6004820152602401610b87565b613c12620d89e719616620565b60020b8160020b1315611b7e5760405163035aeeff60e31b8152600282900b6004820152602401610b87565b600283900b6000908152600485016020526040812080548291906001600160801b0381169060801c600f87900b8413613c8057613c7b8783616583565b613c93565b613c89876163ce565b613c939083616526565b6001600160801b0380821615908416801591909114159650909450600003613ce1578854600160a01b9004600290810b9089900b13613ce1576001808a0154908401556002808a0154908401555b600086613cf757613cf288836165a3565b613d01565b613d018883616680565b90508060801b851784555050505094509492505050565b6000621b13d08201600290810b9083900b6001600160801b030281613d3f57613d3f6165e9565b0492915050565b8060020b8260020b81613d5b57613d5b6165e9565b0760020b15613d8b57604051636a6c79f360e11b8152600283810b600483015282900b6024820152604401610b87565b600080613db98360020b8560020b81613da657613da66165e9565b0560020b600881901d9161010090910790565b600191820b60009081526020979097526040909620805460ff9097169190911b90951890945550505050565b600282810b600081815260048601602052604080822085850b835290822087549294859492939192600160a01b909204900b90811215613e3e578160010154836001015403945081600201548360020154039350613e91565b8560020b8160020b12613e6a578260010154826001015403945082600201548260020154039350613e91565b81600101548360010154896001015403039450816002015483600201548960020154030393505b505050935093915050565b6040805160608101825285546001600160801b0316815260018601546020820152600286015491810191909152600090819081600f87900b8103613f0d5781516001600160801b0316600003613f0557604051632bbfae4960e21b815260040160405180910390fd5b508051613f42565b600087600f0b12613f2a578151613f25908890616583565b613f3f565b613f33876163ce565b8251613f3f9190616526565b90505b613f648260200151870383600001516001600160801b0316600160801b613a33565b9350613f888260400151860383600001516001600160801b0316600160801b613a33565b925086600f0b600014613faf5787546001600160801b0319166001600160801b0382161788555b5050600186019390935560029094015591929050565b60008060008360020b12613fdc578260020b613fe4565b8260020b6000035b9050620d89e881111561400a576040516333a3bdff60e21b815260040160405180910390fd5b60008160011660000361402157600160801b614033565b6ffffcb933bd6fad37aa2d162d1a5940015b70ffffffffffffffffffffffffffffffffff1690506002821615614067576ffff97272373d413259a46990580e213a0260801c5b6004821615614086576ffff2e50f5f656932ef12357cf3c7fdcc0260801c5b60088216156140a5576fffe5caca7e10e4e61c3624eaa0941cd00260801c5b60108216156140c4576fffcb9843d60f6159c9db58835c9266440260801c5b60208216156140e3576fff973b41fa98c081472e6896dfb254c00260801c5b6040821615614102576fff2ea16466c96a3843ec78b326b528610260801c5b6080821615614121576ffe5dee046a99a2a811c461f1969c30530260801c5b610100821615614141576ffcbe86c7900a88aedcffc83b479aa3a40260801c5b610200821615614161576ff987a7253ac413176f2b074cf7815e540260801c5b610400821615614181576ff3392b0822b70005940c7a398e4b70f30260801c5b6108008216156141a1576fe7159475a2c29b7443b29c7fa6e889d90260801c5b6110008216156141c1576fd097f3bdfd2022b8845ad8f792aa58250260801c5b6120008216156141e1576fa9f746462d870fdf8a65dc1f90e061e50260801c5b614000821615614201576f70d869a156d2a1b890bb3df62baf32f70260801c5b618000821615614221576f31be135f97d08fd981231505542fcfa60260801c5b62010000821615614242576f09aa508b5b7a84e1c677de54f3e99bc90260801c5b62020000821615614262576e5d6af8dedb81196699c329225ee6040260801c5b62040000821615614281576d2216e584f5fa1ea926041bedfe980260801c5b6208000082161561429e576b048a170391f7dc42444e8fa20260801c5b60008460020b13156142bf5780600019816142bb576142bb6165e9565b0490505b6401000000008106156142d35760016142d6565b60005b60ff16602082901c0192505050919050565b60008082600f0b126143095761430461373785858560016150bc565b610b39565b61431c61373785858560000360006150bc565b600003949350505050565b6000611b6c6143368360801c90565b6143408560801c90565b61434a91906165a3565b8385612d66565b60008082600f0b1261436d576143046137378585856001615173565b61431c6137378585856000036000615173565b6143ab6040518060800160405280600081526020016000815260200160008152602001600081525090565b60006143b78360801c90565b6040805160808101825286546001600160a01b0381168252600160a01b810460020b602083015262ffffff600160b81b82048116838501819052600160d01b9092049081166060840181905294955087949293600091610fff1661441b91906165ff565b9050603f600684901c1660006144366040610fff86166165ff565b9050603f600685901c166000600f8a900b128015614458575060008461ffff16115b156144845761ffff841661446b8a6163ce565b61447591906166ad565b6001600160801b031660408b01525b600088600f0b12801561449b575060008361ffff16115b156144c75761ffff83166144ae896163ce565b6144b891906166ad565b6001600160801b031660608b01525b60008261ffff161180156144df575060008a60400151115b15614510578161ffff168a604001516144f8919061666c565b808b5260408b01805161450c908390616132565b9052505b60008161ffff16118015614528575060008a60600151115b1561455d578061ffff168a60600151614541919061666c565b60208b0181905260608b018051614559908390616132565b9052505b50505050505050505092915050565b6000611b6c61457b8360801c90565b6145858560801c90565b61458f9190616680565b6125f78486616680565b60006401000276a36001600160a01b03831610806145d4575073fffd8963efd1fc6a506488495d951d5263988d266001600160a01b03831610155b156145f25760405163015680db60e11b815260040160405180910390fd5b640100000000600160c01b03602083901b166001600160801b03811160071b81811c6001600160401b03811160061b90811c63ffffffff811160051b90811c61ffff811160041b90811c60ff8111600390811b91821c600f811160021b90811c918211600190811b92831c9790881196179094179092171790911717176080811061468557607f810383901c915061468f565b80607f0383901b91505b908002607f81811c60ff83811c9190911c800280831c81831c1c800280841c81841c1c800280851c81851c1c800280861c81861c1c800280871c81871c1c800280881c81881c1c800280891c81891c1c8002808a1c818a1c1c8002808b1c818b1c1c8002808c1c818c1c1c8002808d1c818d1c1c8002808e1c9c81901c9c909c1c80029c8d901c9e9d607f198f0160401b60c09190911c678000000000000000161760c19b909b1c674000000000000000169a909a1760c29990991c672000000000000000169890981760c39790971c671000000000000000169690961760c49590951c670800000000000000169490941760c59390931c670400000000000000169290921760c69190911c670200000000000000161760c79190911c670100000000000000161760c89190911c6680000000000000161760c99190911c6640000000000000161760ca9190911c6620000000000000161760cb9190911c6610000000000000161760cc9190911c6608000000000000161760cd9190911c66040000000000001617693627a301d71055774c8581026f028f6481ab7f045a5af012a19d003aa9198101608090811d906fdb2df09e81959a81455e260799a0632f8301901d600281810b9083900b1461488f57886001600160a01b031661487482613fc5565b6001600160a01b031611156148895781614891565b80614891565b815b9998505050505050505050565b6001600160a01b0383166148c757604051626a0d4560e21b815260006004820152602401610b87565b604080516001808252602082018590528183019081526060820184905260a0820190925260006080820181815291929161287b91879185908590613b4f565b60008060008460020b8660020b81614920576149206165e9565b05905060008660020b12801561494d57508460020b8660020b81614946576149466165e9565b0760020b15155b1561495757600019015b83156149cb57600281900b600881901d600181810b600090815260208b9052604090205461010090930760ff81169190911b800160001901928316801515955091929091856149ad57888360ff168603026149c0565b886149b7826151fa565b840360ff168603025b965050505050614a3e565b600181810160020b600881901d80830b600090815260208b9052604090205461010090920760ff81169390931b600019011991821680151595509092919085614a2157888360ff0360ff16866001010102614a37565b8883614a2c8361529a565b0360ff168660010101025b9650505050505b5094509492505050565b60008080806001600160a01b03808916908a161015818712801590614acd576000614a818989620f42400362ffffff16620f4240613a33565b905082614a9a57614a958c8c8c6001615173565b614aa7565b614aa78b8d8c60016150bc565b9550858110614ab8578a9650614ac7565b614ac48c8b8386615383565b96505b50614b17565b81614ae457614adf8b8b8b60006150bc565b614af1565b614af18a8c8b6000615173565b9350838860000310614b0557899550614b17565b614b148b8a8a600003856153cf565b95505b6001600160a01b038a8116908716148215614b7a57808015614b365750815b614b4c57614b47878d8c60016150bc565b614b4e565b855b9550808015614b5b575081155b614b7157614b6c878d8c6000615173565b614b73565b845b9450614bc4565b808015614b845750815b614b9a57614b958c888c6001615173565b614b9c565b855b9550808015614ba9575081155b614bbf57614bba8c888c60006150bc565b614bc1565b845b94505b81158015614bd457508860000385115b15614be0578860000394505b818015614bff57508a6001600160a01b0316876001600160a01b031614155b15614c0e578589039350614c2b565b614c28868962ffffff168a620f42400362ffffff1661541b565b93505b50505095509550955095915050565b60006001600160ff1b0382111561240857600080fd5b600292830b600090815260049094016020526040909320600181018054909203909155908101805490920390915554600160801b9004600f0b90565b8051825114614cbb5781518151604051635b05999160e01b815260048101929092526024820152604401610b87565b3360005b8351811015614dd0576020818102858101820151908501909101516001600160a01b03881615614d765760008281526004602090815260408083206001600160a01b038c16845290915290205481811015614d4d576040516303dee4c560e01b81526001600160a01b038a166004820152602481018290526044810183905260648101849052608401610b87565b60008381526004602090815260408083206001600160a01b038d16845290915290209082900390555b6001600160a01b03871615614dbd5760008281526004602090815260408083206001600160a01b038b16845290915281208054839290614db7908490616659565b90915550505b505080614dc990616273565b9050614cbf565b508251600103614e515760208301516000906020840151909150856001600160a01b0316876001600160a01b0316846001600160a01b03167fc3d58168c5ae7397731d063d5bbf3d657854427343f4c083240f7aacaa2d0f628585604051614e42929190918252602082015260400190565b60405180910390a4505061287b565b836001600160a01b0316856001600160a01b0316826001600160a01b03167f4a39dc06d4c0dbc64b70af90fd698a233a518aa5d07e595d983b8c0526c8f7fb8686604051614ea09291906166d3565b60405180910390a45050505050565b6001600160a01b0384163b1561103a5760405163f23a6e6160e01b81526001600160a01b0385169063f23a6e6190614ef390899089908890889088906004016166f8565b6020604051808303816000875af1925050508015614f2e575060408051601f3d908101601f19168201909252614f2b91810190616229565b60015b614f97573d808015614f5c576040519150601f19603f3d011682016040523d82523d6000602084013e614f61565b606091505b508051600003614f8f57604051632bfa23e760e11b81526001600160a01b0386166004820152602401610b87565b805181602001fd5b6001600160e01b0319811663f23a6e6160e01b1461321557604051632bfa23e760e11b81526001600160a01b0386166004820152602401610b87565b6001600160a01b0384163b1561103a5760405163bc197c8160e01b81526001600160a01b0385169063bc197c81906150179089908990889088908890600401616732565b6020604051808303816000875af1925050508015615052575060408051601f3d908101601f1916820190925261504f91810190616229565b60015b615080573d808015614f5c576040519150601f19603f3d011682016040523d82523d6000602084013e614f61565b6001600160e01b0319811663bc197c8160e01b1461321557604051632bfa23e760e11b81526001600160a01b0386166004820152602401610b87565b6000836001600160a01b0316856001600160a01b031611156150dc579293925b600160601b600160e01b03606084901b166001600160a01b03868603811690871661510657600080fd5b8361513c57866001600160a01b03166151298383896001600160a01b0316613a33565b81615136576151366165e9565b04615168565b6151686151538383896001600160a01b031661541b565b886001600160a01b0316808204910615150190565b979650505050505050565b6000836001600160a01b0316856001600160a01b03161115615193579293925b816151c7576151c26001600160801b0384166151af8787616784565b6001600160a01b0316600160601b613a33565b6151f1565b6151f16001600160801b0384166151de8787616784565b6001600160a01b0316600160601b61541b565b95945050505050565b600080821161520857600080fd5b600160801b821061521b57608091821c91015b68010000000000000000821061523357604091821c91015b640100000000821061524757602091821c91015b62010000821061525957601091821c91015b610100821061526a57600891821c91015b6010821061527a57600491821c91015b6004821061528a57600291821c91015b6002821061289357600101919050565b60008082116152a857600080fd5b5060ff6001600160801b038216156152c357607f19016152cb565b608082901c91505b6001600160401b038216156152e357603f19016152eb565b604082901c91505b63ffffffff82161561530057601f1901615308565b602082901c91505b61ffff82161561531b57600f1901615323565b601082901c91505b60ff821615615335576007190161533d565b600882901c91505b600f82161561534f5760031901615357565b600482901c91505b60038216156153695760011901615371565b600282901c91505b60018216156128935760001901919050565b600080856001600160a01b03161161539a57600080fd5b6000846001600160801b0316116153b057600080fd5b816153c2576151c2858585600161545b565b6151f18585856001615542565b600080856001600160a01b0316116153e657600080fd5b6000846001600160801b0316116153fc57600080fd5b8161540e576151c28585856000615542565b6151f1858585600061545b565b6000615428848484613a33565b90506000828061543a5761543a6165e9565b8486091115611b6c57600019811061545157600080fd5b6001019392505050565b600081156154cd5760006001600160a01b038411156154915761548c84600160601b876001600160801b0316613a33565b6154a8565b6154a86001600160801b038616606086901b61666c565b90506154c56154c0826001600160a01b038916616659565b615632565b915050610b39565b60006001600160a01b038411156154fb576154f684600160601b876001600160801b031661541b565b615518565b615518606085901b6001600160801b038716808204910615150190565b905080866001600160a01b03161161552f57600080fd5b6154c5816001600160a01b038816616132565b600082600003615553575083610b39565b600160601b600160e01b03606085901b1682156155e5576001600160a01b03861684810290858281615587576155876165e9565b04036155b7578181018281106155b5576155ab83896001600160a01b03168361541b565b9350505050610b39565b505b506154c581856155d06001600160a01b038a168361666c565b6155da9190616659565b808204910615150190565b6001600160a01b03861684810290858281615602576156026165e9565b0414801561560f57508082115b61561857600080fd5b8082036155ab6154c0846001600160a01b038b168461541b565b806001600160a01b038116811461289357600080fd5b6040518060c00160405280600081526020016000815260200160006001600160a01b03168152602001600060020b81526020016000815260200160006001600160801b031681525090565b6001600160a01b0381168114613b4c57600080fd5b600080604083850312156156bb57600080fd5b82356156c681615693565b946020939093013593505050565b6001600160e01b031981168114613b4c57600080fd5b6000602082840312156156fc57600080fd5b8135611b6c816156d4565b8035600281900b811461289357600080fd5b6000806000806080858703121561572f57600080fd5b84359350602085013561574181615693565b925061574f60408601615707565b915061575d60608601615707565b905092959194509250565b60008060006060848603121561577d57600080fd5b833561578881615693565b9250602084013561579881615693565b929592945050506040919091013590565b6000602082840312156157bb57600080fd5b5035919050565b60005b838110156157dd5781810151838201526020016157c5565b50506000910152565b600081518084526157fe8160208601602086016157c2565b601f01601f19169290920160200192915050565b602081526000611b6c60208301846157e6565b60006020828403121561583757600080fd5b8135611b6c81615693565b634e487b7160e01b600052604160045260246000fd5b604051606081016001600160401b038111828210171561587a5761587a615842565b60405290565b604051601f8201601f191681016001600160401b03811182821017156158a8576158a8615842565b604052919050565b62ffffff81168114613b4c57600080fd5b600060a082840312156158d357600080fd5b60405160a081018181106001600160401b03821117156158f5576158f5615842565b604052905080823561590681615693565b8152602083013561591681615693565b60208201526040830135615929816158b0565b604082015261593a60608401615707565b6060820152608083013561594d81615693565b6080919091015292915050565b60008083601f84011261596c57600080fd5b5081356001600160401b0381111561598357600080fd5b60208301915083602082850101111561599b57600080fd5b9250929050565b600080600080600061010086880312156159bb57600080fd5b6159c587876158c1565b945060a0860135935060c0860135925060e08601356001600160401b038111156159ee57600080fd5b6159fa8882890161595a565b969995985093965092949392505050565b600060a08284031215615a1d57600080fd5b611b6c83836158c1565b60006001600160401b03821115615a4057615a40615842565b5060051b60200190565b600082601f830112615a5b57600080fd5b81356020615a70615a6b83615a27565b615880565b82815260059290921b84018101918181019086841115615a8f57600080fd5b8286015b84811015615aaa5780358352918301918301615a93565b509695505050505050565b60006001600160401b03821115615ace57615ace615842565b50601f01601f191660200190565b600082601f830112615aed57600080fd5b8135615afb615a6b82615ab5565b818152846020838601011115615b1057600080fd5b816020850160208301376000918101602001919091529392505050565b600080600080600060a08688031215615b4557600080fd5b8535615b5081615693565b94506020860135615b6081615693565b935060408601356001600160401b0380821115615b7c57600080fd5b615b8889838a01615a4a565b94506060880135915080821115615b9e57600080fd5b615baa89838a01615a4a565b93506080880135915080821115615bc057600080fd5b50615bcd88828901615adc565b9150509295509295909350565b60008060408385031215615bed57600080fd5b50508035926020909101359150565b60008060408385031215615c0f57600080fd5b82356001600160401b0380821115615c2657600080fd5b818501915085601f830112615c3a57600080fd5b81356020615c4a615a6b83615a27565b82815260059290921b84018101918181019089841115615c6957600080fd5b948201945b83861015615c90578535615c8181615693565b82529482019490820190615c6e565b96505086013592505080821115615ca657600080fd5b50615cb385828601615a4a565b9150509250929050565b600081518084526020808501945080840160005b83811015615ced57815187529582019590820190600101615cd1565b509495945050505050565b602081526000611b6c6020830184615cbd565b600080600080848603610120811215615d2357600080fd5b615d2d87876158c1565b94506060609f1982011215615d4157600080fd5b50615d4a615858565b615d5660a08701615707565b8152615d6460c08701615707565b602082015260e0860135604082015292506101008501356001600160401b03811115615d8f57600080fd5b615d9b8782880161595a565b95989497509550505050565b60008060008060e08587031215615dbd57600080fd5b615dc786866158c1565b935060a0850135615dd781615693565b925060c08501356001600160401b03811115615d8f57600080fd5b60008060208385031215615e0557600080fd5b82356001600160401b03811115615e1b57600080fd5b615e278582860161595a565b90969095509350505050565b8035801515811461289357600080fd5b60008060408385031215615e5657600080fd5b8235615e6181615693565b9150615e6f60208401615e33565b90509250929050565b60008060408385031215615e8b57600080fd5b8235615e9681615693565b91506020830135615ea681615693565b809150509250929050565b60008083601f840112615ec357600080fd5b5081356001600160401b03811115615eda57600080fd5b6020830191508360208260051b850101111561599b57600080fd5b60008060008060008060008060a0898b031215615f1157600080fd5b8835615f1c81615693565b97506020890135615f2c81615693565b965060408901356001600160401b0380821115615f4857600080fd5b615f548c838d01615eb1565b909850965060608b0135915080821115615f6d57600080fd5b615f798c838d01615eb1565b909650945060808b0135915080821115615f9257600080fd5b50615f9f8b828c0161595a565b999c989b5096995094979396929594505050565b60008060008060008060a08789031215615fcc57600080fd5b8635615fd781615693565b95506020870135615fe781615693565b9450604087013593506060870135925060808701356001600160401b0381111561601057600080fd5b61601c89828a0161595a565b979a9699509497509295939492505050565b600080600080600060a0868803121561604657600080fd5b853561605181615693565b9450602086013561606181615693565b9350604086013592506060860135915060808601356001600160401b0381111561608a57600080fd5b615bcd88828901615adc565b6000806000808486036101208112156160ae57600080fd5b6160b887876158c1565b94506060609f19820112156160cc57600080fd5b506160d5615858565b6160e160a08701615e33565b815260c0860135602082015260e08601356160fb81615693565b604082015292506101008501356001600160401b03811115615d8f57600080fd5b634e487b7160e01b600052601160045260246000fd5b81810381811115610a6b57610a6b61611c565b600181811c9082168061615957607f821691505b60208210810361617957634e487b7160e01b600052602260045260246000fd5b50919050565b80516001600160a01b03908116835260208083015182169084015260408083015162ffffff169084015260608083015160020b9084015260809182015116910152565b81835281816020850137506000828201602090810191909152601f909101601f19169091010190565b6001600160a01b03871681526000610120616209602084018961617f565b8660c08401528560e08401528061010084015261489181840185876161c2565b60006020828403121561623b57600080fd5b8151611b6c816156d4565b8082028115828204841417610a6b57610a6b61611c565b634e487b7160e01b600052603260045260246000fd5b6000600182016162855761628561611c565b5060010190565b6001600160a01b038616815260006101406162aa602084018861617f565b8551600290810b60c08501526020870151900b60e084015260408601516101008401525b806101208401526162e281840185876161c2565b98975050505050505050565b6001600160a01b0387168152600061016061630c602084018961617f565b8651600290810b60c08501526020880151900b60e084015260408701516101008401525b856101208401528061014084015261489181840185876161c2565b6001600160a01b0386811682526000906101009061636c602085018961617f565b861660c084015260e083018190526162e281840185876161c2565b6001600160a01b038781168252600090610120906163a8602085018a61617f565b80881660c0850152508560020b60e08401528061010084015261489181840185876161c2565b600081600f0b60016001607f1b031981036163eb576163eb61611c565b60000392915050565b602081526000610b396020830184866161c2565b60006020828403121561641a57600080fd5b81516001600160401b0381111561643057600080fd5b8201601f8101841361644157600080fd5b805161644f615a6b82615ab5565b81815285602083850101111561646457600080fd5b6151f18260208301602086016157c2565b6001600160a01b03861681526000610140616493602084018861617f565b8551151560c0840152602086015160e084015260408601516001600160a01b03166101008401526162ce565b6000602082840312156164d157600080fd5b8151611b6c816158b0565b6001600160a01b038716815260006101606164fa602084018961617f565b8651151560c0840152602087015160e084015260408701516001600160a01b0316610100840152616330565b6001600160801b038281168282160390808211156165465761654661611c565b5092915050565b808201828112600083128015821682158216171561656d5761656d61611c565b505092915050565b60a08101610a6b828461617f565b6001600160801b038181168382160190808211156165465761654661611c565b600f81810b9083900b0160016001607f1b03811360016001607f1b031982121715610a6b57610a6b61611c565b6000602082840312156165e257600080fd5b5051919050565b634e487b7160e01b600052601260045260246000fd5b600061ffff80841680616614576166146165e9565b92169190910692915050565b60008160020b627fffff1981036163eb576163eb61611c565b81810360008312801583831316838312821617156165465761654661611c565b80820180821115610a6b57610a6b61611c565b60008261667b5761667b6165e9565b500490565b600f82810b9082900b0360016001607f1b0319811260016001607f1b0382131715610a6b57610a6b61611c565b60006001600160801b03808416806166c7576166c76165e9565b92169190910492915050565b6040815260006166e66040830185615cbd565b82810360208401526151f18185615cbd565b6001600160a01b03868116825285166020820152604081018490526060810183905260a060808201819052600090615168908301846157e6565b6001600160a01b0386811682528516602082015260a06040820181905260009061675e90830186615cbd565b82810360608401526167708186615cbd565b905082810360808401526162e281856157e6565b6001600160a01b038281168282160390808211156165465761654661611c56fea264697066735822122079f4535beb00cd14840e5a4bb30643cc249fe61221fe43fba29c459dedcb9d6664736f6c63430008140033",
    "linkReferences": {}
  },
  "methodIdentifiers": {
    "MAX_TICK_SPACING()": "60460f06",
    "MIN_PROTOCOL_FEE_DENOMINATOR()": "84e41c5e",
    "MIN_TICK_SPACING()": "07eff0dd",
    "balanceOf(address,uint256)": "00fdd58e",
    "balanceOfBatch(address[],uint256[])": "4e1273f4",
    "collectHookFees(address,address,uint256)": "effd18c0",
    "collectProtocolFees(address,address,uint256)": "8161b874",
    "currencyDelta(address,address)": "a54b2831",
    "donate((address,address,uint24,int24,address),uint256,uint256,bytes)": "234266d7",
    "extsload(bytes32)": "1e2eaeaf",
    "extsload(bytes32,uint256)": "35fd631a",
    "getLiquidity(bytes32)": "fa6793d5",
    "getLiquidity(bytes32,address,int24,int24)": "33aa955b",
    "getLock(uint256)": "d68f4dd1",
    "getPosition(bytes32,address,int24,int24)": "048d9c70",
    "getSlot0(bytes32)": "c815641c",
    "hookFeesAccrued(address,address)": "b4c41939",
    "initialize((address,address,uint24,int24,address),uint160,bytes)": "695c5bf5",
    "isApprovedForAll(address,address)": "e985e9c5",
    "lock(bytes)": "81548319",
    "lockData()": "f8fcd156",
    "mint(address,address,uint256)": "c6c3bbe6",
    "modifyPosition((address,address,uint24,int24,address),(int24,int24,int256),bytes)": "61ae449a",
    "onERC1155BatchReceived(address,address,uint256[],uint256[],bytes)": "bc197c81",
    "onERC1155Received(address,address,uint256,uint256,bytes)": "f23a6e61",
    "owner()": "8da5cb5b",
    "pools(bytes32)": "b5217bb4",
    "protocolFeeController()": "f02de3b2",
    "protocolFeesAccrued(address)": "97e8cd4e",
    "reservesOf(address)": "93c85a21",
    "safeBatchTransferFrom(address,address,uint256[],uint256[],bytes)": "2eb2c2d6",
    "safeTransferFrom(address,address,uint256,uint256,bytes)": "f242432a",
    "setApprovalForAll(address,bool)": "a22cb465",
    "setHookFees((address,address,uint24,int24,address))": "af440f82",
    "setOwner(address)": "13af4035",
    "setProtocolFeeController(address)": "2d771389",
    "setProtocolFees((address,address,uint24,int24,address))": "282076cc",
    "settle(address)": "6a256b29",
    "supportsInterface(bytes4)": "01ffc9a7",
    "swap((address,address,uint24,int24,address),(bool,int256,uint160),bytes)": "f3cd914c",
    "take(address,address,uint256)": "0b0d9c09",
    "uri(uint256)": "0e89341c"
  },
  "id": 40
}