{
  "abi": [
    {
      "inputs": [
        {
          "internalType": "address",
          "name": "_erc20",
          "type": "address"
        },
        {
          "internalType": "string",
          "name": "_name",
          "type": "string"
        },
        {
          "internalType": "string",
          "name": "_symbol",
          "type": "string"
        }
      ],
      "name": "createContractVault",
      "outputs": [],
      "stateMutability": "nonpayable",
      "type": "function"
    },
    {
      "inputs": [
        {
          "internalType": "uint256",
          "name": "",
          "type": "uint256"
        }
      ],
      "name": "deployedContracts",
      "outputs": [
        {
          "internalType": "address",
          "name": "",
          "type": "address"
        }
      ],
      "stateMutability": "view",
      "type": "function"
    },
    {
      "inputs": [],
      "name": "getDeployedContracts",
      "outputs": [
        {
          "internalType": "address[]",
          "name": "",
          "type": "address[]"
        }
      ],
      "stateMutability": "view",
      "type": "function"
    }
  ],
  "bytecode": {
    "object": "0x608060405234801561001057600080fd5b506121d9806100206000396000f3fe60806040523480156200001157600080fd5b5060043610620000465760003560e01c80639ad1ee10146200004b578063aa9a068f146200007f578063e07fe2091462000098575b600080fd5b620000626200005c366004620001e0565b620000b1565b6040516001600160a01b0390911681526020015b60405180910390f35b62000089620000dc565b604051620000769190620001fa565b620000af620000a9366004620002f4565b62000140565b005b60008181548110620000c257600080fd5b6000918252602090912001546001600160a01b0316905081565b606060008054806020026020016040519081016040528092919081815260200182805480156200013657602002820191906000526020600020905b81546001600160a01b0316815260019091019060200180831162000117575b5050505050905090565b60008383836040516200015390620001d2565b6200016193929190620003c6565b604051809103906000f0801580156200017e573d6000803e3d6000fd5b50600080546001810182559080527f290decd9548b62a8d60345a988386fc84ba6bc95484008f6362f93160ef3e5630180546001600160a01b0319166001600160a01b039290921691909117905550505050565b611d99806200040b83390190565b600060208284031215620001f357600080fd5b5035919050565b6020808252825182820181905260009190848201906040850190845b818110156200023d5783516001600160a01b03168352928401929184019160010162000216565b50909695505050505050565b634e487b7160e01b600052604160045260246000fd5b600082601f8301126200027157600080fd5b813567ffffffffffffffff808211156200028f576200028f62000249565b604051601f8301601f19908116603f01168101908282118183101715620002ba57620002ba62000249565b81604052838152866020858801011115620002d457600080fd5b836020870160208301376000602085830101528094505050505092915050565b6000806000606084860312156200030a57600080fd5b83356001600160a01b03811681146200032257600080fd5b9250602084013567ffffffffffffffff808211156200034057600080fd5b6200034e878388016200025f565b935060408601359150808211156200036557600080fd5b5062000374868287016200025f565b9150509250925092565b6000815180845260005b81811015620003a65760208185018101518683018201520162000388565b506000602082860101526020601f19601f83011685010191505092915050565b6001600160a01b0384168152606060208201819052600090620003ec908301856200037e565b82810360408401526200040081856200037e565b969550505050505056fe61010060405260096006553480156200001757600080fd5b5060405162001d9938038062001d998339810160408190526200003a9162000270565b8282828181846001600160a01b031663313ce5676040518163ffffffff1660e01b8152600401602060405180830381865afa1580156200007e573d6000803e3d6000fd5b505050506040513d601f19601f82011682018060405250810190620000a49190620002fa565b6000620000b28482620003b5565b506001620000c18382620003b5565b5060ff81166080524660a052620000d76200010f565b60c052505050506001600160a01b0391821660e05250600780546001600160a01b031916949091169390931790925550620004ff9050565b60007f8b73c3c69bb8fe3d512ecc4cf759cc79239f7b179b0ffacaa9a75d522b39400f600060405162000143919062000481565b6040805191829003822060208301939093528101919091527fc89efdaa54c0f20c7adf612882df0950f5a951637e0307cdcb4c672f298b8bc660608201524660808201523060a082015260c00160405160208183030381529060405280519060200120905090565b634e487b7160e01b600052604160045260246000fd5b600082601f830112620001d357600080fd5b81516001600160401b0380821115620001f057620001f0620001ab565b604051601f8301601f19908116603f011681019082821181831017156200021b576200021b620001ab565b816040528381526020925086838588010111156200023857600080fd5b600091505b838210156200025c57858201830151818301840152908201906200023d565b600093810190920192909252949350505050565b6000806000606084860312156200028657600080fd5b83516001600160a01b03811681146200029e57600080fd5b60208501519093506001600160401b0380821115620002bc57600080fd5b620002ca87838801620001c1565b93506040860151915080821115620002e157600080fd5b50620002f086828701620001c1565b9150509250925092565b6000602082840312156200030d57600080fd5b815160ff811681146200031f57600080fd5b9392505050565b600181811c908216806200033b57607f821691505b6020821081036200035c57634e487b7160e01b600052602260045260246000fd5b50919050565b601f821115620003b057600081815260208120601f850160051c810160208610156200038b5750805b601f850160051c820191505b81811015620003ac5782815560010162000397565b5050505b505050565b81516001600160401b03811115620003d157620003d1620001ab565b620003e981620003e2845462000326565b8462000362565b602080601f831160018114620004215760008415620004085750858301515b600019600386901b1c1916600185901b178555620003ac565b600085815260208120601f198616915b82811015620004525788860151825594840194600190910190840162000431565b5085821015620004715787850151600019600388901b60f8161c191681555b5050505050600190811b01905550565b6000808354620004918162000326565b60018281168015620004ac5760018114620004c257620004f3565b60ff1984168752821515830287019450620004f3565b8760005260208060002060005b85811015620004ea5781548a820152908401908201620004cf565b50505082870194505b50929695505050505050565b60805160a05160c05160e05161183d6200055c600039600081816103870152818161068d015281816109f501528181610bc001528181610da40152610ee60152600061096b0152600061093b01526000610320015261183d6000f3fe6080604052600436106101f25760003560e01c806370a082311161010d578063ba087652116100a0578063ced72f871161006f578063ced72f87146105b2578063d505accf146105c7578063d905777e146105e7578063dd62ed3e1461061d578063ef8b30f71461065557600080fd5b8063ba08765214610552578063c63d75b6146103c1578063c6e6f59214610572578063ce96cb771461059257600080fd5b806395d89b41116100dc57806395d89b41146104dd578063a9059cbb146104f2578063b3d7f6b914610512578063b460af941461053257600080fd5b806370a082311461044357806374451a9a146104705780637ecebe001461049057806394bf804d146104bd57600080fd5b8063313ce56711610185578063402d267d11610154578063402d267d146103c15780634cdad506146103e357806369fe0e2d146104035780636e553f651461042357600080fd5b8063313ce5671461030e57806335faa416146103545780633644e5151461036057806338d52e0f1461037557600080fd5b80630a28a477116101c15780630a28a477146102985780631765b313146102b857806318160ddd146102d857806323b872dd146102ee57600080fd5b806301e1d114146101fe57806306fdde031461022657806307a2d13a14610248578063095ea7b31461026857600080fd5b366101f957005b600080fd5b34801561020a57600080fd5b50610213610675565b6040519081526020015b60405180910390f35b34801561023257600080fd5b5061023b61070f565b60405161021d9190611455565b34801561025457600080fd5b506102136102633660046114a3565b61079d565b34801561027457600080fd5b506102886102833660046114d8565b6107ca565b604051901515815260200161021d565b3480156102a457600080fd5b506102136102b33660046114a3565b610837565b3480156102c457600080fd5b506102d66102d33660046114a3565b50565b005b3480156102e457600080fd5b5061021360025481565b3480156102fa57600080fd5b50610288610309366004611502565b610857565b34801561031a57600080fd5b506103427f000000000000000000000000000000000000000000000000000000000000000081565b60405160ff909116815260200161021d565b3480156102d657600080fd5b34801561036c57600080fd5b50610213610937565b34801561038157600080fd5b506103a97f000000000000000000000000000000000000000000000000000000000000000081565b6040516001600160a01b03909116815260200161021d565b3480156103cd57600080fd5b506102136103dc36600461153e565b5060001990565b3480156103ef57600080fd5b506102136103fe3660046114a3565b61098d565b34801561040f57600080fd5b506102d661041e3660046114a3565b600655565b34801561042f57600080fd5b5061021361043e366004611559565b610998565b34801561044f57600080fd5b5061021361045e36600461153e565b60036020526000908152604090205481565b34801561047c57600080fd5b506102d661048b3660046114d8565b610a73565b34801561049c57600080fd5b506102136104ab36600461153e565b60056020526000908152604090205481565b3480156104c957600080fd5b506102136104d8366004611559565b610ba6565b3480156104e957600080fd5b5061023b610c35565b3480156104fe57600080fd5b5061028861050d3660046114d8565b610c42565b34801561051e57600080fd5b5061021361052d3660046114a3565b610ca8565b34801561053e57600080fd5b5061021361054d366004611585565b610cc7565b34801561055e57600080fd5b5061021361056d366004611585565b610dcb565b34801561057e57600080fd5b5061021361058d3660046114a3565b610f0d565b34801561059e57600080fd5b506102136105ad36600461153e565b610f2d565b3480156105be57600080fd5b50600654610213565b3480156105d357600080fd5b506102d66105e23660046115c1565b610f4f565b3480156105f357600080fd5b5061021361060236600461153e565b6001600160a01b031660009081526003602052604090205490565b34801561062957600080fd5b50610213610638366004611634565b600460209081526000928352604080842090915290825290205481565b34801561066157600080fd5b506102136106703660046114a3565b611193565b6040516370a0823160e01b81523060048201526000907f00000000000000000000000000000000000000000000000000000000000000006001600160a01b0316906370a0823190602401602060405180830381865afa1580156106dc573d6000803e3d6000fd5b505050506040513d601f19601f82011682018060405250810190610700919061165e565b61070a904761168d565b905090565b6000805461071c906116a0565b80601f0160208091040260200160405190810160405280929190818152602001828054610748906116a0565b80156107955780601f1061076a57610100808354040283529160200191610795565b820191906000526020600020905b81548152906001019060200180831161077857829003601f168201915b505050505081565b60025460009080156107c1576107bc6107b4610675565b84908361119e565b6107c3565b825b9392505050565b3360008181526004602090815260408083206001600160a01b038716808552925280832085905551919290917f8c5be1e5ebec7d5bd14f71427d1e84f3dd0314c0f7b2291e5b200ac8c7c3b925906108259086815260200190565b60405180910390a35060015b92915050565b60025460009080156107c1576107bc8161084f610675565b8591906111bc565b6001600160a01b038316600090815260046020908152604080832033845290915281205460001981146108b35761088e83826116da565b6001600160a01b03861660009081526004602090815260408083203384529091529020555b6001600160a01b038516600090815260036020526040812080548592906108db9084906116da565b90915550506001600160a01b03808516600081815260036020526040908190208054870190555190918716906000805160206117e8833981519152906109249087815260200190565b60405180910390a3506001949350505050565b60007f000000000000000000000000000000000000000000000000000000000000000046146109685761070a6111e2565b507f000000000000000000000000000000000000000000000000000000000000000090565b60006108318261079d565b60006109a383611193565b9050806000036109e85760405162461bcd60e51b815260206004820152600b60248201526a5a45524f5f53484152455360a81b60448201526064015b60405180910390fd5b610a1d6001600160a01b037f00000000000000000000000000000000000000000000000000000000000000001633308661127c565b610a278282611318565b60408051848152602081018390526001600160a01b0384169133917fdcbc1c05240f31ff3ad067ef1ee35ce4997762752e3a095284754544f4c709d791015b60405180910390a3610831565b600754600654604051630e64e51760e41b81526001600160a01b039283166004820152306024820152604481019190915260648101839052839182169063e64e517090608401600060405180830381600087803b158015610ad357600080fd5b505af1158015610ae7573d6000803e3d6000fd5b50506007546006546001600160a01b0390911692506323b872dd915085903090600f90610b1490886116ed565b610b1e9190611704565b610b28908761168d565b6040516001600160e01b031960e086901b1681526001600160a01b03938416600482015292909116602483015260448201526064016020604051808303816000875af1158015610b7c573d6000803e3d6000fd5b505050506040513d601f19601f82011682018060405250810190610ba09190611726565b50505050565b6000610bb183610ca8565b9050610be86001600160a01b037f00000000000000000000000000000000000000000000000000000000000000001633308461127c565b610bf28284611318565b60408051828152602081018590526001600160a01b0384169133917fdcbc1c05240f31ff3ad067ef1ee35ce4997762752e3a095284754544f4c709d79101610a66565b6001805461071c906116a0565b33600090815260036020526040812080548391908390610c639084906116da565b90915550506001600160a01b038316600081815260036020526040908190208054850190555133906000805160206117e8833981519152906108259086815260200190565b60025460009080156107c1576107bc610cbf610675565b8490836111bc565b6000610cd284610837565b9050336001600160a01b03831614610d42576001600160a01b03821660009081526004602090815260408083203384529091529020546000198114610d4057610d1b82826116da565b6001600160a01b03841660009081526004602090815260408083203384529091529020555b505b610d4c8282611372565b60408051858152602081018390526001600160a01b03808516929086169133917ffbde797d201c681b91056529119e0b02407c7bb96a4a2c75c01fc9667232c8db910160405180910390a46107c36001600160a01b037f00000000000000000000000000000000000000000000000000000000000000001684866113d4565b6000336001600160a01b03831614610e3b576001600160a01b03821660009081526004602090815260408083203384529091529020546000198114610e3957610e1485826116da565b6001600160a01b03841660009081526004602090815260408083203384529091529020555b505b610e448461098d565b905080600003610e845760405162461bcd60e51b815260206004820152600b60248201526a5a45524f5f41535345545360a81b60448201526064016109df565b610e8e8285611372565b60408051828152602081018690526001600160a01b03808516929086169133917ffbde797d201c681b91056529119e0b02407c7bb96a4a2c75c01fc9667232c8db910160405180910390a46107c36001600160a01b037f00000000000000000000000000000000000000000000000000000000000000001684836113d4565b60025460009080156107c1576107bc81610f25610675565b85919061119e565b6001600160a01b0381166000908152600360205260408120546108319061079d565b42841015610f9f5760405162461bcd60e51b815260206004820152601760248201527f5045524d49545f444541444c494e455f4558504952454400000000000000000060448201526064016109df565b60006001610fab610937565b6001600160a01b038a811660008181526005602090815260409182902080546001810190915582517f6e71edae12b1b97f4d1f60370fef10105fa2faae0126114a169c64845d6126c98184015280840194909452938d166060840152608083018c905260a083019390935260c08083018b90528151808403909101815260e08301909152805192019190912061190160f01b6101008301526101028201929092526101228101919091526101420160408051601f198184030181528282528051602091820120600084529083018083525260ff871690820152606081018590526080810184905260a0016020604051602081039080840390855afa1580156110b7573d6000803e3d6000fd5b5050604051601f1901519150506001600160a01b038116158015906110ed5750876001600160a01b0316816001600160a01b0316145b61112a5760405162461bcd60e51b815260206004820152600e60248201526d24a72b20a624a22fa9a4a3a722a960911b60448201526064016109df565b6001600160a01b0390811660009081526004602090815260408083208a8516808552908352928190208990555188815291928a16917f8c5be1e5ebec7d5bd14f71427d1e84f3dd0314c0f7b2291e5b200ac8c7c3b925910160405180910390a350505050505050565b600061083182610f0d565b60008260001904841183021582026111b557600080fd5b5091020490565b60008260001904841183021582026111d357600080fd5b50910281810615159190040190565b60007f8b73c3c69bb8fe3d512ecc4cf759cc79239f7b179b0ffacaa9a75d522b39400f60006040516112149190611748565b6040805191829003822060208301939093528101919091527fc89efdaa54c0f20c7adf612882df0950f5a951637e0307cdcb4c672f298b8bc660608201524660808201523060a082015260c00160405160208183030381529060405280519060200120905090565b60006040516323b872dd60e01b81526001600160a01b03851660048201526001600160a01b03841660248201528260448201526020600060648360008a5af13d15601f3d11600160005114161716915050806113115760405162461bcd60e51b81526020600482015260146024820152731514905394d1915497d19493d357d1905253115160621b60448201526064016109df565b5050505050565b806002600082825461132a919061168d565b90915550506001600160a01b0382166000818152600360209081526040808320805486019055518481526000805160206117e883398151915291015b60405180910390a35050565b6001600160a01b0382166000908152600360205260408120805483929061139a9084906116da565b90915550506002805482900390556040518181526000906001600160a01b038416906000805160206117e883398151915290602001611366565b600060405163a9059cbb60e01b81526001600160a01b0384166004820152826024820152602060006044836000895af13d15601f3d1160016000511416171691505080610ba05760405162461bcd60e51b815260206004820152600f60248201526e1514905394d1915497d19052531151608a1b60448201526064016109df565b600060208083528351808285015260005b8181101561148257858101830151858201604001528201611466565b506000604082860101526040601f19601f8301168501019250505092915050565b6000602082840312156114b557600080fd5b5035919050565b80356001600160a01b03811681146114d357600080fd5b919050565b600080604083850312156114eb57600080fd5b6114f4836114bc565b946020939093013593505050565b60008060006060848603121561151757600080fd5b611520846114bc565b925061152e602085016114bc565b9150604084013590509250925092565b60006020828403121561155057600080fd5b6107c3826114bc565b6000806040838503121561156c57600080fd5b8235915061157c602084016114bc565b90509250929050565b60008060006060848603121561159a57600080fd5b833592506115aa602085016114bc565b91506115b8604085016114bc565b90509250925092565b600080600080600080600060e0888a0312156115dc57600080fd5b6115e5886114bc565b96506115f3602089016114bc565b95506040880135945060608801359350608088013560ff8116811461161757600080fd5b9699959850939692959460a0840135945060c09093013592915050565b6000806040838503121561164757600080fd5b611650836114bc565b915061157c602084016114bc565b60006020828403121561167057600080fd5b5051919050565b634e487b7160e01b600052601160045260246000fd5b8082018082111561083157610831611677565b600181811c908216806116b457607f821691505b6020821081036116d457634e487b7160e01b600052602260045260246000fd5b50919050565b8181038181111561083157610831611677565b808202811582820484141761083157610831611677565b60008261172157634e487b7160e01b600052601260045260246000fd5b500490565b60006020828403121561173857600080fd5b815180151581146107c357600080fd5b600080835481600182811c91508083168061176457607f831692505b6020808410820361178357634e487b7160e01b86526022600452602486fd5b81801561179757600181146117ac576117d9565b60ff19861689528415158502890196506117d9565b60008a81526020902060005b868110156117d15781548b8201529085019083016117b8565b505084890196505b50949897505050505050505056feddf252ad1be2c89b69c2b068fc378daa952ba7f163c4a11628f55a4df523b3efa26469706673582212205d4da0326991acf7e858af8b951e461a18cb72275f945294c0a5474affe3b12c64736f6c63430008140033a2646970667358221220b45b00398da0b1314cf99c4ce1debc87f2d7d596635848b4f4a0b97ff2a00b8464736f6c63430008140033",
    "linkReferences": {}
  },
  "methodIdentifiers": {
    "createContractVault(address,string,string)": "e07fe209",
    "deployedContracts(uint256)": "9ad1ee10",
    "getDeployedContracts()": "aa9a068f"
  },
  "id": 20
}