{
  "abi": [
    {
      "inputs": [
        {
          "internalType": "address",
          "name": "_erc20",
          "type": "address"
        },
        {
          "internalType": "string",
          "name": "_name",
          "type": "string"
        },
        {
          "internalType": "string",
          "name": "_symbol",
          "type": "string"
        }
      ],
      "name": "createContractVault",
      "outputs": [],
      "stateMutability": "nonpayable",
      "type": "function"
    },
    {
      "inputs": [
        {
          "internalType": "uint256",
          "name": "",
          "type": "uint256"
        }
      ],
      "name": "deployedContracts",
      "outputs": [
        {
          "internalType": "address",
          "name": "",
          "type": "address"
        }
      ],
      "stateMutability": "view",
      "type": "function"
    },
    {
      "inputs": [],
      "name": "getDeployedContracts",
      "outputs": [
        {
          "internalType": "address[]",
          "name": "",
          "type": "address[]"
        }
      ],
      "stateMutability": "view",
      "type": "function"
    }
  ],
  "bytecode": {
    "object": "0x608060405234801561001057600080fd5b5061231d806100206000396000f3fe60806040523480156200001157600080fd5b5060043610620000465760003560e01c80639ad1ee10146200004b578063aa9a068f146200007f578063e07fe2091462000098575b600080fd5b620000626200005c366004620001e0565b620000b1565b6040516001600160a01b0390911681526020015b60405180910390f35b62000089620000dc565b604051620000769190620001fa565b620000af620000a9366004620002f4565b62000140565b005b60008181548110620000c257600080fd5b6000918252602090912001546001600160a01b0316905081565b606060008054806020026020016040519081016040528092919081815260200182805480156200013657602002820191906000526020600020905b81546001600160a01b0316815260019091019060200180831162000117575b5050505050905090565b60008383836040516200015390620001d2565b6200016193929190620003c6565b604051809103906000f0801580156200017e573d6000803e3d6000fd5b50600080546001810182559080527f290decd9548b62a8d60345a988386fc84ba6bc95484008f6362f93160ef3e5630180546001600160a01b0319166001600160a01b039290921691909117905550505050565b611edd806200040b83390190565b600060208284031215620001f357600080fd5b5035919050565b6020808252825182820181905260009190848201906040850190845b818110156200023d5783516001600160a01b03168352928401929184019160010162000216565b50909695505050505050565b634e487b7160e01b600052604160045260246000fd5b600082601f8301126200027157600080fd5b813567ffffffffffffffff808211156200028f576200028f62000249565b604051601f8301601f19908116603f01168101908282118183101715620002ba57620002ba62000249565b81604052838152866020858801011115620002d457600080fd5b836020870160208301376000602085830101528094505050505092915050565b6000806000606084860312156200030a57600080fd5b83356001600160a01b03811681146200032257600080fd5b9250602084013567ffffffffffffffff808211156200034057600080fd5b6200034e878388016200025f565b935060408601359150808211156200036557600080fd5b5062000374868287016200025f565b9150509250925092565b6000815180845260005b81811015620003a65760208185018101518683018201520162000388565b506000602082860101526020601f19601f83011685010191505092915050565b6001600160a01b0384168152606060208201819052600090620003ec908301856200037e565b82810360408401526200040081856200037e565b969550505050505056fe61010060405260096006553480156200001757600080fd5b5060405162001edd38038062001edd8339810160408190526200003a9162000270565b8282828181846001600160a01b031663313ce5676040518163ffffffff1660e01b8152600401602060405180830381865afa1580156200007e573d6000803e3d6000fd5b505050506040513d601f19601f82011682018060405250810190620000a49190620002fa565b6000620000b28482620003b5565b506001620000c18382620003b5565b5060ff81166080524660a052620000d76200010f565b60c052505050506001600160a01b0391821660e05250600880546001600160a01b031916949091169390931790925550620004ff9050565b60007f8b73c3c69bb8fe3d512ecc4cf759cc79239f7b179b0ffacaa9a75d522b39400f600060405162000143919062000481565b6040805191829003822060208301939093528101919091527fc89efdaa54c0f20c7adf612882df0950f5a951637e0307cdcb4c672f298b8bc660608201524660808201523060a082015260c00160405160208183030381529060405280519060200120905090565b634e487b7160e01b600052604160045260246000fd5b600082601f830112620001d357600080fd5b81516001600160401b0380821115620001f057620001f0620001ab565b604051601f8301601f19908116603f011681019082821181831017156200021b576200021b620001ab565b816040528381526020925086838588010111156200023857600080fd5b600091505b838210156200025c57858201830151818301840152908201906200023d565b600093810190920192909252949350505050565b6000806000606084860312156200028657600080fd5b83516001600160a01b03811681146200029e57600080fd5b60208501519093506001600160401b0380821115620002bc57600080fd5b620002ca87838801620001c1565b93506040860151915080821115620002e157600080fd5b50620002f086828701620001c1565b9150509250925092565b6000602082840312156200030d57600080fd5b815160ff811681146200031f57600080fd5b9392505050565b600181811c908216806200033b57607f821691505b6020821081036200035c57634e487b7160e01b600052602260045260246000fd5b50919050565b601f821115620003b057600081815260208120601f850160051c810160208610156200038b5750805b601f850160051c820191505b81811015620003ac5782815560010162000397565b5050505b505050565b81516001600160401b03811115620003d157620003d1620001ab565b620003e981620003e2845462000326565b8462000362565b602080601f831160018114620004215760008415620004085750858301515b600019600386901b1c1916600185901b178555620003ac565b600085815260208120601f198616915b82811015620004525788860151825594840194600190910190840162000431565b5085821015620004715787850151600019600388901b60f8161c191681555b5050505050600190811b01905550565b6000808354620004918162000326565b60018281168015620004ac5760018114620004c257620004f3565b60ff1984168752821515830287019450620004f3565b8760005260208060002060005b85811015620004ea5781548a820152908401908201620004cf565b50505082870194505b50929695505050505050565b60805160a05160c05160e0516119816200055c600039600081816103a80152818161075901528181610ac101528181610d0401528181610ee8015261102a01526000610a3701526000610a070152600061034101526119816000f3fe6080604052600436106102135760003560e01c806374451a9a11610118578063c63d75b6116100a0578063d505accf1161006f578063d505accf14610654578063d905777e14610674578063dd62ed3e146106aa578063ef8b30f7146106e2578063f3c61d6b1461070257600080fd5b8063c63d75b614610412578063c6e6f592146105ff578063ce96cb771461061f578063ced72f871461063f57600080fd5b806395d89b41116100e757806395d89b411461056a578063a9059cbb1461057f578063b3d7f6b91461059f578063b460af94146105bf578063ba087652146105df57600080fd5b806374451a9a146104c15780637c938fc4146104e15780637ecebe001461051d57806394bf804d1461054a57600080fd5b806335faa4161161019b578063402d267d1161016a578063402d267d146104125780634cdad5061461043457806369fe0e2d146104545780636e553f651461047457806370a082311461049457600080fd5b806335faa416146103755780633644e5151461038157806338d52e0f146103965780633e4486aa146103e257600080fd5b80630a28a477116101e25780630a28a477146102b95780631765b313146102d957806318160ddd146102f957806323b872dd1461030f578063313ce5671461032f57600080fd5b806301e1d1141461021f57806306fdde031461024757806307a2d13a14610269578063095ea7b31461028957600080fd5b3661021a57005b600080fd5b34801561022b57600080fd5b50610234610741565b6040519081526020015b60405180910390f35b34801561025357600080fd5b5061025c6107db565b60405161023e9190611599565b34801561027557600080fd5b506102346102843660046115e7565b610869565b34801561029557600080fd5b506102a96102a436600461161c565b610896565b604051901515815260200161023e565b3480156102c557600080fd5b506102346102d43660046115e7565b610903565b3480156102e557600080fd5b506102f76102f43660046115e7565b50565b005b34801561030557600080fd5b5061023460025481565b34801561031b57600080fd5b506102a961032a366004611646565b610923565b34801561033b57600080fd5b506103637f000000000000000000000000000000000000000000000000000000000000000081565b60405160ff909116815260200161023e565b3480156102f757600080fd5b34801561038d57600080fd5b50610234610a03565b3480156103a257600080fd5b506103ca7f000000000000000000000000000000000000000000000000000000000000000081565b6040516001600160a01b03909116815260200161023e565b3480156103ee57600080fd5b506102a96103fd366004611682565b60076020526000908152604090205460ff1681565b34801561041e57600080fd5b5061023461042d366004611682565b5060001990565b34801561044057600080fd5b5061023461044f3660046115e7565b610a59565b34801561046057600080fd5b506102f761046f3660046115e7565b600655565b34801561048057600080fd5b5061023461048f36600461169d565b610a64565b3480156104a057600080fd5b506102346104af366004611682565b60036020526000908152604090205481565b3480156104cd57600080fd5b506102f76104dc36600461161c565b610b3f565b3480156104ed57600080fd5b506102f76104fc366004611682565b6001600160a01b03166000908152600760205260409020805460ff19169055565b34801561052957600080fd5b50610234610538366004611682565b60056020526000908152604090205481565b34801561055657600080fd5b5061023461056536600461169d565b610cea565b34801561057657600080fd5b5061025c610d79565b34801561058b57600080fd5b506102a961059a36600461161c565b610d86565b3480156105ab57600080fd5b506102346105ba3660046115e7565b610dec565b3480156105cb57600080fd5b506102346105da3660046116c9565b610e0b565b3480156105eb57600080fd5b506102346105fa3660046116c9565b610f0f565b34801561060b57600080fd5b5061023461061a3660046115e7565b611051565b34801561062b57600080fd5b5061023461063a366004611682565b611071565b34801561064b57600080fd5b50600654610234565b34801561066057600080fd5b506102f761066f366004611705565b611093565b34801561068057600080fd5b5061023461068f366004611682565b6001600160a01b031660009081526003602052604090205490565b3480156106b657600080fd5b506102346106c5366004611778565b600460209081526000928352604080842090915290825290205481565b3480156106ee57600080fd5b506102346106fd3660046115e7565b6112d7565b34801561070e57600080fd5b506102f761071d366004611682565b6001600160a01b03166000908152600760205260409020805460ff19166001179055565b6040516370a0823160e01b81523060048201526000907f00000000000000000000000000000000000000000000000000000000000000006001600160a01b0316906370a0823190602401602060405180830381865afa1580156107a8573d6000803e3d6000fd5b505050506040513d601f19601f820116820180604052508101906107cc91906117a2565b6107d690476117d1565b905090565b600080546107e8906117e4565b80601f0160208091040260200160405190810160405280929190818152602001828054610814906117e4565b80156108615780601f1061083657610100808354040283529160200191610861565b820191906000526020600020905b81548152906001019060200180831161084457829003601f168201915b505050505081565b600254600090801561088d57610888610880610741565b8490836112e2565b61088f565b825b9392505050565b3360008181526004602090815260408083206001600160a01b038716808552925280832085905551919290917f8c5be1e5ebec7d5bd14f71427d1e84f3dd0314c0f7b2291e5b200ac8c7c3b925906108f19086815260200190565b60405180910390a35060015b92915050565b600254600090801561088d576108888161091b610741565b859190611300565b6001600160a01b0383166000908152600460209081526040808320338452909152812054600019811461097f5761095a838261181e565b6001600160a01b03861660009081526004602090815260408083203384529091529020555b6001600160a01b038516600090815260036020526040812080548592906109a790849061181e565b90915550506001600160a01b038085166000818152600360205260409081902080548701905551909187169060008051602061192c833981519152906109f09087815260200190565b60405180910390a3506001949350505050565b60007f00000000000000000000000000000000000000000000000000000000000000004614610a34576107d6611326565b507f000000000000000000000000000000000000000000000000000000000000000090565b60006108fd82610869565b6000610a6f836112d7565b905080600003610ab45760405162461bcd60e51b815260206004820152600b60248201526a5a45524f5f53484152455360a81b60448201526064015b60405180910390fd5b610ae96001600160a01b037f0000000000000000000000000000000000000000000000000000000000000000163330866113c0565b610af3828261145c565b60408051848152602081018390526001600160a01b0384169133917fdcbc1c05240f31ff3ad067ef1ee35ce4997762752e3a095284754544f4c709d791015b60405180910390a36108fd565b60085460405163095ea7b360e01b81526001600160a01b038085166004830152602482018490528492169063095ea7b3906044016020604051808303816000875af1158015610b92573d6000803e3d6000fd5b505050506040513d601f19601f82011682018060405250810190610bb69190611831565b50600854600654604051630e64e51760e41b81526001600160a01b0392831660048201523060248201526044810191909152606481018490529082169063e64e517090608401600060405180830381600087803b158015610c1657600080fd5b505af1158015610c2a573d6000803e3d6000fd5b50506008546006546001600160a01b0390911692506323b872dd91508590309061271090610c589088611853565b610c62919061186a565b610c6c90876117d1565b6040516001600160e01b031960e086901b1681526001600160a01b03938416600482015292909116602483015260448201526064016020604051808303816000875af1158015610cc0573d6000803e3d6000fd5b505050506040513d601f19601f82011682018060405250810190610ce49190611831565b50505050565b6000610cf583610dec565b9050610d2c6001600160a01b037f0000000000000000000000000000000000000000000000000000000000000000163330846113c0565b610d36828461145c565b60408051828152602081018590526001600160a01b0384169133917fdcbc1c05240f31ff3ad067ef1ee35ce4997762752e3a095284754544f4c709d79101610b32565b600180546107e8906117e4565b33600090815260036020526040812080548391908390610da790849061181e565b90915550506001600160a01b0383166000818152600360205260409081902080548501905551339060008051602061192c833981519152906108f19086815260200190565b600254600090801561088d57610888610e03610741565b849083611300565b6000610e1684610903565b9050336001600160a01b03831614610e86576001600160a01b03821660009081526004602090815260408083203384529091529020546000198114610e8457610e5f828261181e565b6001600160a01b03841660009081526004602090815260408083203384529091529020555b505b610e9082826114b6565b60408051858152602081018390526001600160a01b03808516929086169133917ffbde797d201c681b91056529119e0b02407c7bb96a4a2c75c01fc9667232c8db910160405180910390a461088f6001600160a01b037f0000000000000000000000000000000000000000000000000000000000000000168486611518565b6000336001600160a01b03831614610f7f576001600160a01b03821660009081526004602090815260408083203384529091529020546000198114610f7d57610f58858261181e565b6001600160a01b03841660009081526004602090815260408083203384529091529020555b505b610f8884610a59565b905080600003610fc85760405162461bcd60e51b815260206004820152600b60248201526a5a45524f5f41535345545360a81b6044820152606401610aab565b610fd282856114b6565b60408051828152602081018690526001600160a01b03808516929086169133917ffbde797d201c681b91056529119e0b02407c7bb96a4a2c75c01fc9667232c8db910160405180910390a461088f6001600160a01b037f0000000000000000000000000000000000000000000000000000000000000000168483611518565b600254600090801561088d5761088881611069610741565b8591906112e2565b6001600160a01b0381166000908152600360205260408120546108fd90610869565b428410156110e35760405162461bcd60e51b815260206004820152601760248201527f5045524d49545f444541444c494e455f455850495245440000000000000000006044820152606401610aab565b600060016110ef610a03565b6001600160a01b038a811660008181526005602090815260409182902080546001810190915582517f6e71edae12b1b97f4d1f60370fef10105fa2faae0126114a169c64845d6126c98184015280840194909452938d166060840152608083018c905260a083019390935260c08083018b90528151808403909101815260e08301909152805192019190912061190160f01b6101008301526101028201929092526101228101919091526101420160408051601f198184030181528282528051602091820120600084529083018083525260ff871690820152606081018590526080810184905260a0016020604051602081039080840390855afa1580156111fb573d6000803e3d6000fd5b5050604051601f1901519150506001600160a01b038116158015906112315750876001600160a01b0316816001600160a01b0316145b61126e5760405162461bcd60e51b815260206004820152600e60248201526d24a72b20a624a22fa9a4a3a722a960911b6044820152606401610aab565b6001600160a01b0390811660009081526004602090815260408083208a8516808552908352928190208990555188815291928a16917f8c5be1e5ebec7d5bd14f71427d1e84f3dd0314c0f7b2291e5b200ac8c7c3b925910160405180910390a350505050505050565b60006108fd82611051565b60008260001904841183021582026112f957600080fd5b5091020490565b600082600019048411830215820261131757600080fd5b50910281810615159190040190565b60007f8b73c3c69bb8fe3d512ecc4cf759cc79239f7b179b0ffacaa9a75d522b39400f6000604051611358919061188c565b6040805191829003822060208301939093528101919091527fc89efdaa54c0f20c7adf612882df0950f5a951637e0307cdcb4c672f298b8bc660608201524660808201523060a082015260c00160405160208183030381529060405280519060200120905090565b60006040516323b872dd60e01b81526001600160a01b03851660048201526001600160a01b03841660248201528260448201526020600060648360008a5af13d15601f3d11600160005114161716915050806114555760405162461bcd60e51b81526020600482015260146024820152731514905394d1915497d19493d357d1905253115160621b6044820152606401610aab565b5050505050565b806002600082825461146e91906117d1565b90915550506001600160a01b03821660008181526003602090815260408083208054860190555184815260008051602061192c83398151915291015b60405180910390a35050565b6001600160a01b038216600090815260036020526040812080548392906114de90849061181e565b90915550506002805482900390556040518181526000906001600160a01b0384169060008051602061192c833981519152906020016114aa565b600060405163a9059cbb60e01b81526001600160a01b0384166004820152826024820152602060006044836000895af13d15601f3d1160016000511416171691505080610ce45760405162461bcd60e51b815260206004820152600f60248201526e1514905394d1915497d19052531151608a1b6044820152606401610aab565b600060208083528351808285015260005b818110156115c6578581018301518582016040015282016115aa565b506000604082860101526040601f19601f8301168501019250505092915050565b6000602082840312156115f957600080fd5b5035919050565b80356001600160a01b038116811461161757600080fd5b919050565b6000806040838503121561162f57600080fd5b61163883611600565b946020939093013593505050565b60008060006060848603121561165b57600080fd5b61166484611600565b925061167260208501611600565b9150604084013590509250925092565b60006020828403121561169457600080fd5b61088f82611600565b600080604083850312156116b057600080fd5b823591506116c060208401611600565b90509250929050565b6000806000606084860312156116de57600080fd5b833592506116ee60208501611600565b91506116fc60408501611600565b90509250925092565b600080600080600080600060e0888a03121561172057600080fd5b61172988611600565b965061173760208901611600565b95506040880135945060608801359350608088013560ff8116811461175b57600080fd5b9699959850939692959460a0840135945060c09093013592915050565b6000806040838503121561178b57600080fd5b61179483611600565b91506116c060208401611600565b6000602082840312156117b457600080fd5b5051919050565b634e487b7160e01b600052601160045260246000fd5b808201808211156108fd576108fd6117bb565b600181811c908216806117f857607f821691505b60208210810361181857634e487b7160e01b600052602260045260246000fd5b50919050565b818103818111156108fd576108fd6117bb565b60006020828403121561184357600080fd5b8151801515811461088f57600080fd5b80820281158282048414176108fd576108fd6117bb565b60008261188757634e487b7160e01b600052601260045260246000fd5b500490565b600080835481600182811c9150808316806118a857607f831692505b602080841082036118c757634e487b7160e01b86526022600452602486fd5b8180156118db57600181146118f05761191d565b60ff198616895284151585028901965061191d565b60008a81526020902060005b868110156119155781548b8201529085019083016118fc565b505084890196505b50949897505050505050505056feddf252ad1be2c89b69c2b068fc378daa952ba7f163c4a11628f55a4df523b3efa26469706673582212201d249228a2867c2c44b8f66e14adeea30b9f88ef4c9a6c23a8ee1e008fbe3fe164736f6c63430008140033a264697066735822122003b9bfea95771f0e5a0982c6bc84166feed3d0bc71ca1a4d34fdab8a18db4d3664736f6c63430008140033",
    "linkReferences": {}
  },
  "methodIdentifiers": {
    "createContractVault(address,string,string)": "e07fe209",
    "deployedContracts(uint256)": "9ad1ee10",
    "getDeployedContracts()": "aa9a068f"
  },
  "id": 24
}