{
  "abi": [
    {
      "inputs": [],
      "name": "DYNAMIC_FEE_FLAG",
      "outputs": [
        {
          "internalType": "uint24",
          "name": "",
          "type": "uint24"
        }
      ],
      "stateMutability": "view",
      "type": "function"
    },
    {
      "inputs": [],
      "name": "HOOK_SWAP_FEE_FLAG",
      "outputs": [
        {
          "internalType": "uint24",
          "name": "",
          "type": "uint24"
        }
      ],
      "stateMutability": "view",
      "type": "function"
    },
    {
      "inputs": [],
      "name": "HOOK_WITHDRAW_FEE_FLAG",
      "outputs": [
        {
          "internalType": "uint24",
          "name": "",
          "type": "uint24"
        }
      ],
      "stateMutability": "view",
      "type": "function"
    },
    {
      "inputs": [],
      "name": "STATIC_FEE_MASK",
      "outputs": [
        {
          "internalType": "uint24",
          "name": "",
          "type": "uint24"
        }
      ],
      "stateMutability": "view",
      "type": "function"
    }
  ],
  "bytecode": {
    "object": "0x60c8610039600b82828239805160001a60731461002c57634e487b7160e01b600052600060045260246000fd5b30600052607381538281f3fe730000000000000000000000000000000000000000301460806040526004361060515760003560e01c80634f7deff7146056578063c7a97b4e146077578063d11e7dee146080578063f26ef49d146089575b600080fd5b605f6220000081565b60405162ffffff909116815260200160405180910390f35b605f620fffff81565b605f6240000081565b605f628000008156fea26469706673582212207813d2490526a1cad6f2346a390c1f164da53ef9417c5cd05d6bb588364d092164736f6c63430008140033",
    "linkReferences": {}
  },
  "methodIdentifiers": {
    "DYNAMIC_FEE_FLAG()": "f26ef49d",
    "HOOK_SWAP_FEE_FLAG()": "d11e7dee",
    "HOOK_WITHDRAW_FEE_FLAG()": "4f7deff7",
    "STATIC_FEE_MASK()": "c7a97b4e"
  },
  "id": 28
}