{
  "abi": [
    {
      "inputs": [
        {
          "internalType": "address",
          "name": "_mailbox",
          "type": "address"
        },
        {
          "internalType": "address",
          "name": "_interchainGasPaymaster",
          "type": "address"
        },
        {
          "internalType": "uint32",
          "name": "_targetChain",
          "type": "uint32"
        }
      ],
      "stateMutability": "nonpayable",
      "type": "constructor"
    },
    {
      "inputs": [
        {
          "components": [
            {
              "internalType": "address",
              "name": "owner",
              "type": "address"
            }
          ],
          "internalType": "struct CreateUserStruct",
          "name": "_owner",
          "type": "tuple"
        },
        {
          "internalType": "address",
          "name": "recipient",
          "type": "address"
        }
      ],
      "name": "createUserContract",
      "outputs": [],
      "stateMutability": "payable",
      "type": "function"
    },
    {
      "inputs": [],
      "name": "mailbox",
      "outputs": [
        {
          "internalType": "address",
          "name": "",
          "type": "address"
        }
      ],
      "stateMutability": "view",
      "type": "function"
    },
    {
      "inputs": [],
      "name": "quoteGasPayment",
      "outputs": [
        {
          "internalType": "uint256",
          "name": "",
          "type": "uint256"
        }
      ],
      "stateMutability": "view",
      "type": "function"
    },
    {
      "inputs": [
        {
          "components": [
            {
              "internalType": "address",
              "name": "owner",
              "type": "address"
            }
          ],
          "internalType": "struct CreateUserStruct",
          "name": "_owner",
          "type": "tuple"
        }
      ],
      "name": "structToBytesEncoded",
      "outputs": [
        {
          "internalType": "bytes",
          "name": "",
          "type": "bytes"
        }
      ],
      "stateMutability": "pure",
      "type": "function"
    },
    {
      "inputs": [],
      "name": "targetChain",
      "outputs": [
        {
          "internalType": "uint32",
          "name": "",
          "type": "uint32"
        }
      ],
      "stateMutability": "view",
      "type": "function"
    }
  ],
  "bytecode": {
    "object": "0x608060405234801561001057600080fd5b5060405161058b38038061058b83398101604081905261002f9161009f565b60008054600180546001600160a01b0319166001600160a01b039586161790556001600160c01b031916640100000000949093169390930263ffffffff19169190911763ffffffff919091161790556100ef565b80516001600160a01b038116811461009a57600080fd5b919050565b6000806000606084860312156100b457600080fd5b6100bd84610083565b92506100cb60208501610083565b9150604084015163ffffffff811681146100e457600080fd5b809150509250925092565b61048d806100fe6000396000f3fe60806040526004361061004a5760003560e01c8063166029681461004f57806344ac268c146100855780638304e6d2146100a8578063d5438eae146100da578063ffb0c9291461011a575b600080fd5b34801561005b57600080fd5b5061006f61006a366004610326565b61012f565b60405161007c919061038f565b60405180910390f35b34801561009157600080fd5b5061009a61015b565b60405190815260200161007c565b3480156100b457600080fd5b506000546100c59063ffffffff1681565b60405163ffffffff909116815260200161007c565b3480156100e657600080fd5b506000546101029064010000000090046001600160a01b031681565b6040516001600160a01b03909116815260200161007c565b61012d6101283660046103be565b6101e5565b005b606060008260405160200161014491906103f2565b60408051601f198184030181529190529392505050565b6001546000805460405163a692979360e01b815263ffffffff9091166004820152620864706024820152909182916001600160a01b039091169063a692979390604401602060405180830381865afa1580156101bb573d6000803e3d6000fd5b505050506040513d601f19601f820116820180604052508101906101df9190610410565b92915050565b60006101f08361012f565b60008054919250906001600160a01b036401000000008204169063fa31de019063ffffffff16610226866001600160a01b031690565b856040518463ffffffff1660e01b815260040161024593929190610429565b6020604051808303816000875af1158015610264573d6000803e3d6000fd5b505050506040513d601f19601f820116820180604052508101906102889190610410565b600154600054604051630237e58360e31b81526004810184905263ffffffff90911660248201526208647060448201523360648201529192506001600160a01b0316906311bf2c189034906084016000604051808303818588803b1580156102ef57600080fd5b505af1158015610303573d6000803e3d6000fd5b505050505050505050565b60006020828403121561032057600080fd5b50919050565b60006020828403121561033857600080fd5b610342838361030e565b9392505050565b6000815180845260005b8181101561036f57602081850181015186830182015201610353565b506000602082860101526020601f19601f83011685010191505092915050565b6020815260006103426020830184610349565b80356001600160a01b03811681146103b957600080fd5b919050565b600080604083850312156103d157600080fd5b6103db848461030e565b91506103e9602084016103a2565b90509250929050565b602081016001600160a01b03610407846103a2565b16825292915050565b60006020828403121561042257600080fd5b5051919050565b63ffffffff8416815282602082015260606040820152600061044e6060830184610349565b9594505050505056fea26469706673582212206659442fae8366f7ca52f3e15c649f3e18f418de0e35fd365b771833308c6fac64736f6c63430008140033",
    "linkReferences": {}
  },
  "methodIdentifiers": {
    "createUserContract((address),address)": "ffb0c929",
    "mailbox()": "d5438eae",
    "quoteGasPayment()": "44ac268c",
    "structToBytesEncoded((address))": "16602968",
    "targetChain()": "8304e6d2"
  },
  "id": 17
}