{
  "abi": [
    {
      "inputs": [
        {
          "internalType": "address",
          "name": "_mailbox",
          "type": "address"
        },
        {
          "internalType": "address",
          "name": "_interchainGasPaymaster",
          "type": "address"
        },
        {
          "internalType": "uint32",
          "name": "_targetChain",
          "type": "uint32"
        }
      ],
      "stateMutability": "nonpayable",
      "type": "constructor"
    },
    {
      "inputs": [
        {
          "components": [
            {
              "internalType": "address",
              "name": "owner",
              "type": "address"
            }
          ],
          "internalType": "struct CreateUserStruct",
          "name": "_owner",
          "type": "tuple"
        },
        {
          "internalType": "address",
          "name": "recipient",
          "type": "address"
        }
      ],
      "name": "createUserContract",
      "outputs": [],
      "stateMutability": "payable",
      "type": "function"
    },
    {
      "inputs": [],
      "name": "mailbox",
      "outputs": [
        {
          "internalType": "address",
          "name": "",
          "type": "address"
        }
      ],
      "stateMutability": "view",
      "type": "function"
    },
    {
      "inputs": [],
      "name": "quoteGasPayment",
      "outputs": [
        {
          "internalType": "uint256",
          "name": "",
          "type": "uint256"
        }
      ],
      "stateMutability": "view",
      "type": "function"
    },
    {
      "inputs": [
        {
          "components": [
            {
              "internalType": "address",
              "name": "owner",
              "type": "address"
            }
          ],
          "internalType": "struct CreateUserStruct",
          "name": "_owner",
          "type": "tuple"
        }
      ],
      "name": "structToBytesEncoded",
      "outputs": [
        {
          "internalType": "bytes",
          "name": "",
          "type": "bytes"
        }
      ],
      "stateMutability": "pure",
      "type": "function"
    },
    {
      "inputs": [],
      "name": "targetChain",
      "outputs": [
        {
          "internalType": "uint32",
          "name": "",
          "type": "uint32"
        }
      ],
      "stateMutability": "view",
      "type": "function"
    },
    {
      "inputs": [
        {
          "components": [
            {
              "internalType": "uint256",
              "name": "functionName",
              "type": "uint256"
            },
            {
              "internalType": "uint256",
              "name": "amount",
              "type": "uint256"
            },
            {
              "internalType": "address",
              "name": "vaultAddress",
              "type": "address"
            },
            {
              "internalType": "address",
              "name": "assetAddress",
              "type": "address"
            }
          ],
          "internalType": "struct DepositWithdrawStruct",
          "name": "_data",
          "type": "tuple"
        },
        {
          "internalType": "address",
          "name": "recipient",
          "type": "address"
        }
      ],
      "name": "vaultInteract",
      "outputs": [],
      "stateMutability": "payable",
      "type": "function"
    }
  ],
  "bytecode": {
    "object": "0x608060405234801561001057600080fd5b5060405161067d38038061067d83398101604081905261002f9161009f565b60008054600180546001600160a01b0319166001600160a01b039586161790556001600160c01b031916640100000000949093169390930263ffffffff19169190911763ffffffff919091161790556100ef565b80516001600160a01b038116811461009a57600080fd5b919050565b6000806000606084860312156100b457600080fd5b6100bd84610083565b92506100cb60208501610083565b9150604084015163ffffffff811681146100e457600080fd5b809150509250925092565b61057f806100fe6000396000f3fe6080604052600436106100555760003560e01c8063166029681461005a57806344ac268c14610090578063641ba0b0146100b35780638304e6d2146100c8578063d5438eae146100fa578063ffb0c9291461013a575b600080fd5b34801561006657600080fd5b5061007a61007536600461039d565b61014d565b6040516100879190610406565b60405180910390f35b34801561009c57600080fd5b506100a5610179565b604051908152602001610087565b6100c66100c1366004610435565b610203565b005b3480156100d457600080fd5b506000546100e59063ffffffff1681565b60405163ffffffff9091168152602001610087565b34801561010657600080fd5b506000546101229064010000000090046001600160a01b031681565b6040516001600160a01b039091168152602001610087565b6100c6610148366004610470565b610344565b6060600082604051602001610162919061049b565b60408051601f198184030181529190529392505050565b6001546000805460405163a692979360e01b815263ffffffff9091166004820152620864706024820152909182916001600160a01b039091169063a692979390604401602060405180830381865afa1580156101d9573d6000803e3d6000fd5b505050506040513d601f19601f820116820180604052508101906101fd91906104b9565b92915050565b60008260405160200161021691906104d2565b60408051601f1981840301815291905260008054919250906001600160a01b036401000000008204169063fa31de019063ffffffff1661025c866001600160a01b031690565b856040518463ffffffff1660e01b815260040161027b9392919061051b565b6020604051808303816000875af115801561029a573d6000803e3d6000fd5b505050506040513d601f19601f820116820180604052508101906102be91906104b9565b600154600054604051630237e58360e31b81526004810184905263ffffffff90911660248201526208647060448201523360648201529192506001600160a01b0316906311bf2c189034906084016000604051808303818588803b15801561032557600080fd5b505af1158015610339573d6000803e3d6000fd5b505050505050505050565b600061034f8361014d565b60008054919250906001600160a01b036401000000008204169063fa31de019063ffffffff1661025c866001600160a01b031690565b60006020828403121561039757600080fd5b50919050565b6000602082840312156103af57600080fd5b6103b98383610385565b9392505050565b6000815180845260005b818110156103e6576020818501810151868301820152016103ca565b506000602082860101526020601f19601f83011685010191505092915050565b6020815260006103b960208301846103c0565b80356001600160a01b038116811461043057600080fd5b919050565b60008082840360a081121561044957600080fd5b608081121561045757600080fd5b5082915061046760808401610419565b90509250929050565b6000806040838503121561048357600080fd5b61048d8484610385565b915061046760208401610419565b602081016001600160a01b036104b084610419565b16825292915050565b6000602082840312156104cb57600080fd5b5051919050565b8135815260208083013590820152608081016104f060408401610419565b6001600160a01b0381811660408501528061050d60608701610419565b166060850152505092915050565b63ffffffff8416815282602082015260606040820152600061054060608301846103c0565b9594505050505056fea2646970667358221220ef32926f89b10bd5baadfceba06f145aa1aef36b6beca9f511f8b303ae4da0ef64736f6c63430008140033",
    "linkReferences": {}
  },
  "methodIdentifiers": {
    "createUserContract((address),address)": "ffb0c929",
    "mailbox()": "d5438eae",
    "quoteGasPayment()": "44ac268c",
    "structToBytesEncoded((address))": "16602968",
    "targetChain()": "8304e6d2",
    "vaultInteract((uint256,uint256,address,address),address)": "641ba0b0"
  },
  "id": 22
}