{
  "abi": [
    {
      "inputs": [
        {
          "internalType": "address",
          "name": "_erc20",
          "type": "address"
        },
        {
          "internalType": "string",
          "name": "_name",
          "type": "string"
        },
        {
          "internalType": "string",
          "name": "_symbol",
          "type": "string"
        }
      ],
      "stateMutability": "nonpayable",
      "type": "constructor"
    },
    {
      "anonymous": false,
      "inputs": [
        {
          "indexed": true,
          "internalType": "address",
          "name": "owner",
          "type": "address"
        },
        {
          "indexed": true,
          "internalType": "address",
          "name": "spender",
          "type": "address"
        },
        {
          "indexed": false,
          "internalType": "uint256",
          "name": "amount",
          "type": "uint256"
        }
      ],
      "name": "Approval",
      "type": "event"
    },
    {
      "anonymous": false,
      "inputs": [
        {
          "indexed": true,
          "internalType": "address",
          "name": "caller",
          "type": "address"
        },
        {
          "indexed": true,
          "internalType": "address",
          "name": "owner",
          "type": "address"
        },
        {
          "indexed": false,
          "internalType": "uint256",
          "name": "assets",
          "type": "uint256"
        },
        {
          "indexed": false,
          "internalType": "uint256",
          "name": "shares",
          "type": "uint256"
        }
      ],
      "name": "Deposit",
      "type": "event"
    },
    {
      "anonymous": false,
      "inputs": [
        {
          "indexed": true,
          "internalType": "address",
          "name": "from",
          "type": "address"
        },
        {
          "indexed": true,
          "internalType": "address",
          "name": "to",
          "type": "address"
        },
        {
          "indexed": false,
          "internalType": "uint256",
          "name": "amount",
          "type": "uint256"
        }
      ],
      "name": "Transfer",
      "type": "event"
    },
    {
      "anonymous": false,
      "inputs": [
        {
          "indexed": true,
          "internalType": "address",
          "name": "caller",
          "type": "address"
        },
        {
          "indexed": true,
          "internalType": "address",
          "name": "receiver",
          "type": "address"
        },
        {
          "indexed": true,
          "internalType": "address",
          "name": "owner",
          "type": "address"
        },
        {
          "indexed": false,
          "internalType": "uint256",
          "name": "assets",
          "type": "uint256"
        },
        {
          "indexed": false,
          "internalType": "uint256",
          "name": "shares",
          "type": "uint256"
        }
      ],
      "name": "Withdraw",
      "type": "event"
    },
    {
      "inputs": [],
      "name": "DOMAIN_SEPARATOR",
      "outputs": [
        {
          "internalType": "bytes32",
          "name": "",
          "type": "bytes32"
        }
      ],
      "stateMutability": "view",
      "type": "function"
    },
    {
      "inputs": [
        {
          "internalType": "address",
          "name": "",
          "type": "address"
        },
        {
          "internalType": "address",
          "name": "",
          "type": "address"
        }
      ],
      "name": "allowance",
      "outputs": [
        {
          "internalType": "uint256",
          "name": "",
          "type": "uint256"
        }
      ],
      "stateMutability": "view",
      "type": "function"
    },
    {
      "inputs": [
        {
          "internalType": "address",
          "name": "spender",
          "type": "address"
        },
        {
          "internalType": "uint256",
          "name": "amount",
          "type": "uint256"
        }
      ],
      "name": "approve",
      "outputs": [
        {
          "internalType": "bool",
          "name": "",
          "type": "bool"
        }
      ],
      "stateMutability": "nonpayable",
      "type": "function"
    },
    {
      "inputs": [],
      "name": "asset",
      "outputs": [
        {
          "internalType": "contract ERC20",
          "name": "",
          "type": "address"
        }
      ],
      "stateMutability": "view",
      "type": "function"
    },
    {
      "inputs": [
        {
          "internalType": "address",
          "name": "",
          "type": "address"
        }
      ],
      "name": "balanceOf",
      "outputs": [
        {
          "internalType": "uint256",
          "name": "",
          "type": "uint256"
        }
      ],
      "stateMutability": "view",
      "type": "function"
    },
    {
      "inputs": [
        {
          "internalType": "uint256",
          "name": "shares",
          "type": "uint256"
        }
      ],
      "name": "convertToAssets",
      "outputs": [
        {
          "internalType": "uint256",
          "name": "",
          "type": "uint256"
        }
      ],
      "stateMutability": "view",
      "type": "function"
    },
    {
      "inputs": [
        {
          "internalType": "uint256",
          "name": "assets",
          "type": "uint256"
        }
      ],
      "name": "convertToShares",
      "outputs": [
        {
          "internalType": "uint256",
          "name": "",
          "type": "uint256"
        }
      ],
      "stateMutability": "view",
      "type": "function"
    },
    {
      "inputs": [],
      "name": "decimals",
      "outputs": [
        {
          "internalType": "uint8",
          "name": "",
          "type": "uint8"
        }
      ],
      "stateMutability": "view",
      "type": "function"
    },
    {
      "inputs": [
        {
          "internalType": "uint256",
          "name": "assets",
          "type": "uint256"
        },
        {
          "internalType": "address",
          "name": "receiver",
          "type": "address"
        }
      ],
      "name": "deposit",
      "outputs": [
        {
          "internalType": "uint256",
          "name": "shares",
          "type": "uint256"
        }
      ],
      "stateMutability": "nonpayable",
      "type": "function"
    },
    {
      "inputs": [
        {
          "internalType": "address",
          "name": "_receiverAddress",
          "type": "address"
        },
        {
          "internalType": "uint256",
          "name": "amount",
          "type": "uint256"
        }
      ],
      "name": "flashLoanSimple",
      "outputs": [],
      "stateMutability": "nonpayable",
      "type": "function"
    },
    {
      "inputs": [],
      "name": "getFee",
      "outputs": [
        {
          "internalType": "uint256",
          "name": "",
          "type": "uint256"
        }
      ],
      "stateMutability": "view",
      "type": "function"
    },
    {
      "inputs": [
        {
          "internalType": "uint32",
          "name": "_origin",
          "type": "uint32"
        },
        {
          "internalType": "bytes32",
          "name": "_sender",
          "type": "bytes32"
        },
        {
          "internalType": "bytes",
          "name": "_body",
          "type": "bytes"
        }
      ],
      "name": "handle",
      "outputs": [],
      "stateMutability": "nonpayable",
      "type": "function"
    },
    {
      "inputs": [
        {
          "internalType": "address",
          "name": "",
          "type": "address"
        }
      ],
      "name": "mailbox",
      "outputs": [
        {
          "internalType": "bool",
          "name": "",
          "type": "bool"
        }
      ],
      "stateMutability": "view",
      "type": "function"
    },
    {
      "inputs": [
        {
          "internalType": "address",
          "name": "",
          "type": "address"
        }
      ],
      "name": "maxDeposit",
      "outputs": [
        {
          "internalType": "uint256",
          "name": "",
          "type": "uint256"
        }
      ],
      "stateMutability": "view",
      "type": "function"
    },
    {
      "inputs": [
        {
          "internalType": "address",
          "name": "",
          "type": "address"
        }
      ],
      "name": "maxMint",
      "outputs": [
        {
          "internalType": "uint256",
          "name": "",
          "type": "uint256"
        }
      ],
      "stateMutability": "view",
      "type": "function"
    },
    {
      "inputs": [
        {
          "internalType": "address",
          "name": "owner",
          "type": "address"
        }
      ],
      "name": "maxRedeem",
      "outputs": [
        {
          "internalType": "uint256",
          "name": "",
          "type": "uint256"
        }
      ],
      "stateMutability": "view",
      "type": "function"
    },
    {
      "inputs": [
        {
          "internalType": "address",
          "name": "owner",
          "type": "address"
        }
      ],
      "name": "maxWithdraw",
      "outputs": [
        {
          "internalType": "uint256",
          "name": "",
          "type": "uint256"
        }
      ],
      "stateMutability": "view",
      "type": "function"
    },
    {
      "inputs": [
        {
          "internalType": "uint256",
          "name": "shares",
          "type": "uint256"
        },
        {
          "internalType": "address",
          "name": "receiver",
          "type": "address"
        }
      ],
      "name": "mint",
      "outputs": [
        {
          "internalType": "uint256",
          "name": "assets",
          "type": "uint256"
        }
      ],
      "stateMutability": "nonpayable",
      "type": "function"
    },
    {
      "inputs": [],
      "name": "name",
      "outputs": [
        {
          "internalType": "string",
          "name": "",
          "type": "string"
        }
      ],
      "stateMutability": "view",
      "type": "function"
    },
    {
      "inputs": [
        {
          "internalType": "address",
          "name": "",
          "type": "address"
        }
      ],
      "name": "nonces",
      "outputs": [
        {
          "internalType": "uint256",
          "name": "",
          "type": "uint256"
        }
      ],
      "stateMutability": "view",
      "type": "function"
    },
    {
      "inputs": [
        {
          "internalType": "address",
          "name": "owner",
          "type": "address"
        },
        {
          "internalType": "address",
          "name": "spender",
          "type": "address"
        },
        {
          "internalType": "uint256",
          "name": "value",
          "type": "uint256"
        },
        {
          "internalType": "uint256",
          "name": "deadline",
          "type": "uint256"
        },
        {
          "internalType": "uint8",
          "name": "v",
          "type": "uint8"
        },
        {
          "internalType": "bytes32",
          "name": "r",
          "type": "bytes32"
        },
        {
          "internalType": "bytes32",
          "name": "s",
          "type": "bytes32"
        }
      ],
      "name": "permit",
      "outputs": [],
      "stateMutability": "nonpayable",
      "type": "function"
    },
    {
      "inputs": [
        {
          "internalType": "uint256",
          "name": "assets",
          "type": "uint256"
        }
      ],
      "name": "previewDeposit",
      "outputs": [
        {
          "internalType": "uint256",
          "name": "",
          "type": "uint256"
        }
      ],
      "stateMutability": "view",
      "type": "function"
    },
    {
      "inputs": [
        {
          "internalType": "uint256",
          "name": "shares",
          "type": "uint256"
        }
      ],
      "name": "previewMint",
      "outputs": [
        {
          "internalType": "uint256",
          "name": "",
          "type": "uint256"
        }
      ],
      "stateMutability": "view",
      "type": "function"
    },
    {
      "inputs": [
        {
          "internalType": "uint256",
          "name": "shares",
          "type": "uint256"
        }
      ],
      "name": "previewRedeem",
      "outputs": [
        {
          "internalType": "uint256",
          "name": "",
          "type": "uint256"
        }
      ],
      "stateMutability": "view",
      "type": "function"
    },
    {
      "inputs": [
        {
          "internalType": "uint256",
          "name": "assets",
          "type": "uint256"
        }
      ],
      "name": "previewWithdraw",
      "outputs": [
        {
          "internalType": "uint256",
          "name": "",
          "type": "uint256"
        }
      ],
      "stateMutability": "view",
      "type": "function"
    },
    {
      "inputs": [
        {
          "internalType": "uint256",
          "name": "shares",
          "type": "uint256"
        },
        {
          "internalType": "address",
          "name": "receiver",
          "type": "address"
        },
        {
          "internalType": "address",
          "name": "owner",
          "type": "address"
        }
      ],
      "name": "redeem",
      "outputs": [
        {
          "internalType": "uint256",
          "name": "assets",
          "type": "uint256"
        }
      ],
      "stateMutability": "nonpayable",
      "type": "function"
    },
    {
      "inputs": [
        {
          "internalType": "address",
          "name": "_mailbox",
          "type": "address"
        }
      ],
      "name": "removeMailbox",
      "outputs": [],
      "stateMutability": "nonpayable",
      "type": "function"
    },
    {
      "inputs": [
        {
          "internalType": "uint256",
          "name": "_fee",
          "type": "uint256"
        }
      ],
      "name": "setFee",
      "outputs": [],
      "stateMutability": "nonpayable",
      "type": "function"
    },
    {
      "inputs": [
        {
          "internalType": "address",
          "name": "_mailbox",
          "type": "address"
        }
      ],
      "name": "setMailbox",
      "outputs": [],
      "stateMutability": "nonpayable",
      "type": "function"
    },
    {
      "inputs": [
        {
          "internalType": "uint256",
          "name": "_totalAssets",
          "type": "uint256"
        }
      ],
      "name": "setTotalAssets",
      "outputs": [],
      "stateMutability": "nonpayable",
      "type": "function"
    },
    {
      "inputs": [],
      "name": "sweep",
      "outputs": [],
      "stateMutability": "nonpayable",
      "type": "function"
    },
    {
      "inputs": [],
      "name": "symbol",
      "outputs": [
        {
          "internalType": "string",
          "name": "",
          "type": "string"
        }
      ],
      "stateMutability": "view",
      "type": "function"
    },
    {
      "inputs": [],
      "name": "totalAssets",
      "outputs": [
        {
          "internalType": "uint256",
          "name": "",
          "type": "uint256"
        }
      ],
      "stateMutability": "view",
      "type": "function"
    },
    {
      "inputs": [],
      "name": "totalSupply",
      "outputs": [
        {
          "internalType": "uint256",
          "name": "",
          "type": "uint256"
        }
      ],
      "stateMutability": "view",
      "type": "function"
    },
    {
      "inputs": [
        {
          "internalType": "address",
          "name": "to",
          "type": "address"
        },
        {
          "internalType": "uint256",
          "name": "amount",
          "type": "uint256"
        }
      ],
      "name": "transfer",
      "outputs": [
        {
          "internalType": "bool",
          "name": "",
          "type": "bool"
        }
      ],
      "stateMutability": "nonpayable",
      "type": "function"
    },
    {
      "inputs": [
        {
          "internalType": "address",
          "name": "from",
          "type": "address"
        },
        {
          "internalType": "address",
          "name": "to",
          "type": "address"
        },
        {
          "internalType": "uint256",
          "name": "amount",
          "type": "uint256"
        }
      ],
      "name": "transferFrom",
      "outputs": [
        {
          "internalType": "bool",
          "name": "",
          "type": "bool"
        }
      ],
      "stateMutability": "nonpayable",
      "type": "function"
    },
    {
      "inputs": [
        {
          "internalType": "uint256",
          "name": "assets",
          "type": "uint256"
        },
        {
          "internalType": "address",
          "name": "receiver",
          "type": "address"
        },
        {
          "internalType": "address",
          "name": "owner",
          "type": "address"
        }
      ],
      "name": "withdraw",
      "outputs": [
        {
          "internalType": "uint256",
          "name": "shares",
          "type": "uint256"
        }
      ],
      "stateMutability": "nonpayable",
      "type": "function"
    },
    {
      "stateMutability": "payable",
      "type": "receive"
    }
  ],
  "bytecode": {
    "object": "0x61010060405260096006553480156200001757600080fd5b5060405162002014380380620020148339810160408190526200003a9162000270565b8282828181846001600160a01b031663313ce5676040518163ffffffff1660e01b8152600401602060405180830381865afa1580156200007e573d6000803e3d6000fd5b505050506040513d601f19601f82011682018060405250810190620000a49190620002fa565b6000620000b28482620003b5565b506001620000c18382620003b5565b5060ff81166080524660a052620000d76200010f565b60c052505050506001600160a01b0391821660e05250600880546001600160a01b031916949091169390931790925550620004ff9050565b60007f8b73c3c69bb8fe3d512ecc4cf759cc79239f7b179b0ffacaa9a75d522b39400f600060405162000143919062000481565b6040805191829003822060208301939093528101919091527fc89efdaa54c0f20c7adf612882df0950f5a951637e0307cdcb4c672f298b8bc660608201524660808201523060a082015260c00160405160208183030381529060405280519060200120905090565b634e487b7160e01b600052604160045260246000fd5b600082601f830112620001d357600080fd5b81516001600160401b0380821115620001f057620001f0620001ab565b604051601f8301601f19908116603f011681019082821181831017156200021b576200021b620001ab565b816040528381526020925086838588010111156200023857600080fd5b600091505b838210156200025c57858201830151818301840152908201906200023d565b600093810190920192909252949350505050565b6000806000606084860312156200028657600080fd5b83516001600160a01b03811681146200029e57600080fd5b60208501519093506001600160401b0380821115620002bc57600080fd5b620002ca87838801620001c1565b93506040860151915080821115620002e157600080fd5b50620002f086828701620001c1565b9150509250925092565b6000602082840312156200030d57600080fd5b815160ff811681146200031f57600080fd5b9392505050565b600181811c908216806200033b57607f821691505b6020821081036200035c57634e487b7160e01b600052602260045260246000fd5b50919050565b601f821115620003b057600081815260208120601f850160051c810160208610156200038b5750805b601f850160051c820191505b81811015620003ac5782815560010162000397565b5050505b505050565b81516001600160401b03811115620003d157620003d1620001ab565b620003e981620003e2845462000326565b8462000362565b602080601f831160018114620004215760008415620004085750858301515b600019600386901b1c1916600185901b178555620003ac565b600085815260208120601f198616915b82811015620004525788860151825594840194600190910190840162000431565b5085821015620004715787850151600019600388901b60f8161c191681555b5050505050600190811b01905550565b6000808354620004918162000326565b60018281168015620004ac5760018114620004c257620004f3565b60ff1984168752821515830287019450620004f3565b8760005260208060002060005b85811015620004ea5781548a820152908401908201620004cf565b50505082870194505b50929695505050505050565b60805160a05160c05160e051611ab86200055c600039600081816103b30152818161078401528181610b1301528181610d5601528181610f3a015261107c01526000610a6201526000610a320152600061034c0152611ab86000f3fe60806040526004361061021e5760003560e01c806370a0823111610123578063ba087652116100ab578063d505accf1161006f578063d505accf1461067f578063d905777e1461069f578063dd62ed3e146106d5578063ef8b30f71461070d578063f3c61d6b1461072d57600080fd5b8063ba0876521461060a578063c63d75b61461041d578063c6e6f5921461062a578063ce96cb771461064a578063ced72f871461066a57600080fd5b806394bf804d116100f257806394bf804d1461057557806395d89b4114610595578063a9059cbb146105aa578063b3d7f6b9146105ca578063b460af94146105ea57600080fd5b806370a08231146104bf57806374451a9a146104ec5780637c938fc41461050c5780637ecebe001461054857600080fd5b806335faa416116101a6578063402d267d11610175578063402d267d1461041d5780634cdad5061461043f57806356d5d4751461045f57806369fe0e2d1461047f5780636e553f651461049f57600080fd5b806335faa416146103805780633644e5151461038c57806338d52e0f146103a15780633e4486aa146103ed57600080fd5b80630a28a477116101ed5780630a28a477146102c45780631765b313146102e457806318160ddd1461030457806323b872dd1461031a578063313ce5671461033a57600080fd5b806301e1d1141461022a57806306fdde031461025257806307a2d13a14610274578063095ea7b31461029457600080fd5b3661022557005b600080fd5b34801561023657600080fd5b5061023f61076c565b6040519081526020015b60405180910390f35b34801561025e57600080fd5b50610267610806565b60405161024991906115e4565b34801561028057600080fd5b5061023f61028f366004611632565b610894565b3480156102a057600080fd5b506102b46102af366004611667565b6108c1565b6040519015158152602001610249565b3480156102d057600080fd5b5061023f6102df366004611632565b61092e565b3480156102f057600080fd5b506103026102ff366004611632565b50565b005b34801561031057600080fd5b5061023f60025481565b34801561032657600080fd5b506102b4610335366004611691565b61094e565b34801561034657600080fd5b5061036e7f000000000000000000000000000000000000000000000000000000000000000081565b60405160ff9091168152602001610249565b34801561030257600080fd5b34801561039857600080fd5b5061023f610a2e565b3480156103ad57600080fd5b506103d57f000000000000000000000000000000000000000000000000000000000000000081565b6040516001600160a01b039091168152602001610249565b3480156103f957600080fd5b506102b46104083660046116cd565b60076020526000908152604090205460ff1681565b34801561042957600080fd5b5061023f6104383660046116cd565b5060001990565b34801561044b57600080fd5b5061023f61045a366004611632565b610a84565b34801561046b57600080fd5b5061030261047a3660046116fe565b610a8f565b34801561048b57600080fd5b5061030261049a366004611632565b600655565b3480156104ab57600080fd5b5061023f6104ba3660046117d4565b610ab6565b3480156104cb57600080fd5b5061023f6104da3660046116cd565b60036020526000908152604090205481565b3480156104f857600080fd5b50610302610507366004611667565b610b91565b34801561051857600080fd5b506103026105273660046116cd565b6001600160a01b03166000908152600760205260409020805460ff19169055565b34801561055457600080fd5b5061023f6105633660046116cd565b60056020526000908152604090205481565b34801561058157600080fd5b5061023f6105903660046117d4565b610d3c565b3480156105a157600080fd5b50610267610dcb565b3480156105b657600080fd5b506102b46105c5366004611667565b610dd8565b3480156105d657600080fd5b5061023f6105e5366004611632565b610e3e565b3480156105f657600080fd5b5061023f610605366004611800565b610e5d565b34801561061657600080fd5b5061023f610625366004611800565b610f61565b34801561063657600080fd5b5061023f610645366004611632565b6110a3565b34801561065657600080fd5b5061023f6106653660046116cd565b6110c3565b34801561067657600080fd5b5060065461023f565b34801561068b57600080fd5b5061030261069a36600461183c565b6110e5565b3480156106ab57600080fd5b5061023f6106ba3660046116cd565b6001600160a01b031660009081526003602052604090205490565b3480156106e157600080fd5b5061023f6106f03660046118af565b600460209081526000928352604080842090915290825290205481565b34801561071957600080fd5b5061023f610728366004611632565b611329565b34801561073957600080fd5b506103026107483660046116cd565b6001600160a01b03166000908152600760205260409020805460ff19166001179055565b6040516370a0823160e01b81523060048201526000907f00000000000000000000000000000000000000000000000000000000000000006001600160a01b0316906370a0823190602401602060405180830381865afa1580156107d3573d6000803e3d6000fd5b505050506040513d601f19601f820116820180604052508101906107f791906118d9565b6108019047611908565b905090565b600080546108139061191b565b80601f016020809104026020016040519081016040528092919081815260200182805461083f9061191b565b801561088c5780601f106108615761010080835404028352916020019161088c565b820191906000526020600020905b81548152906001019060200180831161086f57829003601f168201915b505050505081565b60025460009080156108b8576108b36108ab61076c565b849083611334565b6108ba565b825b9392505050565b3360008181526004602090815260408083206001600160a01b038716808552925280832085905551919290917f8c5be1e5ebec7d5bd14f71427d1e84f3dd0314c0f7b2291e5b200ac8c7c3b9259061091c9086815260200190565b60405180910390a35060015b92915050565b60025460009080156108b8576108b38161094661076c565b859190611352565b6001600160a01b038316600090815260046020908152604080832033845290915281205460001981146109aa576109858382611955565b6001600160a01b03861660009081526004602090815260408083203384529091529020555b6001600160a01b038516600090815260036020526040812080548592906109d2908490611955565b90915550506001600160a01b0380851660008181526003602052604090819020805487019055519091871690600080516020611a6383398151915290610a1b9087815260200190565b60405180910390a3506001949350505050565b60007f00000000000000000000000000000000000000000000000000000000000000004614610a5f57610801611378565b507f000000000000000000000000000000000000000000000000000000000000000090565b600061092882610894565b3360009081526007602052604090205460ff16610aab57600080fd5b6000825b5050505050565b6000610ac183611329565b905080600003610b065760405162461bcd60e51b815260206004820152600b60248201526a5a45524f5f53484152455360a81b60448201526064015b60405180910390fd5b610b3b6001600160a01b037f000000000000000000000000000000000000000000000000000000000000000016333086611412565b610b4582826114a7565b60408051848152602081018390526001600160a01b0384169133917fdcbc1c05240f31ff3ad067ef1ee35ce4997762752e3a095284754544f4c709d791015b60405180910390a3610928565b60085460405163095ea7b360e01b81526001600160a01b038085166004830152602482018490528492169063095ea7b3906044016020604051808303816000875af1158015610be4573d6000803e3d6000fd5b505050506040513d601f19601f82011682018060405250810190610c089190611968565b50600854600654604051630e64e51760e41b81526001600160a01b0392831660048201523060248201526044810191909152606481018490529082169063e64e517090608401600060405180830381600087803b158015610c6857600080fd5b505af1158015610c7c573d6000803e3d6000fd5b50506008546006546001600160a01b0390911692506323b872dd91508590309061271090610caa908861198a565b610cb491906119a1565b610cbe9087611908565b6040516001600160e01b031960e086901b1681526001600160a01b03938416600482015292909116602483015260448201526064016020604051808303816000875af1158015610d12573d6000803e3d6000fd5b505050506040513d601f19601f82011682018060405250810190610d369190611968565b50505050565b6000610d4783610e3e565b9050610d7e6001600160a01b037f000000000000000000000000000000000000000000000000000000000000000016333084611412565b610d8882846114a7565b60408051828152602081018590526001600160a01b0384169133917fdcbc1c05240f31ff3ad067ef1ee35ce4997762752e3a095284754544f4c709d79101610b84565b600180546108139061191b565b33600090815260036020526040812080548391908390610df9908490611955565b90915550506001600160a01b03831660008181526003602052604090819020805485019055513390600080516020611a638339815191529061091c9086815260200190565b60025460009080156108b8576108b3610e5561076c565b849083611352565b6000610e688461092e565b9050336001600160a01b03831614610ed8576001600160a01b03821660009081526004602090815260408083203384529091529020546000198114610ed657610eb18282611955565b6001600160a01b03841660009081526004602090815260408083203384529091529020555b505b610ee28282611501565b60408051858152602081018390526001600160a01b03808516929086169133917ffbde797d201c681b91056529119e0b02407c7bb96a4a2c75c01fc9667232c8db910160405180910390a46108ba6001600160a01b037f0000000000000000000000000000000000000000000000000000000000000000168486611563565b6000336001600160a01b03831614610fd1576001600160a01b03821660009081526004602090815260408083203384529091529020546000198114610fcf57610faa8582611955565b6001600160a01b03841660009081526004602090815260408083203384529091529020555b505b610fda84610a84565b90508060000361101a5760405162461bcd60e51b815260206004820152600b60248201526a5a45524f5f41535345545360a81b6044820152606401610afd565b6110248285611501565b60408051828152602081018690526001600160a01b03808516929086169133917ffbde797d201c681b91056529119e0b02407c7bb96a4a2c75c01fc9667232c8db910160405180910390a46108ba6001600160a01b037f0000000000000000000000000000000000000000000000000000000000000000168483611563565b60025460009080156108b8576108b3816110bb61076c565b859190611334565b6001600160a01b03811660009081526003602052604081205461092890610894565b428410156111355760405162461bcd60e51b815260206004820152601760248201527f5045524d49545f444541444c494e455f455850495245440000000000000000006044820152606401610afd565b60006001611141610a2e565b6001600160a01b038a811660008181526005602090815260409182902080546001810190915582517f6e71edae12b1b97f4d1f60370fef10105fa2faae0126114a169c64845d6126c98184015280840194909452938d166060840152608083018c905260a083019390935260c08083018b90528151808403909101815260e08301909152805192019190912061190160f01b6101008301526101028201929092526101228101919091526101420160408051601f198184030181528282528051602091820120600084529083018083525260ff871690820152606081018590526080810184905260a0016020604051602081039080840390855afa15801561124d573d6000803e3d6000fd5b5050604051601f1901519150506001600160a01b038116158015906112835750876001600160a01b0316816001600160a01b0316145b6112c05760405162461bcd60e51b815260206004820152600e60248201526d24a72b20a624a22fa9a4a3a722a960911b6044820152606401610afd565b6001600160a01b0390811660009081526004602090815260408083208a8516808552908352928190208990555188815291928a16917f8c5be1e5ebec7d5bd14f71427d1e84f3dd0314c0f7b2291e5b200ac8c7c3b925910160405180910390a350505050505050565b6000610928826110a3565b600082600019048411830215820261134b57600080fd5b5091020490565b600082600019048411830215820261136957600080fd5b50910281810615159190040190565b60007f8b73c3c69bb8fe3d512ecc4cf759cc79239f7b179b0ffacaa9a75d522b39400f60006040516113aa91906119c3565b6040805191829003822060208301939093528101919091527fc89efdaa54c0f20c7adf612882df0950f5a951637e0307cdcb4c672f298b8bc660608201524660808201523060a082015260c00160405160208183030381529060405280519060200120905090565b60006040516323b872dd60e01b81526001600160a01b03851660048201526001600160a01b03841660248201528260448201526020600060648360008a5af13d15601f3d1160016000511416171691505080610aaf5760405162461bcd60e51b81526020600482015260146024820152731514905394d1915497d19493d357d1905253115160621b6044820152606401610afd565b80600260008282546114b99190611908565b90915550506001600160a01b038216600081815260036020908152604080832080548601905551848152600080516020611a6383398151915291015b60405180910390a35050565b6001600160a01b03821660009081526003602052604081208054839290611529908490611955565b90915550506002805482900390556040518181526000906001600160a01b03841690600080516020611a63833981519152906020016114f5565b600060405163a9059cbb60e01b81526001600160a01b0384166004820152826024820152602060006044836000895af13d15601f3d1160016000511416171691505080610d365760405162461bcd60e51b815260206004820152600f60248201526e1514905394d1915497d19052531151608a1b6044820152606401610afd565b600060208083528351808285015260005b81811015611611578581018301518582016040015282016115f5565b506000604082860101526040601f19601f8301168501019250505092915050565b60006020828403121561164457600080fd5b5035919050565b80356001600160a01b038116811461166257600080fd5b919050565b6000806040838503121561167a57600080fd5b6116838361164b565b946020939093013593505050565b6000806000606084860312156116a657600080fd5b6116af8461164b565b92506116bd6020850161164b565b9150604084013590509250925092565b6000602082840312156116df57600080fd5b6108ba8261164b565b634e487b7160e01b600052604160045260246000fd5b60008060006060848603121561171357600080fd5b833563ffffffff8116811461172757600080fd5b925060208401359150604084013567ffffffffffffffff8082111561174b57600080fd5b818601915086601f83011261175f57600080fd5b813581811115611771576117716116e8565b604051601f8201601f19908116603f01168101908382118183101715611799576117996116e8565b816040528281528960208487010111156117b257600080fd5b8260208601602083013760006020848301015280955050505050509250925092565b600080604083850312156117e757600080fd5b823591506117f76020840161164b565b90509250929050565b60008060006060848603121561181557600080fd5b833592506118256020850161164b565b91506118336040850161164b565b90509250925092565b600080600080600080600060e0888a03121561185757600080fd5b6118608861164b565b965061186e6020890161164b565b95506040880135945060608801359350608088013560ff8116811461189257600080fd5b9699959850939692959460a0840135945060c09093013592915050565b600080604083850312156118c257600080fd5b6118cb8361164b565b91506117f76020840161164b565b6000602082840312156118eb57600080fd5b5051919050565b634e487b7160e01b600052601160045260246000fd5b80820180821115610928576109286118f2565b600181811c9082168061192f57607f821691505b60208210810361194f57634e487b7160e01b600052602260045260246000fd5b50919050565b81810381811115610928576109286118f2565b60006020828403121561197a57600080fd5b815180151581146108ba57600080fd5b8082028115828204841417610928576109286118f2565b6000826119be57634e487b7160e01b600052601260045260246000fd5b500490565b600080835481600182811c9150808316806119df57607f831692505b602080841082036119fe57634e487b7160e01b86526022600452602486fd5b818015611a125760018114611a2757611a54565b60ff1986168952841515850289019650611a54565b60008a81526020902060005b86811015611a4c5781548b820152908501908301611a33565b505084890196505b50949897505050505050505056feddf252ad1be2c89b69c2b068fc378daa952ba7f163c4a11628f55a4df523b3efa2646970667358221220a9efd2540b453eb7b8aeeda61e0de0032560e24787b805108b3c987335c8e8eb64736f6c63430008140033",
    "linkReferences": {}
  },
  "methodIdentifiers": {
    "DOMAIN_SEPARATOR()": "3644e515",
    "allowance(address,address)": "dd62ed3e",
    "approve(address,uint256)": "095ea7b3",
    "asset()": "38d52e0f",
    "balanceOf(address)": "70a08231",
    "convertToAssets(uint256)": "07a2d13a",
    "convertToShares(uint256)": "c6e6f592",
    "decimals()": "313ce567",
    "deposit(uint256,address)": "6e553f65",
    "flashLoanSimple(address,uint256)": "74451a9a",
    "getFee()": "ced72f87",
    "handle(uint32,bytes32,bytes)": "56d5d475",
    "mailbox(address)": "3e4486aa",
    "maxDeposit(address)": "402d267d",
    "maxMint(address)": "c63d75b6",
    "maxRedeem(address)": "d905777e",
    "maxWithdraw(address)": "ce96cb77",
    "mint(uint256,address)": "94bf804d",
    "name()": "06fdde03",
    "nonces(address)": "7ecebe00",
    "permit(address,address,uint256,uint256,uint8,bytes32,bytes32)": "d505accf",
    "previewDeposit(uint256)": "ef8b30f7",
    "previewMint(uint256)": "b3d7f6b9",
    "previewRedeem(uint256)": "4cdad506",
    "previewWithdraw(uint256)": "0a28a477",
    "redeem(uint256,address,address)": "ba087652",
    "removeMailbox(address)": "7c938fc4",
    "setFee(uint256)": "69fe0e2d",
    "setMailbox(address)": "f3c61d6b",
    "setTotalAssets(uint256)": "1765b313",
    "sweep()": "35faa416",
    "symbol()": "95d89b41",
    "totalAssets()": "01e1d114",
    "totalSupply()": "18160ddd",
    "transfer(address,uint256)": "a9059cbb",
    "transferFrom(address,address,uint256)": "23b872dd",
    "withdraw(uint256,address,address)": "b460af94"
  },
  "id": 33
}