{
  "abi": [
    {
      "inputs": [
        {
          "internalType": "address",
          "name": "_erc20",
          "type": "address"
        },
        {
          "internalType": "string",
          "name": "_name",
          "type": "string"
        },
        {
          "internalType": "string",
          "name": "_symbol",
          "type": "string"
        }
      ],
      "stateMutability": "nonpayable",
      "type": "constructor"
    },
    {
      "anonymous": false,
      "inputs": [
        {
          "indexed": true,
          "internalType": "address",
          "name": "owner",
          "type": "address"
        },
        {
          "indexed": true,
          "internalType": "address",
          "name": "spender",
          "type": "address"
        },
        {
          "indexed": false,
          "internalType": "uint256",
          "name": "amount",
          "type": "uint256"
        }
      ],
      "name": "Approval",
      "type": "event"
    },
    {
      "anonymous": false,
      "inputs": [
        {
          "indexed": true,
          "internalType": "address",
          "name": "caller",
          "type": "address"
        },
        {
          "indexed": true,
          "internalType": "address",
          "name": "owner",
          "type": "address"
        },
        {
          "indexed": false,
          "internalType": "uint256",
          "name": "assets",
          "type": "uint256"
        },
        {
          "indexed": false,
          "internalType": "uint256",
          "name": "shares",
          "type": "uint256"
        }
      ],
      "name": "Deposit",
      "type": "event"
    },
    {
      "anonymous": false,
      "inputs": [
        {
          "indexed": true,
          "internalType": "address",
          "name": "from",
          "type": "address"
        },
        {
          "indexed": true,
          "internalType": "address",
          "name": "to",
          "type": "address"
        },
        {
          "indexed": false,
          "internalType": "uint256",
          "name": "amount",
          "type": "uint256"
        }
      ],
      "name": "Transfer",
      "type": "event"
    },
    {
      "anonymous": false,
      "inputs": [
        {
          "indexed": true,
          "internalType": "address",
          "name": "caller",
          "type": "address"
        },
        {
          "indexed": true,
          "internalType": "address",
          "name": "receiver",
          "type": "address"
        },
        {
          "indexed": true,
          "internalType": "address",
          "name": "owner",
          "type": "address"
        },
        {
          "indexed": false,
          "internalType": "uint256",
          "name": "assets",
          "type": "uint256"
        },
        {
          "indexed": false,
          "internalType": "uint256",
          "name": "shares",
          "type": "uint256"
        }
      ],
      "name": "Withdraw",
      "type": "event"
    },
    {
      "inputs": [],
      "name": "DOMAIN_SEPARATOR",
      "outputs": [
        {
          "internalType": "bytes32",
          "name": "",
          "type": "bytes32"
        }
      ],
      "stateMutability": "view",
      "type": "function"
    },
    {
      "inputs": [
        {
          "internalType": "address",
          "name": "",
          "type": "address"
        },
        {
          "internalType": "address",
          "name": "",
          "type": "address"
        }
      ],
      "name": "allowance",
      "outputs": [
        {
          "internalType": "uint256",
          "name": "",
          "type": "uint256"
        }
      ],
      "stateMutability": "view",
      "type": "function"
    },
    {
      "inputs": [
        {
          "internalType": "address",
          "name": "spender",
          "type": "address"
        },
        {
          "internalType": "uint256",
          "name": "amount",
          "type": "uint256"
        }
      ],
      "name": "approve",
      "outputs": [
        {
          "internalType": "bool",
          "name": "",
          "type": "bool"
        }
      ],
      "stateMutability": "nonpayable",
      "type": "function"
    },
    {
      "inputs": [],
      "name": "asset",
      "outputs": [
        {
          "internalType": "contract ERC20",
          "name": "",
          "type": "address"
        }
      ],
      "stateMutability": "view",
      "type": "function"
    },
    {
      "inputs": [
        {
          "internalType": "address",
          "name": "",
          "type": "address"
        }
      ],
      "name": "balanceOf",
      "outputs": [
        {
          "internalType": "uint256",
          "name": "",
          "type": "uint256"
        }
      ],
      "stateMutability": "view",
      "type": "function"
    },
    {
      "inputs": [
        {
          "internalType": "uint256",
          "name": "shares",
          "type": "uint256"
        }
      ],
      "name": "convertToAssets",
      "outputs": [
        {
          "internalType": "uint256",
          "name": "",
          "type": "uint256"
        }
      ],
      "stateMutability": "view",
      "type": "function"
    },
    {
      "inputs": [
        {
          "internalType": "uint256",
          "name": "assets",
          "type": "uint256"
        }
      ],
      "name": "convertToShares",
      "outputs": [
        {
          "internalType": "uint256",
          "name": "",
          "type": "uint256"
        }
      ],
      "stateMutability": "view",
      "type": "function"
    },
    {
      "inputs": [],
      "name": "decimals",
      "outputs": [
        {
          "internalType": "uint8",
          "name": "",
          "type": "uint8"
        }
      ],
      "stateMutability": "view",
      "type": "function"
    },
    {
      "inputs": [
        {
          "internalType": "uint256",
          "name": "assets",
          "type": "uint256"
        },
        {
          "internalType": "address",
          "name": "receiver",
          "type": "address"
        }
      ],
      "name": "deposit",
      "outputs": [
        {
          "internalType": "uint256",
          "name": "shares",
          "type": "uint256"
        }
      ],
      "stateMutability": "nonpayable",
      "type": "function"
    },
    {
      "inputs": [
        {
          "internalType": "address",
          "name": "_receiverAddress",
          "type": "address"
        },
        {
          "internalType": "uint256",
          "name": "amount",
          "type": "uint256"
        }
      ],
      "name": "flashLoanSimple",
      "outputs": [],
      "stateMutability": "nonpayable",
      "type": "function"
    },
    {
      "inputs": [],
      "name": "getFee",
      "outputs": [
        {
          "internalType": "uint256",
          "name": "",
          "type": "uint256"
        }
      ],
      "stateMutability": "view",
      "type": "function"
    },
    {
      "inputs": [
        {
          "internalType": "address",
          "name": "",
          "type": "address"
        }
      ],
      "name": "maxDeposit",
      "outputs": [
        {
          "internalType": "uint256",
          "name": "",
          "type": "uint256"
        }
      ],
      "stateMutability": "view",
      "type": "function"
    },
    {
      "inputs": [
        {
          "internalType": "address",
          "name": "",
          "type": "address"
        }
      ],
      "name": "maxMint",
      "outputs": [
        {
          "internalType": "uint256",
          "name": "",
          "type": "uint256"
        }
      ],
      "stateMutability": "view",
      "type": "function"
    },
    {
      "inputs": [
        {
          "internalType": "address",
          "name": "owner",
          "type": "address"
        }
      ],
      "name": "maxRedeem",
      "outputs": [
        {
          "internalType": "uint256",
          "name": "",
          "type": "uint256"
        }
      ],
      "stateMutability": "view",
      "type": "function"
    },
    {
      "inputs": [
        {
          "internalType": "address",
          "name": "owner",
          "type": "address"
        }
      ],
      "name": "maxWithdraw",
      "outputs": [
        {
          "internalType": "uint256",
          "name": "",
          "type": "uint256"
        }
      ],
      "stateMutability": "view",
      "type": "function"
    },
    {
      "inputs": [
        {
          "internalType": "uint256",
          "name": "shares",
          "type": "uint256"
        },
        {
          "internalType": "address",
          "name": "receiver",
          "type": "address"
        }
      ],
      "name": "mint",
      "outputs": [
        {
          "internalType": "uint256",
          "name": "assets",
          "type": "uint256"
        }
      ],
      "stateMutability": "nonpayable",
      "type": "function"
    },
    {
      "inputs": [],
      "name": "name",
      "outputs": [
        {
          "internalType": "string",
          "name": "",
          "type": "string"
        }
      ],
      "stateMutability": "view",
      "type": "function"
    },
    {
      "inputs": [
        {
          "internalType": "address",
          "name": "",
          "type": "address"
        }
      ],
      "name": "nonces",
      "outputs": [
        {
          "internalType": "uint256",
          "name": "",
          "type": "uint256"
        }
      ],
      "stateMutability": "view",
      "type": "function"
    },
    {
      "inputs": [
        {
          "internalType": "address",
          "name": "owner",
          "type": "address"
        },
        {
          "internalType": "address",
          "name": "spender",
          "type": "address"
        },
        {
          "internalType": "uint256",
          "name": "value",
          "type": "uint256"
        },
        {
          "internalType": "uint256",
          "name": "deadline",
          "type": "uint256"
        },
        {
          "internalType": "uint8",
          "name": "v",
          "type": "uint8"
        },
        {
          "internalType": "bytes32",
          "name": "r",
          "type": "bytes32"
        },
        {
          "internalType": "bytes32",
          "name": "s",
          "type": "bytes32"
        }
      ],
      "name": "permit",
      "outputs": [],
      "stateMutability": "nonpayable",
      "type": "function"
    },
    {
      "inputs": [
        {
          "internalType": "uint256",
          "name": "assets",
          "type": "uint256"
        }
      ],
      "name": "previewDeposit",
      "outputs": [
        {
          "internalType": "uint256",
          "name": "",
          "type": "uint256"
        }
      ],
      "stateMutability": "view",
      "type": "function"
    },
    {
      "inputs": [
        {
          "internalType": "uint256",
          "name": "shares",
          "type": "uint256"
        }
      ],
      "name": "previewMint",
      "outputs": [
        {
          "internalType": "uint256",
          "name": "",
          "type": "uint256"
        }
      ],
      "stateMutability": "view",
      "type": "function"
    },
    {
      "inputs": [
        {
          "internalType": "uint256",
          "name": "shares",
          "type": "uint256"
        }
      ],
      "name": "previewRedeem",
      "outputs": [
        {
          "internalType": "uint256",
          "name": "",
          "type": "uint256"
        }
      ],
      "stateMutability": "view",
      "type": "function"
    },
    {
      "inputs": [
        {
          "internalType": "uint256",
          "name": "assets",
          "type": "uint256"
        }
      ],
      "name": "previewWithdraw",
      "outputs": [
        {
          "internalType": "uint256",
          "name": "",
          "type": "uint256"
        }
      ],
      "stateMutability": "view",
      "type": "function"
    },
    {
      "inputs": [
        {
          "internalType": "uint256",
          "name": "shares",
          "type": "uint256"
        },
        {
          "internalType": "address",
          "name": "receiver",
          "type": "address"
        },
        {
          "internalType": "address",
          "name": "owner",
          "type": "address"
        }
      ],
      "name": "redeem",
      "outputs": [
        {
          "internalType": "uint256",
          "name": "assets",
          "type": "uint256"
        }
      ],
      "stateMutability": "nonpayable",
      "type": "function"
    },
    {
      "inputs": [
        {
          "internalType": "uint256",
          "name": "_fee",
          "type": "uint256"
        }
      ],
      "name": "setFee",
      "outputs": [],
      "stateMutability": "nonpayable",
      "type": "function"
    },
    {
      "inputs": [
        {
          "internalType": "uint256",
          "name": "_totalAssets",
          "type": "uint256"
        }
      ],
      "name": "setTotalAssets",
      "outputs": [],
      "stateMutability": "nonpayable",
      "type": "function"
    },
    {
      "inputs": [],
      "name": "sweep",
      "outputs": [],
      "stateMutability": "nonpayable",
      "type": "function"
    },
    {
      "inputs": [],
      "name": "symbol",
      "outputs": [
        {
          "internalType": "string",
          "name": "",
          "type": "string"
        }
      ],
      "stateMutability": "view",
      "type": "function"
    },
    {
      "inputs": [],
      "name": "totalAssets",
      "outputs": [
        {
          "internalType": "uint256",
          "name": "",
          "type": "uint256"
        }
      ],
      "stateMutability": "view",
      "type": "function"
    },
    {
      "inputs": [],
      "name": "totalSupply",
      "outputs": [
        {
          "internalType": "uint256",
          "name": "",
          "type": "uint256"
        }
      ],
      "stateMutability": "view",
      "type": "function"
    },
    {
      "inputs": [
        {
          "internalType": "address",
          "name": "to",
          "type": "address"
        },
        {
          "internalType": "uint256",
          "name": "amount",
          "type": "uint256"
        }
      ],
      "name": "transfer",
      "outputs": [
        {
          "internalType": "bool",
          "name": "",
          "type": "bool"
        }
      ],
      "stateMutability": "nonpayable",
      "type": "function"
    },
    {
      "inputs": [
        {
          "internalType": "address",
          "name": "from",
          "type": "address"
        },
        {
          "internalType": "address",
          "name": "to",
          "type": "address"
        },
        {
          "internalType": "uint256",
          "name": "amount",
          "type": "uint256"
        }
      ],
      "name": "transferFrom",
      "outputs": [
        {
          "internalType": "bool",
          "name": "",
          "type": "bool"
        }
      ],
      "stateMutability": "nonpayable",
      "type": "function"
    },
    {
      "inputs": [
        {
          "internalType": "uint256",
          "name": "assets",
          "type": "uint256"
        },
        {
          "internalType": "address",
          "name": "receiver",
          "type": "address"
        },
        {
          "internalType": "address",
          "name": "owner",
          "type": "address"
        }
      ],
      "name": "withdraw",
      "outputs": [
        {
          "internalType": "uint256",
          "name": "shares",
          "type": "uint256"
        }
      ],
      "stateMutability": "nonpayable",
      "type": "function"
    },
    {
      "stateMutability": "payable",
      "type": "receive"
    }
  ],
  "bytecode": {
    "object": "0x61010060405260096006553480156200001757600080fd5b5060405162001e1138038062001e118339810160408190526200003a9162000270565b8282828181846001600160a01b031663313ce5676040518163ffffffff1660e01b8152600401602060405180830381865afa1580156200007e573d6000803e3d6000fd5b505050506040513d601f19601f82011682018060405250810190620000a49190620002fa565b6000620000b28482620003b5565b506001620000c18382620003b5565b5060ff81166080524660a052620000d76200010f565b60c052505050506001600160a01b0391821660e05250600780546001600160a01b031916949091169390931790925550620004ff9050565b60007f8b73c3c69bb8fe3d512ecc4cf759cc79239f7b179b0ffacaa9a75d522b39400f600060405162000143919062000481565b6040805191829003822060208301939093528101919091527fc89efdaa54c0f20c7adf612882df0950f5a951637e0307cdcb4c672f298b8bc660608201524660808201523060a082015260c00160405160208183030381529060405280519060200120905090565b634e487b7160e01b600052604160045260246000fd5b600082601f830112620001d357600080fd5b81516001600160401b0380821115620001f057620001f0620001ab565b604051601f8301601f19908116603f011681019082821181831017156200021b576200021b620001ab565b816040528381526020925086838588010111156200023857600080fd5b600091505b838210156200025c57858201830151818301840152908201906200023d565b600093810190920192909252949350505050565b6000806000606084860312156200028657600080fd5b83516001600160a01b03811681146200029e57600080fd5b60208501519093506001600160401b0380821115620002bc57600080fd5b620002ca87838801620001c1565b93506040860151915080821115620002e157600080fd5b50620002f086828701620001c1565b9150509250925092565b6000602082840312156200030d57600080fd5b815160ff811681146200031f57600080fd5b9392505050565b600181811c908216806200033b57607f821691505b6020821081036200035c57634e487b7160e01b600052602260045260246000fd5b50919050565b601f821115620003b057600081815260208120601f850160051c810160208610156200038b5750805b601f850160051c820191505b81811015620003ac5782815560010162000397565b5050505b505050565b81516001600160401b03811115620003d157620003d1620001ab565b620003e981620003e2845462000326565b8462000362565b602080601f831160018114620004215760008415620004085750858301515b600019600386901b1c1916600185901b178555620003ac565b600085815260208120601f198616915b82811015620004525788860151825594840194600190910190840162000431565b5085821015620004715787850151600019600388901b60f8161c191681555b5050505050600190811b01905550565b6000808354620004918162000326565b60018281168015620004ac5760018114620004c257620004f3565b60ff1984168752821515830287019450620004f3565b8760005260208060002060005b85811015620004ea5781548a820152908401908201620004cf565b50505082870194505b50929695505050505050565b60805160a05160c05160e0516118b56200055c600039600081816103870152818161068d015281816109f501528181610c3801528181610e1c0152610f5e0152600061096b0152600061093b0152600061032001526118b56000f3fe6080604052600436106101f25760003560e01c806370a082311161010d578063ba087652116100a0578063ced72f871161006f578063ced72f87146105b2578063d505accf146105c7578063d905777e146105e7578063dd62ed3e1461061d578063ef8b30f71461065557600080fd5b8063ba08765214610552578063c63d75b6146103c1578063c6e6f59214610572578063ce96cb771461059257600080fd5b806395d89b41116100dc57806395d89b41146104dd578063a9059cbb146104f2578063b3d7f6b914610512578063b460af941461053257600080fd5b806370a082311461044357806374451a9a146104705780637ecebe001461049057806394bf804d146104bd57600080fd5b8063313ce56711610185578063402d267d11610154578063402d267d146103c15780634cdad506146103e357806369fe0e2d146104035780636e553f651461042357600080fd5b8063313ce5671461030e57806335faa416146103545780633644e5151461036057806338d52e0f1461037557600080fd5b80630a28a477116101c15780630a28a477146102985780631765b313146102b857806318160ddd146102d857806323b872dd146102ee57600080fd5b806301e1d114146101fe57806306fdde031461022657806307a2d13a14610248578063095ea7b31461026857600080fd5b366101f957005b600080fd5b34801561020a57600080fd5b50610213610675565b6040519081526020015b60405180910390f35b34801561023257600080fd5b5061023b61070f565b60405161021d91906114cd565b34801561025457600080fd5b5061021361026336600461151b565b61079d565b34801561027457600080fd5b50610288610283366004611550565b6107ca565b604051901515815260200161021d565b3480156102a457600080fd5b506102136102b336600461151b565b610837565b3480156102c457600080fd5b506102d66102d336600461151b565b50565b005b3480156102e457600080fd5b5061021360025481565b3480156102fa57600080fd5b5061028861030936600461157a565b610857565b34801561031a57600080fd5b506103427f000000000000000000000000000000000000000000000000000000000000000081565b60405160ff909116815260200161021d565b3480156102d657600080fd5b34801561036c57600080fd5b50610213610937565b34801561038157600080fd5b506103a97f000000000000000000000000000000000000000000000000000000000000000081565b6040516001600160a01b03909116815260200161021d565b3480156103cd57600080fd5b506102136103dc3660046115b6565b5060001990565b3480156103ef57600080fd5b506102136103fe36600461151b565b61098d565b34801561040f57600080fd5b506102d661041e36600461151b565b600655565b34801561042f57600080fd5b5061021361043e3660046115d1565b610998565b34801561044f57600080fd5b5061021361045e3660046115b6565b60036020526000908152604090205481565b34801561047c57600080fd5b506102d661048b366004611550565b610a73565b34801561049c57600080fd5b506102136104ab3660046115b6565b60056020526000908152604090205481565b3480156104c957600080fd5b506102136104d83660046115d1565b610c1e565b3480156104e957600080fd5b5061023b610cad565b3480156104fe57600080fd5b5061028861050d366004611550565b610cba565b34801561051e57600080fd5b5061021361052d36600461151b565b610d20565b34801561053e57600080fd5b5061021361054d3660046115fd565b610d3f565b34801561055e57600080fd5b5061021361056d3660046115fd565b610e43565b34801561057e57600080fd5b5061021361058d36600461151b565b610f85565b34801561059e57600080fd5b506102136105ad3660046115b6565b610fa5565b3480156105be57600080fd5b50600654610213565b3480156105d357600080fd5b506102d66105e2366004611639565b610fc7565b3480156105f357600080fd5b506102136106023660046115b6565b6001600160a01b031660009081526003602052604090205490565b34801561062957600080fd5b506102136106383660046116ac565b600460209081526000928352604080842090915290825290205481565b34801561066157600080fd5b5061021361067036600461151b565b61120b565b6040516370a0823160e01b81523060048201526000907f00000000000000000000000000000000000000000000000000000000000000006001600160a01b0316906370a0823190602401602060405180830381865afa1580156106dc573d6000803e3d6000fd5b505050506040513d601f19601f8201168201806040525081019061070091906116d6565b61070a9047611705565b905090565b6000805461071c90611718565b80601f016020809104026020016040519081016040528092919081815260200182805461074890611718565b80156107955780601f1061076a57610100808354040283529160200191610795565b820191906000526020600020905b81548152906001019060200180831161077857829003601f168201915b505050505081565b60025460009080156107c1576107bc6107b4610675565b849083611216565b6107c3565b825b9392505050565b3360008181526004602090815260408083206001600160a01b038716808552925280832085905551919290917f8c5be1e5ebec7d5bd14f71427d1e84f3dd0314c0f7b2291e5b200ac8c7c3b925906108259086815260200190565b60405180910390a35060015b92915050565b60025460009080156107c1576107bc8161084f610675565b859190611234565b6001600160a01b038316600090815260046020908152604080832033845290915281205460001981146108b35761088e8382611752565b6001600160a01b03861660009081526004602090815260408083203384529091529020555b6001600160a01b038516600090815260036020526040812080548592906108db908490611752565b90915550506001600160a01b0380851660008181526003602052604090819020805487019055519091871690600080516020611860833981519152906109249087815260200190565b60405180910390a3506001949350505050565b60007f000000000000000000000000000000000000000000000000000000000000000046146109685761070a61125a565b507f000000000000000000000000000000000000000000000000000000000000000090565b60006108318261079d565b60006109a38361120b565b9050806000036109e85760405162461bcd60e51b815260206004820152600b60248201526a5a45524f5f53484152455360a81b60448201526064015b60405180910390fd5b610a1d6001600160a01b037f0000000000000000000000000000000000000000000000000000000000000000163330866112f4565b610a278282611390565b60408051848152602081018390526001600160a01b0384169133917fdcbc1c05240f31ff3ad067ef1ee35ce4997762752e3a095284754544f4c709d791015b60405180910390a3610831565b60075460405163095ea7b360e01b81526001600160a01b038085166004830152602482018490528492169063095ea7b3906044016020604051808303816000875af1158015610ac6573d6000803e3d6000fd5b505050506040513d601f19601f82011682018060405250810190610aea9190611765565b50600754600654604051630e64e51760e41b81526001600160a01b0392831660048201523060248201526044810191909152606481018490529082169063e64e517090608401600060405180830381600087803b158015610b4a57600080fd5b505af1158015610b5e573d6000803e3d6000fd5b50506007546006546001600160a01b0390911692506323b872dd91508590309061271090610b8c9088611787565b610b96919061179e565b610ba09087611705565b6040516001600160e01b031960e086901b1681526001600160a01b03938416600482015292909116602483015260448201526064016020604051808303816000875af1158015610bf4573d6000803e3d6000fd5b505050506040513d601f19601f82011682018060405250810190610c189190611765565b50505050565b6000610c2983610d20565b9050610c606001600160a01b037f0000000000000000000000000000000000000000000000000000000000000000163330846112f4565b610c6a8284611390565b60408051828152602081018590526001600160a01b0384169133917fdcbc1c05240f31ff3ad067ef1ee35ce4997762752e3a095284754544f4c709d79101610a66565b6001805461071c90611718565b33600090815260036020526040812080548391908390610cdb908490611752565b90915550506001600160a01b03831660008181526003602052604090819020805485019055513390600080516020611860833981519152906108259086815260200190565b60025460009080156107c1576107bc610d37610675565b849083611234565b6000610d4a84610837565b9050336001600160a01b03831614610dba576001600160a01b03821660009081526004602090815260408083203384529091529020546000198114610db857610d938282611752565b6001600160a01b03841660009081526004602090815260408083203384529091529020555b505b610dc482826113ea565b60408051858152602081018390526001600160a01b03808516929086169133917ffbde797d201c681b91056529119e0b02407c7bb96a4a2c75c01fc9667232c8db910160405180910390a46107c36001600160a01b037f000000000000000000000000000000000000000000000000000000000000000016848661144c565b6000336001600160a01b03831614610eb3576001600160a01b03821660009081526004602090815260408083203384529091529020546000198114610eb157610e8c8582611752565b6001600160a01b03841660009081526004602090815260408083203384529091529020555b505b610ebc8461098d565b905080600003610efc5760405162461bcd60e51b815260206004820152600b60248201526a5a45524f5f41535345545360a81b60448201526064016109df565b610f0682856113ea565b60408051828152602081018690526001600160a01b03808516929086169133917ffbde797d201c681b91056529119e0b02407c7bb96a4a2c75c01fc9667232c8db910160405180910390a46107c36001600160a01b037f000000000000000000000000000000000000000000000000000000000000000016848361144c565b60025460009080156107c1576107bc81610f9d610675565b859190611216565b6001600160a01b0381166000908152600360205260408120546108319061079d565b428410156110175760405162461bcd60e51b815260206004820152601760248201527f5045524d49545f444541444c494e455f4558504952454400000000000000000060448201526064016109df565b60006001611023610937565b6001600160a01b038a811660008181526005602090815260409182902080546001810190915582517f6e71edae12b1b97f4d1f60370fef10105fa2faae0126114a169c64845d6126c98184015280840194909452938d166060840152608083018c905260a083019390935260c08083018b90528151808403909101815260e08301909152805192019190912061190160f01b6101008301526101028201929092526101228101919091526101420160408051601f198184030181528282528051602091820120600084529083018083525260ff871690820152606081018590526080810184905260a0016020604051602081039080840390855afa15801561112f573d6000803e3d6000fd5b5050604051601f1901519150506001600160a01b038116158015906111655750876001600160a01b0316816001600160a01b0316145b6111a25760405162461bcd60e51b815260206004820152600e60248201526d24a72b20a624a22fa9a4a3a722a960911b60448201526064016109df565b6001600160a01b0390811660009081526004602090815260408083208a8516808552908352928190208990555188815291928a16917f8c5be1e5ebec7d5bd14f71427d1e84f3dd0314c0f7b2291e5b200ac8c7c3b925910160405180910390a350505050505050565b600061083182610f85565b600082600019048411830215820261122d57600080fd5b5091020490565b600082600019048411830215820261124b57600080fd5b50910281810615159190040190565b60007f8b73c3c69bb8fe3d512ecc4cf759cc79239f7b179b0ffacaa9a75d522b39400f600060405161128c91906117c0565b6040805191829003822060208301939093528101919091527fc89efdaa54c0f20c7adf612882df0950f5a951637e0307cdcb4c672f298b8bc660608201524660808201523060a082015260c00160405160208183030381529060405280519060200120905090565b60006040516323b872dd60e01b81526001600160a01b03851660048201526001600160a01b03841660248201528260448201526020600060648360008a5af13d15601f3d11600160005114161716915050806113895760405162461bcd60e51b81526020600482015260146024820152731514905394d1915497d19493d357d1905253115160621b60448201526064016109df565b5050505050565b80600260008282546113a29190611705565b90915550506001600160a01b03821660008181526003602090815260408083208054860190555184815260008051602061186083398151915291015b60405180910390a35050565b6001600160a01b03821660009081526003602052604081208054839290611412908490611752565b90915550506002805482900390556040518181526000906001600160a01b03841690600080516020611860833981519152906020016113de565b600060405163a9059cbb60e01b81526001600160a01b0384166004820152826024820152602060006044836000895af13d15601f3d1160016000511416171691505080610c185760405162461bcd60e51b815260206004820152600f60248201526e1514905394d1915497d19052531151608a1b60448201526064016109df565b600060208083528351808285015260005b818110156114fa578581018301518582016040015282016114de565b506000604082860101526040601f19601f8301168501019250505092915050565b60006020828403121561152d57600080fd5b5035919050565b80356001600160a01b038116811461154b57600080fd5b919050565b6000806040838503121561156357600080fd5b61156c83611534565b946020939093013593505050565b60008060006060848603121561158f57600080fd5b61159884611534565b92506115a660208501611534565b9150604084013590509250925092565b6000602082840312156115c857600080fd5b6107c382611534565b600080604083850312156115e457600080fd5b823591506115f460208401611534565b90509250929050565b60008060006060848603121561161257600080fd5b8335925061162260208501611534565b915061163060408501611534565b90509250925092565b600080600080600080600060e0888a03121561165457600080fd5b61165d88611534565b965061166b60208901611534565b95506040880135945060608801359350608088013560ff8116811461168f57600080fd5b9699959850939692959460a0840135945060c09093013592915050565b600080604083850312156116bf57600080fd5b6116c883611534565b91506115f460208401611534565b6000602082840312156116e857600080fd5b5051919050565b634e487b7160e01b600052601160045260246000fd5b80820180821115610831576108316116ef565b600181811c9082168061172c57607f821691505b60208210810361174c57634e487b7160e01b600052602260045260246000fd5b50919050565b81810381811115610831576108316116ef565b60006020828403121561177757600080fd5b815180151581146107c357600080fd5b8082028115828204841417610831576108316116ef565b6000826117bb57634e487b7160e01b600052601260045260246000fd5b500490565b600080835481600182811c9150808316806117dc57607f831692505b602080841082036117fb57634e487b7160e01b86526022600452602486fd5b81801561180f576001811461182457611851565b60ff1986168952841515850289019650611851565b60008a81526020902060005b868110156118495781548b820152908501908301611830565b505084890196505b50949897505050505050505056feddf252ad1be2c89b69c2b068fc378daa952ba7f163c4a11628f55a4df523b3efa2646970667358221220b904c0047fd17235fc2b3068eb883a67c9a29b9045435594a868df736106711e64736f6c63430008140033",
    "linkReferences": {}
  },
  "methodIdentifiers": {
    "DOMAIN_SEPARATOR()": "3644e515",
    "allowance(address,address)": "dd62ed3e",
    "approve(address,uint256)": "095ea7b3",
    "asset()": "38d52e0f",
    "balanceOf(address)": "70a08231",
    "convertToAssets(uint256)": "07a2d13a",
    "convertToShares(uint256)": "c6e6f592",
    "decimals()": "313ce567",
    "deposit(uint256,address)": "6e553f65",
    "flashLoanSimple(address,uint256)": "74451a9a",
    "getFee()": "ced72f87",
    "maxDeposit(address)": "402d267d",
    "maxMint(address)": "c63d75b6",
    "maxRedeem(address)": "d905777e",
    "maxWithdraw(address)": "ce96cb77",
    "mint(uint256,address)": "94bf804d",
    "name()": "06fdde03",
    "nonces(address)": "7ecebe00",
    "permit(address,address,uint256,uint256,uint8,bytes32,bytes32)": "d505accf",
    "previewDeposit(uint256)": "ef8b30f7",
    "previewMint(uint256)": "b3d7f6b9",
    "previewRedeem(uint256)": "4cdad506",
    "previewWithdraw(uint256)": "0a28a477",
    "redeem(uint256,address,address)": "ba087652",
    "setFee(uint256)": "69fe0e2d",
    "setTotalAssets(uint256)": "1765b313",
    "sweep()": "35faa416",
    "symbol()": "95d89b41",
    "totalAssets()": "01e1d114",
    "totalSupply()": "18160ddd",
    "transfer(address,uint256)": "a9059cbb",
    "transferFrom(address,address,uint256)": "23b872dd",
    "withdraw(uint256,address,address)": "b460af94"
  },
  "id": 20
}