{
  "abi": [
    {
      "inputs": [
        {
          "internalType": "address",
          "name": "_mailbox",
          "type": "address"
        },
        {
          "internalType": "address",
          "name": "_owner",
          "type": "address"
        }
      ],
      "stateMutability": "nonpayable",
      "type": "constructor"
    },
    {
      "inputs": [
        {
          "internalType": "uint32",
          "name": "_origin",
          "type": "uint32"
        },
        {
          "internalType": "bytes32",
          "name": "_sender",
          "type": "bytes32"
        },
        {
          "internalType": "bytes",
          "name": "_body",
          "type": "bytes"
        }
      ],
      "name": "handle",
      "outputs": [],
      "stateMutability": "nonpayable",
      "type": "function"
    },
    {
      "inputs": [],
      "name": "mailbox",
      "outputs": [
        {
          "internalType": "address",
          "name": "",
          "type": "address"
        }
      ],
      "stateMutability": "view",
      "type": "function"
    },
    {
      "inputs": [],
      "name": "owner",
      "outputs": [
        {
          "internalType": "address",
          "name": "",
          "type": "address"
        }
      ],
      "stateMutability": "view",
      "type": "function"
    }
  ],
  "bytecode": {
    "object": "0x608060405234801561001057600080fd5b5060405161050838038061050883398101604081905261002f9161007c565b600180546001600160a01b039384166001600160a01b031991821617909155600080549290931691161790556100af565b80516001600160a01b038116811461007757600080fd5b919050565b6000806040838503121561008f57600080fd5b61009883610060565b91506100a660208401610060565b90509250929050565b61044a806100be6000396000f3fe608060405234801561001057600080fd5b50600436106100415760003560e01c806356d5d475146100465780638da5cb5b1461005b578063d5438eae1461008a575b600080fd5b61005961005436600461028b565b61009d565b005b60005461006e906001600160a01b031681565b6040516001600160a01b03909116815260200160405180910390f35b60015461006e906001600160a01b031681565b6001546001600160a01b031633146100b457600080fd5b60008290506000828060200190518101906100cf9190610361565b80519091506000036100f7576100f281602001518260400151836060015161011e565b610117565b8051600103610117576100f281602001518260400151836060015161020a565b5050505050565b60405163095ea7b360e01b81526001600160a01b0383811660048301526024820185905282169063095ea7b3906044016020604051808303816000875af115801561016d573d6000803e3d6000fd5b505050506040513d601f19601f8201168201806040525081019061019191906103d2565b50604051636e553f6560e01b8152600481018490523060248201526001600160a01b03831690636e553f65906044015b6020604051808303816000875af11580156101e0573d6000803e3d6000fd5b505050506040513d601f19601f8201168201806040525081019061020491906103fb565b50505050565b604051632d182be560e21b815260048101849052306024820181905260448201526001600160a01b0383169063b460af94906064016101c1565b634e487b7160e01b600052604160045260246000fd5b604051601f8201601f1916810167ffffffffffffffff8111828210171561028357610283610244565b604052919050565b6000806000606084860312156102a057600080fd5b833563ffffffff811681146102b457600080fd5b92506020848101359250604085013567ffffffffffffffff808211156102d957600080fd5b818701915087601f8301126102ed57600080fd5b8135818111156102ff576102ff610244565b610311601f8201601f1916850161025a565b9150808252888482850101111561032757600080fd5b80848401858401376000848284010152508093505050509250925092565b80516001600160a01b038116811461035c57600080fd5b919050565b60006080828403121561037357600080fd5b6040516080810181811067ffffffffffffffff8211171561039657610396610244565b806040525082518152602083015160208201526103b560408401610345565b60408201526103c660608401610345565b60608201529392505050565b6000602082840312156103e457600080fd5b815180151581146103f457600080fd5b9392505050565b60006020828403121561040d57600080fd5b505191905056fea26469706673582212203bc6f83e10d0bc53e3c4801cbe8f01e20b32210200e2df5007df5f0489ceee7a64736f6c63430008140033",
    "linkReferences": {}
  },
  "methodIdentifiers": {
    "handle(uint32,bytes32,bytes)": "56d5d475",
    "mailbox()": "d5438eae",
    "owner()": "8da5cb5b"
  },
  "id": 20
}