{
  "abi": [
    {
      "inputs": [
        {
          "internalType": "address",
          "name": "_erc20",
          "type": "address"
        },
        {
          "internalType": "string",
          "name": "_name",
          "type": "string"
        },
        {
          "internalType": "string",
          "name": "_symbol",
          "type": "string"
        }
      ],
      "stateMutability": "nonpayable",
      "type": "constructor"
    },
    {
      "anonymous": false,
      "inputs": [
        {
          "indexed": true,
          "internalType": "address",
          "name": "owner",
          "type": "address"
        },
        {
          "indexed": true,
          "internalType": "address",
          "name": "spender",
          "type": "address"
        },
        {
          "indexed": false,
          "internalType": "uint256",
          "name": "amount",
          "type": "uint256"
        }
      ],
      "name": "Approval",
      "type": "event"
    },
    {
      "anonymous": false,
      "inputs": [
        {
          "indexed": true,
          "internalType": "address",
          "name": "caller",
          "type": "address"
        },
        {
          "indexed": true,
          "internalType": "address",
          "name": "owner",
          "type": "address"
        },
        {
          "indexed": false,
          "internalType": "uint256",
          "name": "assets",
          "type": "uint256"
        },
        {
          "indexed": false,
          "internalType": "uint256",
          "name": "shares",
          "type": "uint256"
        }
      ],
      "name": "Deposit",
      "type": "event"
    },
    {
      "anonymous": false,
      "inputs": [
        {
          "indexed": true,
          "internalType": "address",
          "name": "from",
          "type": "address"
        },
        {
          "indexed": true,
          "internalType": "address",
          "name": "to",
          "type": "address"
        },
        {
          "indexed": false,
          "internalType": "uint256",
          "name": "amount",
          "type": "uint256"
        }
      ],
      "name": "Transfer",
      "type": "event"
    },
    {
      "anonymous": false,
      "inputs": [
        {
          "indexed": true,
          "internalType": "address",
          "name": "caller",
          "type": "address"
        },
        {
          "indexed": true,
          "internalType": "address",
          "name": "receiver",
          "type": "address"
        },
        {
          "indexed": true,
          "internalType": "address",
          "name": "owner",
          "type": "address"
        },
        {
          "indexed": false,
          "internalType": "uint256",
          "name": "assets",
          "type": "uint256"
        },
        {
          "indexed": false,
          "internalType": "uint256",
          "name": "shares",
          "type": "uint256"
        }
      ],
      "name": "Withdraw",
      "type": "event"
    },
    {
      "inputs": [],
      "name": "DOMAIN_SEPARATOR",
      "outputs": [
        {
          "internalType": "bytes32",
          "name": "",
          "type": "bytes32"
        }
      ],
      "stateMutability": "view",
      "type": "function"
    },
    {
      "inputs": [
        {
          "internalType": "address",
          "name": "",
          "type": "address"
        },
        {
          "internalType": "address",
          "name": "",
          "type": "address"
        }
      ],
      "name": "allowance",
      "outputs": [
        {
          "internalType": "uint256",
          "name": "",
          "type": "uint256"
        }
      ],
      "stateMutability": "view",
      "type": "function"
    },
    {
      "inputs": [
        {
          "internalType": "address",
          "name": "spender",
          "type": "address"
        },
        {
          "internalType": "uint256",
          "name": "amount",
          "type": "uint256"
        }
      ],
      "name": "approve",
      "outputs": [
        {
          "internalType": "bool",
          "name": "",
          "type": "bool"
        }
      ],
      "stateMutability": "nonpayable",
      "type": "function"
    },
    {
      "inputs": [],
      "name": "asset",
      "outputs": [
        {
          "internalType": "contract ERC20",
          "name": "",
          "type": "address"
        }
      ],
      "stateMutability": "view",
      "type": "function"
    },
    {
      "inputs": [
        {
          "internalType": "address",
          "name": "",
          "type": "address"
        }
      ],
      "name": "balanceOf",
      "outputs": [
        {
          "internalType": "uint256",
          "name": "",
          "type": "uint256"
        }
      ],
      "stateMutability": "view",
      "type": "function"
    },
    {
      "inputs": [
        {
          "internalType": "uint256",
          "name": "shares",
          "type": "uint256"
        }
      ],
      "name": "convertToAssets",
      "outputs": [
        {
          "internalType": "uint256",
          "name": "",
          "type": "uint256"
        }
      ],
      "stateMutability": "view",
      "type": "function"
    },
    {
      "inputs": [
        {
          "internalType": "uint256",
          "name": "assets",
          "type": "uint256"
        }
      ],
      "name": "convertToShares",
      "outputs": [
        {
          "internalType": "uint256",
          "name": "",
          "type": "uint256"
        }
      ],
      "stateMutability": "view",
      "type": "function"
    },
    {
      "inputs": [],
      "name": "decimals",
      "outputs": [
        {
          "internalType": "uint8",
          "name": "",
          "type": "uint8"
        }
      ],
      "stateMutability": "view",
      "type": "function"
    },
    {
      "inputs": [
        {
          "internalType": "uint256",
          "name": "assets",
          "type": "uint256"
        },
        {
          "internalType": "address",
          "name": "receiver",
          "type": "address"
        }
      ],
      "name": "deposit",
      "outputs": [
        {
          "internalType": "uint256",
          "name": "shares",
          "type": "uint256"
        }
      ],
      "stateMutability": "nonpayable",
      "type": "function"
    },
    {
      "inputs": [
        {
          "internalType": "address",
          "name": "",
          "type": "address"
        }
      ],
      "name": "maxDeposit",
      "outputs": [
        {
          "internalType": "uint256",
          "name": "",
          "type": "uint256"
        }
      ],
      "stateMutability": "view",
      "type": "function"
    },
    {
      "inputs": [
        {
          "internalType": "address",
          "name": "",
          "type": "address"
        }
      ],
      "name": "maxMint",
      "outputs": [
        {
          "internalType": "uint256",
          "name": "",
          "type": "uint256"
        }
      ],
      "stateMutability": "view",
      "type": "function"
    },
    {
      "inputs": [
        {
          "internalType": "address",
          "name": "owner",
          "type": "address"
        }
      ],
      "name": "maxRedeem",
      "outputs": [
        {
          "internalType": "uint256",
          "name": "",
          "type": "uint256"
        }
      ],
      "stateMutability": "view",
      "type": "function"
    },
    {
      "inputs": [
        {
          "internalType": "address",
          "name": "owner",
          "type": "address"
        }
      ],
      "name": "maxWithdraw",
      "outputs": [
        {
          "internalType": "uint256",
          "name": "",
          "type": "uint256"
        }
      ],
      "stateMutability": "view",
      "type": "function"
    },
    {
      "inputs": [
        {
          "internalType": "uint256",
          "name": "shares",
          "type": "uint256"
        },
        {
          "internalType": "address",
          "name": "receiver",
          "type": "address"
        }
      ],
      "name": "mint",
      "outputs": [
        {
          "internalType": "uint256",
          "name": "assets",
          "type": "uint256"
        }
      ],
      "stateMutability": "nonpayable",
      "type": "function"
    },
    {
      "inputs": [],
      "name": "name",
      "outputs": [
        {
          "internalType": "string",
          "name": "",
          "type": "string"
        }
      ],
      "stateMutability": "view",
      "type": "function"
    },
    {
      "inputs": [
        {
          "internalType": "address",
          "name": "",
          "type": "address"
        }
      ],
      "name": "nonces",
      "outputs": [
        {
          "internalType": "uint256",
          "name": "",
          "type": "uint256"
        }
      ],
      "stateMutability": "view",
      "type": "function"
    },
    {
      "inputs": [
        {
          "internalType": "address",
          "name": "owner",
          "type": "address"
        },
        {
          "internalType": "address",
          "name": "spender",
          "type": "address"
        },
        {
          "internalType": "uint256",
          "name": "value",
          "type": "uint256"
        },
        {
          "internalType": "uint256",
          "name": "deadline",
          "type": "uint256"
        },
        {
          "internalType": "uint8",
          "name": "v",
          "type": "uint8"
        },
        {
          "internalType": "bytes32",
          "name": "r",
          "type": "bytes32"
        },
        {
          "internalType": "bytes32",
          "name": "s",
          "type": "bytes32"
        }
      ],
      "name": "permit",
      "outputs": [],
      "stateMutability": "nonpayable",
      "type": "function"
    },
    {
      "inputs": [
        {
          "internalType": "uint256",
          "name": "assets",
          "type": "uint256"
        }
      ],
      "name": "previewDeposit",
      "outputs": [
        {
          "internalType": "uint256",
          "name": "",
          "type": "uint256"
        }
      ],
      "stateMutability": "view",
      "type": "function"
    },
    {
      "inputs": [
        {
          "internalType": "uint256",
          "name": "shares",
          "type": "uint256"
        }
      ],
      "name": "previewMint",
      "outputs": [
        {
          "internalType": "uint256",
          "name": "",
          "type": "uint256"
        }
      ],
      "stateMutability": "view",
      "type": "function"
    },
    {
      "inputs": [
        {
          "internalType": "uint256",
          "name": "shares",
          "type": "uint256"
        }
      ],
      "name": "previewRedeem",
      "outputs": [
        {
          "internalType": "uint256",
          "name": "",
          "type": "uint256"
        }
      ],
      "stateMutability": "view",
      "type": "function"
    },
    {
      "inputs": [
        {
          "internalType": "uint256",
          "name": "assets",
          "type": "uint256"
        }
      ],
      "name": "previewWithdraw",
      "outputs": [
        {
          "internalType": "uint256",
          "name": "",
          "type": "uint256"
        }
      ],
      "stateMutability": "view",
      "type": "function"
    },
    {
      "inputs": [
        {
          "internalType": "uint256",
          "name": "shares",
          "type": "uint256"
        },
        {
          "internalType": "address",
          "name": "receiver",
          "type": "address"
        },
        {
          "internalType": "address",
          "name": "owner",
          "type": "address"
        }
      ],
      "name": "redeem",
      "outputs": [
        {
          "internalType": "uint256",
          "name": "assets",
          "type": "uint256"
        }
      ],
      "stateMutability": "nonpayable",
      "type": "function"
    },
    {
      "inputs": [
        {
          "internalType": "uint256",
          "name": "_totalAssets",
          "type": "uint256"
        }
      ],
      "name": "setTotalAssets",
      "outputs": [],
      "stateMutability": "nonpayable",
      "type": "function"
    },
    {
      "inputs": [],
      "name": "sweep",
      "outputs": [],
      "stateMutability": "nonpayable",
      "type": "function"
    },
    {
      "inputs": [],
      "name": "symbol",
      "outputs": [
        {
          "internalType": "string",
          "name": "",
          "type": "string"
        }
      ],
      "stateMutability": "view",
      "type": "function"
    },
    {
      "inputs": [],
      "name": "totalAssets",
      "outputs": [
        {
          "internalType": "uint256",
          "name": "",
          "type": "uint256"
        }
      ],
      "stateMutability": "view",
      "type": "function"
    },
    {
      "inputs": [],
      "name": "totalSupply",
      "outputs": [
        {
          "internalType": "uint256",
          "name": "",
          "type": "uint256"
        }
      ],
      "stateMutability": "view",
      "type": "function"
    },
    {
      "inputs": [
        {
          "internalType": "address",
          "name": "to",
          "type": "address"
        },
        {
          "internalType": "uint256",
          "name": "amount",
          "type": "uint256"
        }
      ],
      "name": "transfer",
      "outputs": [
        {
          "internalType": "bool",
          "name": "",
          "type": "bool"
        }
      ],
      "stateMutability": "nonpayable",
      "type": "function"
    },
    {
      "inputs": [
        {
          "internalType": "address",
          "name": "from",
          "type": "address"
        },
        {
          "internalType": "address",
          "name": "to",
          "type": "address"
        },
        {
          "internalType": "uint256",
          "name": "amount",
          "type": "uint256"
        }
      ],
      "name": "transferFrom",
      "outputs": [
        {
          "internalType": "bool",
          "name": "",
          "type": "bool"
        }
      ],
      "stateMutability": "nonpayable",
      "type": "function"
    },
    {
      "inputs": [
        {
          "internalType": "uint256",
          "name": "assets",
          "type": "uint256"
        },
        {
          "internalType": "address",
          "name": "receiver",
          "type": "address"
        },
        {
          "internalType": "address",
          "name": "owner",
          "type": "address"
        }
      ],
      "name": "withdraw",
      "outputs": [
        {
          "internalType": "uint256",
          "name": "shares",
          "type": "uint256"
        }
      ],
      "stateMutability": "nonpayable",
      "type": "function"
    },
    {
      "stateMutability": "payable",
      "type": "receive"
    }
  ],
  "bytecode": {
    "object": "0x6101006040523480156200001257600080fd5b5060405162001b9638038062001b9683398101604081905262000035916200026b565b8282828181846001600160a01b031663313ce5676040518163ffffffff1660e01b8152600401602060405180830381865afa15801562000079573d6000803e3d6000fd5b505050506040513d601f19601f820116820180604052508101906200009f9190620002f5565b6000620000ad8482620003b0565b506001620000bc8382620003b0565b5060ff81166080524660a052620000d26200010a565b60c052505050506001600160a01b0391821660e05250600680546001600160a01b031916949091169390931790925550620004fa9050565b60007f8b73c3c69bb8fe3d512ecc4cf759cc79239f7b179b0ffacaa9a75d522b39400f60006040516200013e91906200047c565b6040805191829003822060208301939093528101919091527fc89efdaa54c0f20c7adf612882df0950f5a951637e0307cdcb4c672f298b8bc660608201524660808201523060a082015260c00160405160208183030381529060405280519060200120905090565b634e487b7160e01b600052604160045260246000fd5b600082601f830112620001ce57600080fd5b81516001600160401b0380821115620001eb57620001eb620001a6565b604051601f8301601f19908116603f01168101908282118183101715620002165762000216620001a6565b816040528381526020925086838588010111156200023357600080fd5b600091505b8382101562000257578582018301518183018401529082019062000238565b600093810190920192909252949350505050565b6000806000606084860312156200028157600080fd5b83516001600160a01b03811681146200029957600080fd5b60208501519093506001600160401b0380821115620002b757600080fd5b620002c587838801620001bc565b93506040860151915080821115620002dc57600080fd5b50620002eb86828701620001bc565b9150509250925092565b6000602082840312156200030857600080fd5b815160ff811681146200031a57600080fd5b9392505050565b600181811c908216806200033657607f821691505b6020821081036200035757634e487b7160e01b600052602260045260246000fd5b50919050565b601f821115620003ab57600081815260208120601f850160051c81016020861015620003865750805b601f850160051c820191505b81811015620003a75782815560010162000392565b5050505b505050565b81516001600160401b03811115620003cc57620003cc620001a6565b620003e481620003dd845462000321565b846200035d565b602080601f8311600181146200041c5760008415620004035750858301515b600019600386901b1c1916600185901b178555620003a7565b600085815260208120601f198616915b828110156200044d578886015182559484019460019091019084016200042c565b50858210156200046c5787850151600019600388901b60f8161c191681555b5050505050600190811b01905550565b60008083546200048c8162000321565b60018281168015620004a75760018114620004bd57620004ee565b60ff1984168752821515830287019450620004ee565b8760005260208060002060005b85811015620004e55781548a820152908401908201620004ca565b50505082870194505b50929695505050505050565b60805160a05160c05160e05161163f6200055760003960008181610366015281816106170152818161097f01528181610a1701528181610bfb0152610d3d015260006108f5015260006108c5015260006102ff015261163f6000f3fe6080604052600436106101d15760003560e01c806370a08231116100f7578063ba08765211610095578063d505accf11610064578063d505accf14610551578063d905777e14610571578063dd62ed3e146105a7578063ef8b30f7146105df57600080fd5b8063ba087652146104f1578063c63d75b6146103a0578063c6e6f59214610511578063ce96cb771461053157600080fd5b806395d89b41116100d157806395d89b411461047c578063a9059cbb14610491578063b3d7f6b9146104b1578063b460af94146104d157600080fd5b806370a08231146104025780637ecebe001461042f57806394bf804d1461045c57600080fd5b806323b872dd1161016f57806338d52e0f1161013e57806338d52e0f14610354578063402d267d146103a05780634cdad506146103c25780636e553f65146103e257600080fd5b806323b872dd146102cd578063313ce567146102ed57806335faa416146103335780633644e5151461033f57600080fd5b8063095ea7b3116101ab578063095ea7b3146102475780630a28a477146102775780631765b3131461029757806318160ddd146102b757600080fd5b806301e1d114146101dd57806306fdde031461020557806307a2d13a1461022757600080fd5b366101d857005b600080fd5b3480156101e957600080fd5b506101f26105ff565b6040519081526020015b60405180910390f35b34801561021157600080fd5b5061021a610699565b6040516101fc91906112b2565b34801561023357600080fd5b506101f2610242366004611300565b610727565b34801561025357600080fd5b50610267610262366004611335565b610754565b60405190151581526020016101fc565b34801561028357600080fd5b506101f2610292366004611300565b6107c1565b3480156102a357600080fd5b506102b56102b2366004611300565b50565b005b3480156102c357600080fd5b506101f260025481565b3480156102d957600080fd5b506102676102e836600461135f565b6107e1565b3480156102f957600080fd5b506103217f000000000000000000000000000000000000000000000000000000000000000081565b60405160ff90911681526020016101fc565b3480156102b557600080fd5b34801561034b57600080fd5b506101f26108c1565b34801561036057600080fd5b506103887f000000000000000000000000000000000000000000000000000000000000000081565b6040516001600160a01b0390911681526020016101fc565b3480156103ac57600080fd5b506101f26103bb36600461139b565b5060001990565b3480156103ce57600080fd5b506101f26103dd366004611300565b610917565b3480156103ee57600080fd5b506101f26103fd3660046113b6565b610922565b34801561040e57600080fd5b506101f261041d36600461139b565b60036020526000908152604090205481565b34801561043b57600080fd5b506101f261044a36600461139b565b60056020526000908152604090205481565b34801561046857600080fd5b506101f26104773660046113b6565b6109fd565b34801561048857600080fd5b5061021a610a8c565b34801561049d57600080fd5b506102676104ac366004611335565b610a99565b3480156104bd57600080fd5b506101f26104cc366004611300565b610aff565b3480156104dd57600080fd5b506101f26104ec3660046113e2565b610b1e565b3480156104fd57600080fd5b506101f261050c3660046113e2565b610c22565b34801561051d57600080fd5b506101f261052c366004611300565b610d64565b34801561053d57600080fd5b506101f261054c36600461139b565b610d84565b34801561055d57600080fd5b506102b561056c36600461141e565b610da6565b34801561057d57600080fd5b506101f261058c36600461139b565b6001600160a01b031660009081526003602052604090205490565b3480156105b357600080fd5b506101f26105c2366004611491565b600460209081526000928352604080842090915290825290205481565b3480156105eb57600080fd5b506101f26105fa366004611300565b610fea565b6040516370a0823160e01b81523060048201526000907f00000000000000000000000000000000000000000000000000000000000000006001600160a01b0316906370a0823190602401602060405180830381865afa158015610666573d6000803e3d6000fd5b505050506040513d601f19601f8201168201806040525081019061068a91906114bb565b61069490476114ea565b905090565b600080546106a6906114fd565b80601f01602080910402602001604051908101604052809291908181526020018280546106d2906114fd565b801561071f5780601f106106f45761010080835404028352916020019161071f565b820191906000526020600020905b81548152906001019060200180831161070257829003601f168201915b505050505081565b600254600090801561074b5761074661073e6105ff565b849083610ff5565b61074d565b825b9392505050565b3360008181526004602090815260408083206001600160a01b038716808552925280832085905551919290917f8c5be1e5ebec7d5bd14f71427d1e84f3dd0314c0f7b2291e5b200ac8c7c3b925906107af9086815260200190565b60405180910390a35060015b92915050565b600254600090801561074b57610746816107d96105ff565b859190611013565b6001600160a01b0383166000908152600460209081526040808320338452909152812054600019811461083d576108188382611537565b6001600160a01b03861660009081526004602090815260408083203384529091529020555b6001600160a01b03851660009081526003602052604081208054859290610865908490611537565b90915550506001600160a01b03808516600081815260036020526040908190208054870190555190918716906000805160206115ea833981519152906108ae9087815260200190565b60405180910390a3506001949350505050565b60007f000000000000000000000000000000000000000000000000000000000000000046146108f257610694611039565b507f000000000000000000000000000000000000000000000000000000000000000090565b60006107bb82610727565b600061092d83610fea565b9050806000036109725760405162461bcd60e51b815260206004820152600b60248201526a5a45524f5f53484152455360a81b60448201526064015b60405180910390fd5b6109a76001600160a01b037f0000000000000000000000000000000000000000000000000000000000000000163330866110d3565b6109b1828261116f565b60408051848152602081018390526001600160a01b0384169133917fdcbc1c05240f31ff3ad067ef1ee35ce4997762752e3a095284754544f4c709d791015b60405180910390a36107bb565b6000610a0883610aff565b9050610a3f6001600160a01b037f0000000000000000000000000000000000000000000000000000000000000000163330846110d3565b610a49828461116f565b60408051828152602081018590526001600160a01b0384169133917fdcbc1c05240f31ff3ad067ef1ee35ce4997762752e3a095284754544f4c709d791016109f0565b600180546106a6906114fd565b33600090815260036020526040812080548391908390610aba908490611537565b90915550506001600160a01b038316600081815260036020526040908190208054850190555133906000805160206115ea833981519152906107af9086815260200190565b600254600090801561074b57610746610b166105ff565b849083611013565b6000610b29846107c1565b9050336001600160a01b03831614610b99576001600160a01b03821660009081526004602090815260408083203384529091529020546000198114610b9757610b728282611537565b6001600160a01b03841660009081526004602090815260408083203384529091529020555b505b610ba382826111c9565b60408051858152602081018390526001600160a01b03808516929086169133917ffbde797d201c681b91056529119e0b02407c7bb96a4a2c75c01fc9667232c8db910160405180910390a461074d6001600160a01b037f000000000000000000000000000000000000000000000000000000000000000016848661122b565b6000336001600160a01b03831614610c92576001600160a01b03821660009081526004602090815260408083203384529091529020546000198114610c9057610c6b8582611537565b6001600160a01b03841660009081526004602090815260408083203384529091529020555b505b610c9b84610917565b905080600003610cdb5760405162461bcd60e51b815260206004820152600b60248201526a5a45524f5f41535345545360a81b6044820152606401610969565b610ce582856111c9565b60408051828152602081018690526001600160a01b03808516929086169133917ffbde797d201c681b91056529119e0b02407c7bb96a4a2c75c01fc9667232c8db910160405180910390a461074d6001600160a01b037f000000000000000000000000000000000000000000000000000000000000000016848361122b565b600254600090801561074b5761074681610d7c6105ff565b859190610ff5565b6001600160a01b0381166000908152600360205260408120546107bb90610727565b42841015610df65760405162461bcd60e51b815260206004820152601760248201527f5045524d49545f444541444c494e455f455850495245440000000000000000006044820152606401610969565b60006001610e026108c1565b6001600160a01b038a811660008181526005602090815260409182902080546001810190915582517f6e71edae12b1b97f4d1f60370fef10105fa2faae0126114a169c64845d6126c98184015280840194909452938d166060840152608083018c905260a083019390935260c08083018b90528151808403909101815260e08301909152805192019190912061190160f01b6101008301526101028201929092526101228101919091526101420160408051601f198184030181528282528051602091820120600084529083018083525260ff871690820152606081018590526080810184905260a0016020604051602081039080840390855afa158015610f0e573d6000803e3d6000fd5b5050604051601f1901519150506001600160a01b03811615801590610f445750876001600160a01b0316816001600160a01b0316145b610f815760405162461bcd60e51b815260206004820152600e60248201526d24a72b20a624a22fa9a4a3a722a960911b6044820152606401610969565b6001600160a01b0390811660009081526004602090815260408083208a8516808552908352928190208990555188815291928a16917f8c5be1e5ebec7d5bd14f71427d1e84f3dd0314c0f7b2291e5b200ac8c7c3b925910160405180910390a350505050505050565b60006107bb82610d64565b600082600019048411830215820261100c57600080fd5b5091020490565b600082600019048411830215820261102a57600080fd5b50910281810615159190040190565b60007f8b73c3c69bb8fe3d512ecc4cf759cc79239f7b179b0ffacaa9a75d522b39400f600060405161106b919061154a565b6040805191829003822060208301939093528101919091527fc89efdaa54c0f20c7adf612882df0950f5a951637e0307cdcb4c672f298b8bc660608201524660808201523060a082015260c00160405160208183030381529060405280519060200120905090565b60006040516323b872dd60e01b81526001600160a01b03851660048201526001600160a01b03841660248201528260448201526020600060648360008a5af13d15601f3d11600160005114161716915050806111685760405162461bcd60e51b81526020600482015260146024820152731514905394d1915497d19493d357d1905253115160621b6044820152606401610969565b5050505050565b806002600082825461118191906114ea565b90915550506001600160a01b0382166000818152600360209081526040808320805486019055518481526000805160206115ea83398151915291015b60405180910390a35050565b6001600160a01b038216600090815260036020526040812080548392906111f1908490611537565b90915550506002805482900390556040518181526000906001600160a01b038416906000805160206115ea833981519152906020016111bd565b600060405163a9059cbb60e01b81526001600160a01b0384166004820152826024820152602060006044836000895af13d15601f3d11600160005114161716915050806112ac5760405162461bcd60e51b815260206004820152600f60248201526e1514905394d1915497d19052531151608a1b6044820152606401610969565b50505050565b600060208083528351808285015260005b818110156112df578581018301518582016040015282016112c3565b506000604082860101526040601f19601f8301168501019250505092915050565b60006020828403121561131257600080fd5b5035919050565b80356001600160a01b038116811461133057600080fd5b919050565b6000806040838503121561134857600080fd5b61135183611319565b946020939093013593505050565b60008060006060848603121561137457600080fd5b61137d84611319565b925061138b60208501611319565b9150604084013590509250925092565b6000602082840312156113ad57600080fd5b61074d82611319565b600080604083850312156113c957600080fd5b823591506113d960208401611319565b90509250929050565b6000806000606084860312156113f757600080fd5b8335925061140760208501611319565b915061141560408501611319565b90509250925092565b600080600080600080600060e0888a03121561143957600080fd5b61144288611319565b965061145060208901611319565b95506040880135945060608801359350608088013560ff8116811461147457600080fd5b9699959850939692959460a0840135945060c09093013592915050565b600080604083850312156114a457600080fd5b6114ad83611319565b91506113d960208401611319565b6000602082840312156114cd57600080fd5b5051919050565b634e487b7160e01b600052601160045260246000fd5b808201808211156107bb576107bb6114d4565b600181811c9082168061151157607f821691505b60208210810361153157634e487b7160e01b600052602260045260246000fd5b50919050565b818103818111156107bb576107bb6114d4565b600080835481600182811c91508083168061156657607f831692505b6020808410820361158557634e487b7160e01b86526022600452602486fd5b81801561159957600181146115ae576115db565b60ff19861689528415158502890196506115db565b60008a81526020902060005b868110156115d35781548b8201529085019083016115ba565b505084890196505b50949897505050505050505056feddf252ad1be2c89b69c2b068fc378daa952ba7f163c4a11628f55a4df523b3efa2646970667358221220d87b7961f1456caa04350e5b5ec01dd20f11ed436b263c8254c568edb1cbd83264736f6c63430008140033",
    "linkReferences": {}
  },
  "methodIdentifiers": {
    "DOMAIN_SEPARATOR()": "3644e515",
    "allowance(address,address)": "dd62ed3e",
    "approve(address,uint256)": "095ea7b3",
    "asset()": "38d52e0f",
    "balanceOf(address)": "70a08231",
    "convertToAssets(uint256)": "07a2d13a",
    "convertToShares(uint256)": "c6e6f592",
    "decimals()": "313ce567",
    "deposit(uint256,address)": "6e553f65",
    "maxDeposit(address)": "402d267d",
    "maxMint(address)": "c63d75b6",
    "maxRedeem(address)": "d905777e",
    "maxWithdraw(address)": "ce96cb77",
    "mint(uint256,address)": "94bf804d",
    "name()": "06fdde03",
    "nonces(address)": "7ecebe00",
    "permit(address,address,uint256,uint256,uint8,bytes32,bytes32)": "d505accf",
    "previewDeposit(uint256)": "ef8b30f7",
    "previewMint(uint256)": "b3d7f6b9",
    "previewRedeem(uint256)": "4cdad506",
    "previewWithdraw(uint256)": "0a28a477",
    "redeem(uint256,address,address)": "ba087652",
    "setTotalAssets(uint256)": "1765b313",
    "sweep()": "35faa416",
    "symbol()": "95d89b41",
    "totalAssets()": "01e1d114",
    "totalSupply()": "18160ddd",
    "transfer(address,uint256)": "a9059cbb",
    "transferFrom(address,address,uint256)": "23b872dd",
    "withdraw(uint256,address,address)": "b460af94"
  },
  "id": 4
}