{
  "_format": "hh-sol-artifact-1",
  "contractName": "ProjectFactory",
  "sourceName": "contracts/ProjectFactory.sol",
  "abi": [
    {
      "inputs": [],
      "name": "createContractProject",
      "outputs": [],
      "stateMutability": "nonpayable",
      "type": "function"
    },
    {
      "inputs": [
        {
          "internalType": "uint256",
          "name": "",
          "type": "uint256"
        }
      ],
      "name": "deployedContracts",
      "outputs": [
        {
          "internalType": "address",
          "name": "",
          "type": "address"
        }
      ],
      "stateMutability": "view",
      "type": "function"
    },
    {
      "inputs": [],
      "name": "getDeployedContracts",
      "outputs": [
        {
          "internalType": "address[]",
          "name": "",
          "type": "address[]"
        }
      ],
      "stateMutability": "view",
      "type": "function"
    }
  ],
  "bytecode": "0x608060405234801561000f575f80fd5b5061097b8061001d5f395ff3fe608060405234801561000f575f80fd5b506004361061003f575f3560e01c80635064e065146100435780639ad1ee101461004d578063aa9a068f1461007d575b5f80fd5b61004b61009b565b005b61006760048036038101906100629190610239565b610131565b60405161007491906102a3565b60405180910390f35b61008561016b565b6040516100929190610373565b60405180910390f35b5f336040516100a9906101f5565b6100b391906102a3565b604051809103905ff0801580156100cc573d5f803e3d5ffd5b5090505f81908060018154018082558091505060019003905f5260205f20015f9091909190916101000a81548173ffffffffffffffffffffffffffffffffffffffff021916908373ffffffffffffffffffffffffffffffffffffffff16021790555050565b5f818154811061013f575f80fd5b905f5260205f20015f915054906101000a900473ffffffffffffffffffffffffffffffffffffffff1681565b60605f8054806020026020016040519081016040528092919081815260200182805480156101eb57602002820191905f5260205f20905b815f9054906101000a900473ffffffffffffffffffffffffffffffffffffffff1673ffffffffffffffffffffffffffffffffffffffff16815260200190600101908083116101a2575b5050505050905090565b6105b28061039483390190565b5f80fd5b5f819050919050565b61021881610206565b8114610222575f80fd5b50565b5f813590506102338161020f565b92915050565b5f6020828403121561024e5761024d610202565b5b5f61025b84828501610225565b91505092915050565b5f73ffffffffffffffffffffffffffffffffffffffff82169050919050565b5f61028d82610264565b9050919050565b61029d81610283565b82525050565b5f6020820190506102b65f830184610294565b92915050565b5f81519050919050565b5f82825260208201905092915050565b5f819050602082019050919050565b6102ee81610283565b82525050565b5f6102ff83836102e5565b60208301905092915050565b5f602082019050919050565b5f610321826102bc565b61032b81856102c6565b9350610336836102d6565b805f5b8381101561036657815161034d88826102f4565b97506103588361030b565b925050600181019050610339565b5085935050505092915050565b5f6020820190508181035f83015261038b8184610317565b90509291505056fe608060405234801561000f575f80fd5b506040516105b23803806105b2833981810160405281019061003191906101d7565b805f73ffffffffffffffffffffffffffffffffffffffff168173ffffffffffffffffffffffffffffffffffffffff16036100a2575f6040517f1e4fbdf70000000000000000000000000000000000000000000000000000000081526004016100999190610211565b60405180910390fd5b6100b1816100b860201b60201c565b505061022a565b5f805f9054906101000a900473ffffffffffffffffffffffffffffffffffffffff169050815f806101000a81548173ffffffffffffffffffffffffffffffffffffffff021916908373ffffffffffffffffffffffffffffffffffffffff1602179055508173ffffffffffffffffffffffffffffffffffffffff168173ffffffffffffffffffffffffffffffffffffffff167f8be0079c531659141344cd1fd0a4f28419497f9722a3daafe3b4186f6b6457e060405160405180910390a35050565b5f80fd5b5f73ffffffffffffffffffffffffffffffffffffffff82169050919050565b5f6101a68261017d565b9050919050565b6101b68161019c565b81146101c0575f80fd5b50565b5f815190506101d1816101ad565b92915050565b5f602082840312156101ec576101eb610179565b5b5f6101f9848285016101c3565b91505092915050565b61020b8161019c565b82525050565b5f6020820190506102245f830184610202565b92915050565b61037b806102375f395ff3fe608060405234801561000f575f80fd5b506004361061003f575f3560e01c8063715018a6146100435780638da5cb5b1461004d578063f2fde38b1461006b575b5f80fd5b61004b610087565b005b61005561009a565b60405161006291906102d3565b60405180910390f35b6100856004803603810190610080919061031a565b6100c1565b005b61008f610145565b6100985f6101cc565b565b5f805f9054906101000a900473ffffffffffffffffffffffffffffffffffffffff16905090565b6100c9610145565b5f73ffffffffffffffffffffffffffffffffffffffff168173ffffffffffffffffffffffffffffffffffffffff1603610139575f6040517f1e4fbdf700000000000000000000000000000000000000000000000000000000815260040161013091906102d3565b60405180910390fd5b610142816101cc565b50565b61014d61028d565b73ffffffffffffffffffffffffffffffffffffffff1661016b61009a565b73ffffffffffffffffffffffffffffffffffffffff16146101ca5761018e61028d565b6040517f118cdaa70000000000000000000000000000000000000000000000000000000081526004016101c191906102d3565b60405180910390fd5b565b5f805f9054906101000a900473ffffffffffffffffffffffffffffffffffffffff169050815f806101000a81548173ffffffffffffffffffffffffffffffffffffffff021916908373ffffffffffffffffffffffffffffffffffffffff1602179055508173ffffffffffffffffffffffffffffffffffffffff168173ffffffffffffffffffffffffffffffffffffffff167f8be0079c531659141344cd1fd0a4f28419497f9722a3daafe3b4186f6b6457e060405160405180910390a35050565b5f33905090565b5f73ffffffffffffffffffffffffffffffffffffffff82169050919050565b5f6102bd82610294565b9050919050565b6102cd816102b3565b82525050565b5f6020820190506102e65f8301846102c4565b92915050565b5f80fd5b6102f9816102b3565b8114610303575f80fd5b50565b5f81359050610314816102f0565b92915050565b5f6020828403121561032f5761032e6102ec565b5b5f61033c84828501610306565b9150509291505056fea264697066735822122000d9bd0ab8d42b82de14aaa544ef9f86ce226453aae94ce3501d3ada47d417dc64736f6c63430008140033a2646970667358221220a6f132e599ca31a7f961453c73036f67dd1bfdf9bce663cc2545ccf90666410d64736f6c63430008140033",
  "linkReferences": {},
  "deployedLinkReferences": {}
}