{
  "abi": [
    {
      "inputs": [
        {
          "internalType": "contract IPoolManager",
          "name": "_manager",
          "type": "address"
        }
      ],
      "stateMutability": "nonpayable",
      "type": "constructor"
    },
    {
      "inputs": [],
      "name": "ERC20TransferFailed",
      "type": "error"
    },
    {
      "inputs": [],
      "name": "NativeTransferFailed",
      "type": "error"
    },
    {
      "inputs": [
        {
          "internalType": "bytes",
          "name": "rawData",
          "type": "bytes"
        }
      ],
      "name": "lockAcquired",
      "outputs": [
        {
          "internalType": "bytes",
          "name": "",
          "type": "bytes"
        }
      ],
      "stateMutability": "nonpayable",
      "type": "function"
    },
    {
      "inputs": [],
      "name": "manager",
      "outputs": [
        {
          "internalType": "contract IPoolManager",
          "name": "",
          "type": "address"
        }
      ],
      "stateMutability": "view",
      "type": "function"
    },
    {
      "inputs": [
        {
          "components": [
            {
              "internalType": "Currency",
              "name": "currency0",
              "type": "address"
            },
            {
              "internalType": "Currency",
              "name": "currency1",
              "type": "address"
            },
            {
              "internalType": "uint24",
              "name": "fee",
              "type": "uint24"
            },
            {
              "internalType": "int24",
              "name": "tickSpacing",
              "type": "int24"
            },
            {
              "internalType": "contract IHooks",
              "name": "hooks",
              "type": "address"
            }
          ],
          "internalType": "struct PoolKey",
          "name": "key",
          "type": "tuple"
        },
        {
          "components": [
            {
              "internalType": "int24",
              "name": "tickLower",
              "type": "int24"
            },
            {
              "internalType": "int24",
              "name": "tickUpper",
              "type": "int24"
            },
            {
              "internalType": "int256",
              "name": "liquidityDelta",
              "type": "int256"
            }
          ],
          "internalType": "struct IPoolManager.ModifyPositionParams",
          "name": "params",
          "type": "tuple"
        },
        {
          "internalType": "bytes",
          "name": "hookData",
          "type": "bytes"
        }
      ],
      "name": "modifyPosition",
      "outputs": [
        {
          "internalType": "BalanceDelta",
          "name": "delta",
          "type": "int256"
        }
      ],
      "stateMutability": "payable",
      "type": "function"
    }
  ],
  "bytecode": {
    "object": "0x60a060405234801561001057600080fd5b5060405161103138038061103183398101604081905261002f91610040565b6001600160a01b0316608052610070565b60006020828403121561005257600080fd5b81516001600160a01b038116811461006957600080fd5b9392505050565b608051610f5b6100d660003960008181604b0152818160dc015281816101f201528181610230015281816102f9015281816103d1015281816104810152818161053a015281816105d8015281816106870152818161071f01526107c20152610f5b6000f3fe6080604052600436106100345760003560e01c8063481c6a751461003957806361ae449a1461008a578063ab6291fe146100ab575b600080fd5b34801561004557600080fd5b5061006d7f000000000000000000000000000000000000000000000000000000000000000081565b6040516001600160a01b0390911681526020015b60405180910390f35b61009d610098366004610b0e565b6100d8565b604051908152602001610081565b3480156100b757600080fd5b506100cb6100c6366004610b70565b6101e5565b6040516100819190610c32565b60007f00000000000000000000000000000000000000000000000000000000000000006001600160a01b031663815483196040518060800160405280336001600160a01b03168152602001878152602001868152602001858152506040516020016101439190610c8f565b6040516020818303038152906040526040518263ffffffff1660e01b815260040161016e9190610c32565b6000604051808303816000875af115801561018d573d6000803e3d6000fd5b505050506040513d6000823e601f3d908101601f191682016040526101b59190810190610d00565b8060200190518101906101c89190610d77565b90504780156101dd576101dd60003383610870565b509392505050565b6060336001600160a01b037f0000000000000000000000000000000000000000000000000000000000000000161461021c57600080fd5b600061022a83850185610d90565b905060007f00000000000000000000000000000000000000000000000000000000000000006001600160a01b03166361ae449a8360200151846040015185606001516040518463ffffffff1660e01b815260040161028a93929190610e4c565b6020604051808303816000875af11580156102a9573d6000803e3d6000fd5b505050506040513d601f19601f820116820180604052508101906102cd9190610d77565b905060006102db8260801c90565b600f0b13156104f2576020820151516001600160a01b03166103b3577f00000000000000000000000000000000000000000000000000000000000000006001600160a01b0316636a256b296103308360801c90565b6020850151516040516001600160e01b031960e085901b1681526001600160a01b0390911660048201526001600160801b03919091169060240160206040518083038185885af1158015610388573d6000803e3d6000fd5b50505050506040513d601f19601f820116820180604052508101906103ad9190610d77565b506104f2565b8160200151600001516001600160a01b03166323b872dd83600001517f00000000000000000000000000000000000000000000000000000000000000006103fa8560801c90565b6040518463ffffffff1660e01b815260040161041893929190610e9a565b6020604051808303816000875af1158015610437573d6000803e3d6000fd5b505050506040513d601f19601f8201168201806040525081019061045b9190610ec6565b50602082015151604051636a256b2960e01b81526001600160a01b0391821660048201527f000000000000000000000000000000000000000000000000000000000000000090911690636a256b29906024016020604051808303816000875af11580156104cc573d6000803e3d6000fd5b505050506040513d601f19601f820116820180604052508101906104f09190610d77565b505b600081600f0b13156106f85760208083015101516001600160a01b03166105ba576020808301510151604051636a256b2960e01b81526001600160a01b0391821660048201527f000000000000000000000000000000000000000000000000000000000000000090911690636a256b29906001600160801b0384169060240160206040518083038185885af115801561058f573d6000803e3d6000fd5b50505050506040513d601f19601f820116820180604052508101906105b49190610d77565b506106f8565b8160200151602001516001600160a01b03166323b872dd83600001517f00000000000000000000000000000000000000000000000000000000000000006105fe8590565b6040518463ffffffff1660e01b815260040161061c93929190610e9a565b6020604051808303816000875af115801561063b573d6000803e3d6000fd5b505050506040513d601f19601f8201168201806040525081019061065f9190610ec6565b506020828101510151604051636a256b2960e01b81526001600160a01b0391821660048201527f000000000000000000000000000000000000000000000000000000000000000090911690636a256b29906024016020604051808303816000875af11580156106d2573d6000803e3d6000fd5b505050506040513d601f19601f820116820180604052508101906106f69190610d77565b505b60006107048260801c90565b600f0b12156107aa5760208201515182516001600160a01b037f00000000000000000000000000000000000000000000000000000000000000001691630b0d9c09916107508560801c90565b61075990610ee8565b6040518463ffffffff1660e01b815260040161077793929190610e9a565b600060405180830381600087803b15801561079157600080fd5b505af11580156107a5573d6000803e3d6000fd5b505050505b600081600f0b121561084b57602082810151015182517f00000000000000000000000000000000000000000000000000000000000000006001600160a01b031691630b0d9c09916107fa85610ee8565b6040518463ffffffff1660e01b815260040161081893929190610e9a565b600060405180830381600087803b15801561083257600080fd5b505af1158015610846573d6000803e3d6000fd5b505050505b6040805160208101839052016040516020818303038152906040529250505092915050565b60006001600160a01b0384166108af5760008060008085875af19050806108aa57604051633d2cec6f60e21b815260040160405180910390fd5b61090a565b60405163a9059cbb60e01b6000528360045282602452602060006044600080895af13d15601f3d116001600051141617169150600060605280604052508061090a57604051633c9fd93960e21b815260040160405180910390fd5b50505050565b634e487b7160e01b600052604160045260246000fd5b604051601f8201601f1916810167ffffffffffffffff8111828210171561094f5761094f610910565b604052919050565b6001600160a01b038116811461096c57600080fd5b50565b8035600281900b811461098157600080fd5b919050565b600060a0828403121561099857600080fd5b60405160a0810181811067ffffffffffffffff821117156109bb576109bb610910565b60405290508082356109cc81610957565b815260208301356109dc81610957565b6020820152604083013562ffffff811681146109f757600080fd5b6040820152610a086060840161096f565b60608201526080830135610a1b81610957565b6080919091015292915050565b600060608284031215610a3a57600080fd5b6040516060810181811067ffffffffffffffff82111715610a5d57610a5d610910565b604052905080610a6c8361096f565b8152610a7a6020840161096f565b6020820152604083013560408201525092915050565b600067ffffffffffffffff821115610aaa57610aaa610910565b50601f01601f191660200190565b600082601f830112610ac957600080fd5b8135610adc610ad782610a90565b610926565b818152846020838601011115610af157600080fd5b816020850160208301376000918101602001919091529392505050565b60008060006101208486031215610b2457600080fd5b610b2e8585610986565b9250610b3d8560a08601610a28565b915061010084013567ffffffffffffffff811115610b5a57600080fd5b610b6686828701610ab8565b9150509250925092565b60008060208385031215610b8357600080fd5b823567ffffffffffffffff80821115610b9b57600080fd5b818501915085601f830112610baf57600080fd5b813581811115610bbe57600080fd5b866020828501011115610bd057600080fd5b60209290920196919550909350505050565b60005b83811015610bfd578181015183820152602001610be5565b50506000910152565b60008151808452610c1e816020860160208601610be2565b601f01601f19169290920160200192915050565b602081526000610c456020830184610c06565b9392505050565b80516001600160a01b03908116835260208083015182169084015260408083015162ffffff169084015260608083015160020b9084015260809182015116910152565b602080825282516001600160a01b031682820152820151600090610cb66040840182610c4c565b506040838101518051600290810b60e08601526020820151900b6101008501520151610120830152606083015161014080840152610cf8610160840182610c06565b949350505050565b600060208284031215610d1257600080fd5b815167ffffffffffffffff811115610d2957600080fd5b8201601f81018413610d3a57600080fd5b8051610d48610ad782610a90565b818152856020838501011115610d5d57600080fd5b610d6e826020830160208601610be2565b95945050505050565b600060208284031215610d8957600080fd5b5051919050565b600060208284031215610da257600080fd5b813567ffffffffffffffff80821115610dba57600080fd5b908301906101408286031215610dcf57600080fd5b604051608081018181108382111715610dea57610dea610910565b6040528235610df881610957565b8152610e078660208501610986565b6020820152610e198660c08501610a28565b604082015261012083013582811115610e3157600080fd5b610e3d87828601610ab8565b60608301525095945050505050565b6000610120610e5b8387610c4c565b8451600290810b60a08501526020860151900b60c0840152604085015160e084015280610100840152610e9081840185610c06565b9695505050505050565b6001600160a01b0393841681529190921660208201526001600160801b03909116604082015260600190565b600060208284031215610ed857600080fd5b81518015158114610c4557600080fd5b600081600f0b6f7fffffffffffffffffffffffffffffff198103610f1c57634e487b7160e01b600052601160045260246000fd5b6000039291505056fea264697066735822122088ba8ccf8a6c6560a9fcf9644b60c13a2246ccf580d4eefe79e34675c3c6135d64736f6c63430008140033",
    "linkReferences": {}
  },
  "methodIdentifiers": {
    "lockAcquired(bytes)": "ab6291fe",
    "manager()": "481c6a75",
    "modifyPosition((address,address,uint24,int24,address),(int24,int24,int256),bytes)": "61ae449a"
  },
  "id": 65
}