{
  "abi": [
    {
      "inputs": [
        {
          "internalType": "address",
          "name": "token",
          "type": "address"
        },
        {
          "internalType": "address",
          "name": "vaultAddress",
          "type": "address"
        },
        {
          "internalType": "uint256",
          "name": "fee",
          "type": "uint256"
        },
        {
          "internalType": "uint256",
          "name": "borrowAmount",
          "type": "uint256"
        }
      ],
      "name": "receiveFlashLoan",
      "outputs": [],
      "stateMutability": "nonpayable",
      "type": "function"
    }
  ],
  "bytecode": {
    "object": "0x608060405234801561001057600080fd5b5061028b806100206000396000f3fe608060405234801561001057600080fd5b506004361061002b5760003560e01c8063e64e517014610030575b600080fd5b61004361003e366004610182565b610045565b005b6040516323b872dd60e01b81526001600160a01b038481166004830152306024830152604482018390528516906323b872dd906064016020604051808303816000875af115801561009a573d6000803e3d6000fd5b505050506040513d601f19601f820116820180604052508101906100be91906101c4565b506001600160a01b03841663095ea7b3846127106100dc8686610203565b6100e69190610220565b6100f09085610242565b6040516001600160e01b031960e085901b1681526001600160a01b03909216600483015260248201526044016020604051808303816000875af115801561013b573d6000803e3d6000fd5b505050506040513d601f19601f8201168201806040525081019061015f91906101c4565b5050505050565b80356001600160a01b038116811461017d57600080fd5b919050565b6000806000806080858703121561019857600080fd5b6101a185610166565b93506101af60208601610166565b93969395505050506040820135916060013590565b6000602082840312156101d657600080fd5b815180151581146101e657600080fd5b9392505050565b634e487b7160e01b600052601160045260246000fd5b808202811582820484141761021a5761021a6101ed565b92915050565b60008261023d57634e487b7160e01b600052601260045260246000fd5b500490565b8082018082111561021a5761021a6101ed56fea264697066735822122009ff6161e5f7b6c11a91aa01186e2d24d38c71740f92c1cc318b8b3622397e2064736f6c63430008140033",
    "linkReferences": {}
  },
  "methodIdentifiers": {
    "receiveFlashLoan(address,address,uint256,uint256)": "e64e5170"
  },
  "id": 19
}