{
  "abi": [
    {
      "inputs": [
        {
          "internalType": "address",
          "name": "token",
          "type": "address"
        },
        {
          "internalType": "address",
          "name": "vaultAddress",
          "type": "address"
        },
        {
          "internalType": "uint256",
          "name": "fee",
          "type": "uint256"
        },
        {
          "internalType": "uint256",
          "name": "borrowAmount",
          "type": "uint256"
        }
      ],
      "name": "receiveFlashLoan",
      "outputs": [],
      "stateMutability": "nonpayable",
      "type": "function"
    }
  ],
  "bytecode": {
    "object": "0x608060405234801561001057600080fd5b50610210806100206000396000f3fe608060405234801561001057600080fd5b506004361061002b5760003560e01c8063e64e517014610030575b600080fd5b61004361003e366004610107565b610045565b005b6001600160a01b03841663095ea7b384600f610061868661015f565b61006b919061017c565b610075908561019e565b6040516001600160e01b031960e085901b1681526001600160a01b03909216600483015260248201526044016020604051808303816000875af11580156100c0573d6000803e3d6000fd5b505050506040513d601f19601f820116820180604052508101906100e491906101b1565b5050505050565b80356001600160a01b038116811461010257600080fd5b919050565b6000806000806080858703121561011d57600080fd5b610126856100eb565b9350610134602086016100eb565b93969395505050506040820135916060013590565b634e487b7160e01b600052601160045260246000fd5b808202811582820484141761017657610176610149565b92915050565b60008261019957634e487b7160e01b600052601260045260246000fd5b500490565b8082018082111561017657610176610149565b6000602082840312156101c357600080fd5b815180151581146101d357600080fd5b939250505056fea264697066735822122062ef4402a74df04fc7928a78ca8a4a1afa44c3f3b5ca0a276236b2416b90c60164736f6c63430008140033",
    "linkReferences": {}
  },
  "methodIdentifiers": {
    "receiveFlashLoan(address,address,uint256,uint256)": "e64e5170"
  },
  "id": 19
}