{
  "abi": [
    {
      "inputs": [],
      "name": "createContractProject",
      "outputs": [],
      "stateMutability": "nonpayable",
      "type": "function"
    },
    {
      "inputs": [
        {
          "internalType": "uint256",
          "name": "",
          "type": "uint256"
        }
      ],
      "name": "deployedContracts",
      "outputs": [
        {
          "internalType": "address",
          "name": "",
          "type": "address"
        }
      ],
      "stateMutability": "view",
      "type": "function"
    },
    {
      "inputs": [],
      "name": "getDeployedContracts",
      "outputs": [
        {
          "internalType": "address[]",
          "name": "",
          "type": "address[]"
        }
      ],
      "stateMutability": "view",
      "type": "function"
    }
  ],
  "bytecode": {
    "object": "0x608060405234801561001057600080fd5b5061050f806100206000396000f3fe608060405234801561001057600080fd5b50600436106100415760003560e01c80635064e065146100465780639ad1ee1014610050578063aa9a068f14610080575b600080fd5b61004e610095565b005b61006361005e3660046101ba565b610121565b6040516001600160a01b0390911681526020015b60405180910390f35b61008861014b565b60405161007791906101d3565b6000336040516100a4906101ad565b6001600160a01b039091168152602001604051809103906000f0801580156100d0573d6000803e3d6000fd5b50600080546001810182559080527f290decd9548b62a8d60345a988386fc84ba6bc95484008f6362f93160ef3e5630180546001600160a01b0319166001600160a01b039290921691909117905550565b6000818154811061013157600080fd5b6000918252602090912001546001600160a01b0316905081565b606060008054806020026020016040519081016040528092919081815260200182805480156101a357602002820191906000526020600020905b81546001600160a01b03168152600190910190602001808311610185575b5050505050905090565b6102b98061022183390190565b6000602082840312156101cc57600080fd5b5035919050565b6020808252825182820181905260009190848201906040850190845b818110156102145783516001600160a01b0316835292840192918401916001016101ef565b5090969550505050505056fe608060405234801561001057600080fd5b506040516102b93803806102b983398101604081905261002f916100be565b806001600160a01b03811661005e57604051631e4fbdf760e01b81526000600482015260240160405180910390fd5b6100678161006e565b50506100ee565b600080546001600160a01b038381166001600160a01b0319831681178455604051919092169283917f8be0079c531659141344cd1fd0a4f28419497f9722a3daafe3b4186f6b6457e09190a35050565b6000602082840312156100d057600080fd5b81516001600160a01b03811681146100e757600080fd5b9392505050565b6101bc806100fd6000396000f3fe608060405234801561001057600080fd5b50600436106100415760003560e01c8063715018a6146100465780638da5cb5b14610050578063f2fde38b1461006f575b600080fd5b61004e610082565b005b600054604080516001600160a01b039092168252519081900360200190f35b61004e61007d366004610156565b610096565b61008a6100d9565b6100946000610106565b565b61009e6100d9565b6001600160a01b0381166100cd57604051631e4fbdf760e01b8152600060048201526024015b60405180910390fd5b6100d681610106565b50565b6000546001600160a01b031633146100945760405163118cdaa760e01b81523360048201526024016100c4565b600080546001600160a01b038381166001600160a01b0319831681178455604051919092169283917f8be0079c531659141344cd1fd0a4f28419497f9722a3daafe3b4186f6b6457e09190a35050565b60006020828403121561016857600080fd5b81356001600160a01b038116811461017f57600080fd5b939250505056fea2646970667358221220cfdd101fe6fc47b21ff1445aa96e63ff459bd07b6519d935130b260ef64df61d64736f6c63430008140033a264697066735822122036791860e89e8211b1a25509bf87b5d43a55d81dfc8f4ccdb3d202770c6b339d64736f6c63430008140033",
    "linkReferences": {}
  },
  "methodIdentifiers": {
    "createContractProject()": "5064e065",
    "deployedContracts(uint256)": "9ad1ee10",
    "getDeployedContracts()": "aa9a068f"
  },
  "id": 47
}