{
  "abi": [
    {
      "inputs": [
        {
          "internalType": "address",
          "name": "_recipient",
          "type": "address"
        },
        {
          "internalType": "address",
          "name": "_mailbox",
          "type": "address"
        },
        {
          "internalType": "address",
          "name": "_interchainGasPaymaster",
          "type": "address"
        },
        {
          "internalType": "uint32",
          "name": "_chainId",
          "type": "uint32"
        }
      ],
      "name": "handle",
      "outputs": [],
      "stateMutability": "nonpayable",
      "type": "function"
    },
    {
      "inputs": [
        {
          "internalType": "address",
          "name": "",
          "type": "address"
        }
      ],
      "name": "isHaveUser",
      "outputs": [
        {
          "internalType": "bool",
          "name": "",
          "type": "bool"
        }
      ],
      "stateMutability": "view",
      "type": "function"
    },
    {
      "inputs": [
        {
          "internalType": "address",
          "name": "",
          "type": "address"
        }
      ],
      "name": "user",
      "outputs": [
        {
          "internalType": "address",
          "name": "",
          "type": "address"
        }
      ],
      "stateMutability": "view",
      "type": "function"
    }
  ],
  "bytecode": {
    "object": "0x608060405234801561001057600080fd5b5061070f806100206000396000f3fe608060405234801561001057600080fd5b50600436106100415760003560e01c806344b18ed81461004657806381e7e20e1461007e578063d9dfc5d3146100bf575b600080fd5b61006961005436600461018c565b60016020526000908152604090205460ff1681565b60405190151581526020015b60405180910390f35b6100a761008c36600461018c565b6000602081905290815260409020546001600160a01b031681565b6040516001600160a01b039091168152602001610075565b6100d26100cd3660046101ae565b6100d4565b005b6000848484846040516100e690610163565b6001600160a01b03948516815292841660208401529216604082015263ffffffff9091166060820152608001604051809103906000f08015801561012e573d6000803e3d6000fd5b5033600090815260208190526040902080546001600160a01b0319166001600160a01b03929092169190911790555050505050565b6104cc8061020e83390190565b80356001600160a01b038116811461018757600080fd5b919050565b60006020828403121561019e57600080fd5b6101a782610170565b9392505050565b600080600080608085870312156101c457600080fd5b6101cd85610170565b93506101db60208601610170565b92506101e960408601610170565b9150606085013563ffffffff8116811461020257600080fd5b93969295509093505056fe608060405234801561001057600080fd5b506040516104cc3803806104cc83398101604081905261002f916100b5565b60008054600180546001600160a01b039687166001600160a01b03199182161790915560028054958716959091169490941790935563ffffffff90911663ffffffff199390941664010000000002929092166001600160c01b031990911617919091179055610114565b80516001600160a01b03811681146100b057600080fd5b919050565b600080600080608085870312156100cb57600080fd5b6100d485610099565b93506100e260208601610099565b92506100f060408601610099565b9150606085015163ffffffff8116811461010957600080fd5b939692955090935050565b6103a9806101236000396000f3fe60806040526004361061004a5760003560e01c80631c9cfd291461004f57806366d003ac146100855780636e553f65146100c55780639a8a0592146100da578063d5438eae1461010c575b600080fd5b34801561005b57600080fd5b5061006f61006a366004610290565b61012c565b60405161007c9190610312565b60405180910390f35b34801561009157600080fd5b506000546100ad9064010000000090046001600160a01b031681565b6040516001600160a01b03909116815260200161007c565b6100d86100d3366004610290565b61016d565b005b3480156100e657600080fd5b506000546100f79063ffffffff1681565b60405163ffffffff909116815260200161007c565b34801561011857600080fd5b506001546100ad906001600160a01b031681565b6060600083836040516020016101559291909182526001600160a01b0316602082015260400190565b60408051808303601f19018152919052949350505050565b6000610179838361012c565b6001546000805460405163fa31de0160e01b815293945090926001600160a01b039283169263fa31de01926101c79263ffffffff82169264010000000090920490911690879060040161032c565b6020604051808303816000875af11580156101e6573d6000803e3d6000fd5b505050506040513d601f19601f8201168201806040525081019061020a919061035a565b600254600054604051630237e58360e31b81526004810184905263ffffffff90911660248201526208647060448201523360648201529192506001600160a01b0316906311bf2c189034906084016000604051808303818588803b15801561027157600080fd5b505af1158015610285573d6000803e3d6000fd5b505050505050505050565b600080604083850312156102a357600080fd5b8235915060208301356001600160a01b03811681146102c157600080fd5b809150509250929050565b6000815180845260005b818110156102f2576020818501810151868301820152016102d6565b506000602082860101526020601f19601f83011685010191505092915050565b60208152600061032560208301846102cc565b9392505050565b63ffffffff8416815282602082015260606040820152600061035160608301846102cc565b95945050505050565b60006020828403121561036c57600080fd5b505191905056fea264697066735822122098b69f08846a02f4c68c11eac0abac056c125b0739fd2e4bda0f8e138ffb975264736f6c63430008140033a2646970667358221220a397078d50ed53907c9efef3332684ad332f037498e8e584dff5bc5b5a29c89564736f6c63430008140033",
    "linkReferences": {}
  },
  "methodIdentifiers": {
    "handle(address,address,address,uint32)": "d9dfc5d3",
    "isHaveUser(address)": "44b18ed8",
    "user(address)": "81e7e20e"
  },
  "id": 32
}