{
  "abi": [
    {
      "inputs": [
        {
          "internalType": "address",
          "name": "_mailbox",
          "type": "address"
        }
      ],
      "stateMutability": "nonpayable",
      "type": "constructor"
    },
    {
      "anonymous": false,
      "inputs": [
        {
          "indexed": false,
          "internalType": "uint32",
          "name": "origin",
          "type": "uint32"
        },
        {
          "indexed": false,
          "internalType": "address",
          "name": "sender",
          "type": "address"
        },
        {
          "indexed": false,
          "internalType": "bytes",
          "name": "body",
          "type": "bytes"
        }
      ],
      "name": "Received",
      "type": "event"
    },
    {
      "inputs": [
        {
          "internalType": "uint32",
          "name": "_origin",
          "type": "uint32"
        },
        {
          "internalType": "bytes32",
          "name": "_sender",
          "type": "bytes32"
        },
        {
          "internalType": "bytes",
          "name": "_body",
          "type": "bytes"
        }
      ],
      "name": "handle",
      "outputs": [],
      "stateMutability": "nonpayable",
      "type": "function"
    },
    {
      "inputs": [
        {
          "internalType": "address",
          "name": "",
          "type": "address"
        }
      ],
      "name": "isHaveUser",
      "outputs": [
        {
          "internalType": "bool",
          "name": "",
          "type": "bool"
        }
      ],
      "stateMutability": "view",
      "type": "function"
    },
    {
      "inputs": [],
      "name": "mailbox",
      "outputs": [
        {
          "internalType": "address",
          "name": "",
          "type": "address"
        }
      ],
      "stateMutability": "view",
      "type": "function"
    },
    {
      "inputs": [
        {
          "internalType": "address",
          "name": "",
          "type": "address"
        }
      ],
      "name": "user",
      "outputs": [
        {
          "internalType": "address",
          "name": "",
          "type": "address"
        }
      ],
      "stateMutability": "view",
      "type": "function"
    }
  ],
  "bytecode": {
    "object": "0x608060405234801561001057600080fd5b5060405161061e38038061061e83398101604081905261002f91610054565b600280546001600160a01b0319166001600160a01b0392909216919091179055610084565b60006020828403121561006657600080fd5b81516001600160a01b038116811461007d57600080fd5b9392505050565b61058b806100936000396000f3fe608060405234801561001057600080fd5b506004361061004c5760003560e01c806344b18ed81461005157806356d5d4751461008957806381e7e20e1461009e578063d5438eae146100df575b600080fd5b61007461005f36600461020f565b60016020526000908152604090205460ff1681565b60405190151581526020015b60405180910390f35b61009c61009736600461027a565b6100f2565b005b6100c76100ac36600461020f565b6000602081905290815260409020546001600160a01b031681565b6040516001600160a01b039091168152602001610080565b6002546100c7906001600160a01b031681565b6002546001600160a01b0316331461010957600080fd5b60405182907fbb8068a80970e39c505e930e385376bf8649fce97bd3eb8f4c4dfffc5e9b80339061013f90869084908690610334565b60405180910390a160008280602001905181019061015d919061039f565b60025481516040519293506000926001600160a01b0390921691610180906101ea565b6001600160a01b03928316815291166020820152604001604051809103906000f0801580156101b3573d6000803e3d6000fd5b5091516001600160a01b03908116600090815260208190526040902080546001600160a01b03191691909316179091555050505050565b61016a806103ec83390190565b6001600160a01b038116811461020c57600080fd5b50565b60006020828403121561022157600080fd5b813561022c816101f7565b9392505050565b634e487b7160e01b600052604160045260246000fd5b604051601f8201601f1916810167ffffffffffffffff8111828210171561027257610272610233565b604052919050565b60008060006060848603121561028f57600080fd5b833563ffffffff811681146102a357600080fd5b92506020848101359250604085013567ffffffffffffffff808211156102c857600080fd5b818701915087601f8301126102dc57600080fd5b8135818111156102ee576102ee610233565b610300601f8201601f19168501610249565b9150808252888482850101111561031657600080fd5b80848401858401376000848284010152508093505050509250925092565b63ffffffff841681526000602060018060a01b0385168184015260606040840152835180606085015260005b8181101561037c57858101830151858201608001528201610360565b506000608082860101526080601f19601f83011685010192505050949350505050565b6000602082840312156103b157600080fd5b6040516020810181811067ffffffffffffffff821117156103d4576103d4610233565b60405282516103e2816101f7565b8152939250505056fe608060405234801561001057600080fd5b5060405161016a38038061016a83398101604081905261002f9161007c565b600180546001600160a01b039384166001600160a01b031991821617909155600080549290931691161790556100af565b80516001600160a01b038116811461007757600080fd5b919050565b6000806040838503121561008f57600080fd5b61009883610060565b91506100a660208401610060565b90509250929050565b60ad806100bd6000396000f3fe6080604052348015600f57600080fd5b506004361060325760003560e01c80638da5cb5b146037578063d5438eae146065575b600080fd5b6000546049906001600160a01b031681565b6040516001600160a01b03909116815260200160405180910390f35b6001546049906001600160a01b03168156fea26469706673582212209544f2fa0a432387ab23fdd77fd5dbf13972488d2559b120b56ad1d694eea7f564736f6c63430008140033a26469706673582212206ea1ad6f02bd80f0b35fa7f26df86ebd539dc6898ab4c091e83c479059bd75b564736f6c63430008140033",
    "linkReferences": {}
  },
  "methodIdentifiers": {
    "handle(uint32,bytes32,bytes)": "56d5d475",
    "isHaveUser(address)": "44b18ed8",
    "mailbox()": "d5438eae",
    "user(address)": "81e7e20e"
  },
  "id": 16
}