{
  "abi": [
    {
      "inputs": [
        {
          "internalType": "contract IPoolManager",
          "name": "_manager",
          "type": "address"
        }
      ],
      "stateMutability": "nonpayable",
      "type": "constructor"
    },
    {
      "inputs": [],
      "name": "ERC20TransferFailed",
      "type": "error"
    },
    {
      "inputs": [],
      "name": "NativeTransferFailed",
      "type": "error"
    },
    {
      "inputs": [
        {
          "internalType": "bytes",
          "name": "rawData",
          "type": "bytes"
        }
      ],
      "name": "lockAcquired",
      "outputs": [
        {
          "internalType": "bytes",
          "name": "",
          "type": "bytes"
        }
      ],
      "stateMutability": "nonpayable",
      "type": "function"
    },
    {
      "inputs": [],
      "name": "manager",
      "outputs": [
        {
          "internalType": "contract IPoolManager",
          "name": "",
          "type": "address"
        }
      ],
      "stateMutability": "view",
      "type": "function"
    },
    {
      "inputs": [
        {
          "components": [
            {
              "internalType": "Currency",
              "name": "currency0",
              "type": "address"
            },
            {
              "internalType": "Currency",
              "name": "currency1",
              "type": "address"
            },
            {
              "internalType": "uint24",
              "name": "fee",
              "type": "uint24"
            },
            {
              "internalType": "int24",
              "name": "tickSpacing",
              "type": "int24"
            },
            {
              "internalType": "contract IHooks",
              "name": "hooks",
              "type": "address"
            }
          ],
          "internalType": "struct PoolKey",
          "name": "key",
          "type": "tuple"
        },
        {
          "components": [
            {
              "internalType": "bool",
              "name": "zeroForOne",
              "type": "bool"
            },
            {
              "internalType": "int256",
              "name": "amountSpecified",
              "type": "int256"
            },
            {
              "internalType": "uint160",
              "name": "sqrtPriceLimitX96",
              "type": "uint160"
            }
          ],
          "internalType": "struct IPoolManager.SwapParams",
          "name": "params",
          "type": "tuple"
        },
        {
          "components": [
            {
              "internalType": "bool",
              "name": "withdrawTokens",
              "type": "bool"
            },
            {
              "internalType": "bool",
              "name": "settleUsingTransfer",
              "type": "bool"
            }
          ],
          "internalType": "struct PoolSwapTest.TestSettings",
          "name": "testSettings",
          "type": "tuple"
        },
        {
          "internalType": "bytes",
          "name": "hookData",
          "type": "bytes"
        }
      ],
      "name": "swap",
      "outputs": [
        {
          "internalType": "BalanceDelta",
          "name": "delta",
          "type": "int256"
        }
      ],
      "stateMutability": "payable",
      "type": "function"
    }
  ],
  "bytecode": {
    "object": "0x60a060405234801561001057600080fd5b5060405161139938038061139983398101604081905261002f91610040565b6001600160a01b0316608052610070565b60006020828403121561005257600080fd5b81516001600160a01b038116811461006957600080fd5b9392505050565b6080516112996101006000396000818160710152818160dc015281816101f9015281816102370152818161031a015281816103f5015281816104a5015281816105160152818161054a01528181610603015281816106970152818161072c015281816107ca0152818161087a015281816108eb0152818161091f015281816109db0152610a1e01526112996000f3fe6080604052600436106100345760003560e01c80632229d0b414610039578063481c6a751461005f578063ab6291fe146100ab575b600080fd5b61004c610047366004610ddc565b6100d8565b6040519081526020015b60405180910390f35b34801561006b57600080fd5b506100937f000000000000000000000000000000000000000000000000000000000000000081565b6040516001600160a01b039091168152602001610056565b3480156100b757600080fd5b506100cb6100c6366004610e51565b6101ec565b6040516100569190610f13565b60007f00000000000000000000000000000000000000000000000000000000000000006001600160a01b031663815483196040518060a00160405280336001600160a01b03168152602001868152602001888152602001878152602001858152506040516020016101499190610f70565b6040516020818303038152906040526040518263ffffffff1660e01b81526004016101749190610f13565b6000604051808303816000875af1158015610193573d6000803e3d6000fd5b505050506040513d6000823e601f3d908101601f191682016040526101bb9190810190611002565b8060200190518101906101ce9190611079565b90504780156101e3576101e360003383610ace565b50949350505050565b6060336001600160a01b037f0000000000000000000000000000000000000000000000000000000000000000161461022357600080fd5b600061023183850185611092565b905060007f00000000000000000000000000000000000000000000000000000000000000006001600160a01b031663f3cd914c8360400151846060015185608001516040518463ffffffff1660e01b81526004016102919392919061114b565b6020604051808303816000875af11580156102b0573d6000803e3d6000fd5b505050506040513d601f19601f820116820180604052508101906102d49190611079565b606083015151909150156106d45760006102ee8260801c90565b600f0b13156105d75781602001516020015115610514576040820151516001600160a01b03166103d7577f00000000000000000000000000000000000000000000000000000000000000006001600160a01b0316636a256b296103518360801c90565b6001600160801b03168460400151600001516040518363ffffffff1660e01b815260040161038e91906001600160a01b0391909116815260200190565b60206040518083038185885af11580156103ac573d6000803e3d6000fd5b50505050506040513d601f19601f820116820180604052508101906103d19190611079565b506105d7565b8160400151600001516001600160a01b03166323b872dd83600001517f000000000000000000000000000000000000000000000000000000000000000061041e8560801c90565b6040518463ffffffff1660e01b815260040161043c9392919061119d565b6020604051808303816000875af115801561045b573d6000803e3d6000fd5b505050506040513d601f19601f8201168201806040525081019061047f91906111c9565b50604082810151519051636a256b2960e01b81526001600160a01b0391821660048201527f000000000000000000000000000000000000000000000000000000000000000090911690636a256b29906024016020604051808303816000875af11580156104f0573d6000803e3d6000fd5b505050506040513d601f19601f820116820180604052508101906103d19190611079565b7f00000000000000000000000000000000000000000000000000000000000000006001600160a01b031663f242432a83600001517f00000000000000000000000000000000000000000000000000000000000000008560400151600001516001600160a01b03166105858660801c90565b6040518563ffffffff1660e01b81526004016105a494939291906111e6565b600060405180830381600087803b1580156105be57600080fd5b505af11580156105d2573d6000803e3d6000fd5b505050505b600081600f0b12156106cf576020820151511561068a5760408201516020015182516001600160a01b037f00000000000000000000000000000000000000000000000000000000000000001691630b0d9c0991845b61063590611226565b6040518463ffffffff1660e01b81526004016106539392919061119d565b600060405180830381600087803b15801561066d57600080fd5b505af1158015610681573d6000803e3d6000fd5b50505050610aa9565b60408201516020015182517f00000000000000000000000000000000000000000000000000000000000000006001600160a01b03169163c6c3bbe69161063585611226565b610aa9565b600081600f0b13156109a957816020015160200151156108e9576040820151602001516001600160a01b03166107ac57604080830151602001519051636a256b2960e01b81526001600160a01b0391821660048201527f000000000000000000000000000000000000000000000000000000000000000090911690636a256b29906001600160801b0384169060240160206040518083038185885af1158015610781573d6000803e3d6000fd5b50505050506040513d601f19601f820116820180604052508101906107a69190611079565b506109a9565b8160400151602001516001600160a01b03166323b872dd83600001517f00000000000000000000000000000000000000000000000000000000000000006107f08590565b6040518463ffffffff1660e01b815260040161080e9392919061119d565b6020604051808303816000875af115801561082d573d6000803e3d6000fd5b505050506040513d601f19601f8201168201806040525081019061085191906111c9565b50604082810151602001519051636a256b2960e01b81526001600160a01b0391821660048201527f000000000000000000000000000000000000000000000000000000000000000090911690636a256b29906024016020604051808303816000875af11580156108c5573d6000803e3d6000fd5b505050506040513d601f19601f820116820180604052508101906107a69190611079565b7f00000000000000000000000000000000000000000000000000000000000000006001600160a01b031663f242432a83600001517f00000000000000000000000000000000000000000000000000000000000000008560400151602001516001600160a01b03166109578690565b6040518563ffffffff1660e01b815260040161097694939291906111e6565b600060405180830381600087803b15801561099057600080fd5b505af11580156109a4573d6000803e3d6000fd5b505050505b60006109b58260801c90565b600f0b1215610aa95760208201515115610a0c5760408201515182516001600160a01b037f00000000000000000000000000000000000000000000000000000000000000001691630b0d9c099161062c8560801c90565b60408201515182516001600160a01b037f0000000000000000000000000000000000000000000000000000000000000000169163c6c3bbe691610a4f8560801c90565b610a5890611226565b6040518463ffffffff1660e01b8152600401610a769392919061119d565b600060405180830381600087803b158015610a9057600080fd5b505af1158015610aa4573d6000803e3d6000fd5b505050505b6040805160208101839052016040516020818303038152906040529250505092915050565b60006001600160a01b038416610b0d5760008060008085875af1905080610b0857604051633d2cec6f60e21b815260040160405180910390fd5b610b68565b60405163a9059cbb60e01b6000528360045282602452602060006044600080895af13d15601f3d1160016000511416171691506000606052806040525080610b6857604051633c9fd93960e21b815260040160405180910390fd5b50505050565b634e487b7160e01b600052604160045260246000fd5b60405160a0810167ffffffffffffffff81118282101715610ba757610ba7610b6e565b60405290565b604051601f8201601f1916810167ffffffffffffffff81118282101715610bd657610bd6610b6e565b604052919050565b6001600160a01b0381168114610bf357600080fd5b50565b600060a08284031215610c0857600080fd5b610c10610b84565b90508135610c1d81610bde565b81526020820135610c2d81610bde565b6020820152604082013562ffffff81168114610c4857600080fd5b60408201526060820135600281900b8114610c6257600080fd5b60608201526080820135610c7581610bde565b608082015292915050565b8015158114610bf357600080fd5b600060608284031215610ca057600080fd5b6040516060810181811067ffffffffffffffff82111715610cc357610cc3610b6e565b6040529050808235610cd481610c80565b8152602083810135908201526040830135610cee81610bde565b6040919091015292915050565b600060408284031215610d0d57600080fd5b6040516040810181811067ffffffffffffffff82111715610d3057610d30610b6e565b6040529050808235610d4181610c80565b81526020830135610d5181610c80565b6020919091015292915050565b600067ffffffffffffffff821115610d7857610d78610b6e565b50601f01601f191660200190565b600082601f830112610d9757600080fd5b8135610daa610da582610d5e565b610bad565b818152846020838601011115610dbf57600080fd5b816020850160208301376000918101602001919091529392505050565b6000806000806101608587031215610df357600080fd5b610dfd8686610bf6565b9350610e0c8660a08701610c8e565b9250610e1c866101008701610cfb565b915061014085013567ffffffffffffffff811115610e3957600080fd5b610e4587828801610d86565b91505092959194509250565b60008060208385031215610e6457600080fd5b823567ffffffffffffffff80821115610e7c57600080fd5b818501915085601f830112610e9057600080fd5b813581811115610e9f57600080fd5b866020828501011115610eb157600080fd5b60209290920196919550909350505050565b60005b83811015610ede578181015183820152602001610ec6565b50506000910152565b60008151808452610eff816020860160208601610ec3565b601f01601f19169290920160200192915050565b602081526000610f266020830184610ee7565b9392505050565b80516001600160a01b03908116835260208083015182169084015260408083015162ffffff169084015260608083015160020b9084015260809182015116910152565b602080825282516001600160a01b031682820152828101518051151560408085019190915291015115156060830152820151600090610fb26080840182610f2d565b506060830151805115156101208401526020810151610140840152604001516001600160a01b0316610160830152608083015161018080840152610ffa6101a0840182610ee7565b949350505050565b60006020828403121561101457600080fd5b815167ffffffffffffffff81111561102b57600080fd5b8201601f8101841361103c57600080fd5b805161104a610da582610d5e565b81815285602083850101111561105f57600080fd5b611070826020830160208601610ec3565b95945050505050565b60006020828403121561108b57600080fd5b5051919050565b6000602082840312156110a457600080fd5b813567ffffffffffffffff808211156110bc57600080fd5b9083019061018082860312156110d157600080fd5b6110d9610b84565b82356110e481610bde565b81526110f38660208501610cfb565b60208201526111058660608501610bf6565b6040820152611118866101008501610c8e565b60608201526101608301358281111561113057600080fd5b61113c87828601610d86565b60808301525095945050505050565b600061012061115a8387610f2d565b8451151560a0840152602085015160c084015260408501516001600160a01b031660e08401528061010084015261119381840185610ee7565b9695505050505050565b6001600160a01b0393841681529190921660208201526001600160801b03909116604082015260600190565b6000602082840312156111db57600080fd5b8151610f2681610c80565b6001600160a01b03948516815292909316602083015260408201526001600160801b03909116606082015260a06080820181905260009082015260c00190565b600081600f0b6f7fffffffffffffffffffffffffffffff19810361125a57634e487b7160e01b600052601160045260246000fd5b6000039291505056fea2646970667358221220e2d8605bfe72d97872a58bb24b343cac543eea593d896f16cabcf1511a9278e764736f6c63430008140033",
    "linkReferences": {}
  },
  "methodIdentifiers": {
    "lockAcquired(bytes)": "ab6291fe",
    "manager()": "481c6a75",
    "swap((address,address,uint24,int24,address),(bool,int256,uint160),(bool,bool),bytes)": "2229d0b4"
  },
  "id": 66
}